:100000000C94B41B0C9484390C94D11B0C94D11B0C
:100010000C94D11B0C94D11B0C94D11B0C94D11BB0
:100020000C94D11B0C94D11B0C94D11B0C94D11BA0
:100030000C94D11B0C94D11B0C94D11B0C94D11B90
:100040000C94D11B0C94D11B0C94D11B0C94D11B80
:100050000C94D11B0C94D11B0C94D11B0C94D11B70
:100060000C94D11B0C94D11BFFFFFFFFFFFFFEFC84
:10007000F8F0E0C0C08080800000000000010101B5
:100080000000000000008080C0C0E0E0F0F8FCFE4E
:10009000FFFFFFFFFFFFFFFFFFFFFCE0C0000000CE
:1000A00000000000030F1F3F7F7FFFFFFFFFFFFFE8
:1000B000FFFFFF7F7F3F1F0F0300000000000000D5
:1000C00080E0F8FEFFFFFFFFF000000000000000EE
:1000D00000001FFFFFFFFFFFFFFFFFFFFFFFFFFF0E
:1000E000FFFFFFFFFFFFFFFFFFFF1F0000000000FB
:1000F00000000000E0FFFFFF000000000000000023
:10010000007FFFFFFFFFFFFFFFFFFFFFFFFFFFFF7E
:10011000FFFFFFFFFFFFFFFFFFFFFF7F000000006B
:100120000000000000FFFFFF0000000000000000D2
:1001300000FEFFFFFFFFFFFFFFFFFFFFFFFFFFFFCF
:10014000FFFFFFFFFFFFFFFFFFFFFFFE00000000BC
:100150000000000000FFFFFF0F0000000000000093
:100160000000F8FEFFFFFFFFFFFFFFFFFFFFFFFFA5
:10017000FFFFFFFFFFFFFFFFFFFEF8000000000092
:10018000000000011FFFFFFFFFFF3F0F0300000003
:100190000000000080E0F0F8FCFCFEFEFEFFFFFF28
:1001A000FEFEFEFCFCF8F0E0800000000000000114
:1001B000070F3FFFFFFFFFFFFFFFFFFFFFFF7F3F37
:1001C0001F0F0F07070303030101010101010101D3
:1001D000010101010103030307070F1F3F7FFFFF19
:1001E000FFFFFFFFFFFFFFFFFFFFFFFFFEFEFCFC27
:1001F000F8F8F0F0E0E0C0C08080000000000000EF
:1002000000000000FFFFFFFFFFFFFFFFFFFFFFFFFA
:10021000FFFFFFFFFFFFFFFF8F83000000000001D3
:10022000010307070F1F1F3F3F00000000000000F1
:1002300000000000FFFFFFFFFFFFFFFFFFFFFFFFCA
:10024000FFFFFFFFFFFFFFFFFFFF7F7F7FFFFFFF3E
:10025000FFFFFFFFFFFFFFFFFF00000000000000A7
:1002600000000000FFFFFFFFFFFFFFFFFFFFFFFF9A
:10027000FFFFFFFFFFFFFFFFFFFFFFFFFFFFFFFF8E
:10028000FFFFFFFFFFFFFFFFFF0000000000000077
:1002900000000000FFFFFFFFFFFFFFFFFFFFFFFF6A
:1002A000FFFFFFFFFFFFFFFFFFFFFFFFFFFFFFFF5E
:1002B000FFFFFFFFFFFFFFFFFF0000000000000047
:1002C00000000000FFFFFFFFFFFFFFFFFFFFFFFF3A
:1002D000FFFFFFFFFFFFFFFFFFFFFFFFFFFFFFFF2E
:1002E000FFFFFFFFFFFFFFFFFF0000000000000017
:1002F00000000000FFFFFFFFFFFFFFFFFFFFFFFF0A
:10030000FFFFFFFFFFFFFFFFFFFFF8F8F8F8F8F827
:10031000F8F8F8F8F8F8F8F8F80000000000000025
:1003200000000000F8F8F8F8F8F8F8F8F8F8F8F82D
:10033000F8F8FFFFFFFFFFFFFFFF070707070707AB
:10034000070707070707070707070707070707073D
:10035000070707070707070707070707070707072D
:100360000707FFFFFFFFFFFFFFFEFCF8F0F0E0C014
:10037000C08080800000000000010101000000003A
:100380000000808080C0C0E0F0F0FCFEFFFFFFFFB7
:10039000FFFFFFFFFFFFFFFFFF7F3F1F0707070F65
:1003A0001F1F3F7F7FFFFFFFFFFFFFFFFFFFFF7F5D
:1003B0007F3F1F07000000000000000000C0FCFF9E
:1003C000FFFFFFFFFFFFFFFFFFFFFFFFFFFFFFFF3D
:1003D000FFFFFFFFFFFFFFFFFFFFFFFFFFFFFFFF2D
:1003E000FFFFFFFF0000000000000000000003FF0F
:1003F000FFFFFFFFFFFFFFFFFFFFFFFFFFFFFFFF0D
:10040000FFFFFFFFFFFFFFFFFFFFFFFFFFFFFFFEFD
:10041000FCF0E08000000000000001070F7FFFFFFC
:10042000FFFFFFFFFFFFFFFFFFFFFFFFFFFFFFFFDC
:10043000FFFFFFFFFFFFFFFEFCF8F0E0C0800000C1
:100440000000000103070F1F3FFFFFFFFFFFFFFF3B
:10045000FFFFFFFFFFFFFFFFFFFFFFFFFFFFFFFEAD
:10046000FCF8F0E0C08000000000000103070F1F4F
:100470003F7FFFFFFFFFFFFFFFFFFFFFFFFFFFFFCC
:10048000FFFFFFFFFFFFFFFFFCF8F0E0C080000070
:100490000000000000040C1C3C7CFCFCFCFCFCFC90
:1004A000FCFCFCFCFCFCFCFCFCFCFCFCFCFCFCFC8C
:1004B000FCFCFFFFFFFFFFFF030303030303030332
:1004C00003030303030303030303030303030303FC
:1004D00003030303030303030303030303030303EC
:1004E0000303FFFFFFFFFFFFFFC08080808000004D
:1004F00000000000010101010100000000000000F7
:10050000808080C0C0E0F0F0F8FEFFFFFFFFFFFF3B
:10051000FFFFFFFFFFFFFFFFFF7F7F7F7FFFFFFFEB
:10052000FFFFFFFFFFFFFFFFFFFFFFFFFF7F7F3F9B
:100530001F07000000000000000000E0FFFFFFFFB9
:10054000FFFFFFFFFFFFFFFFFFFFFFFFFFFFFFFFBB
:10055000FFFFFFFFFFFFFFFFFFFFFFFFFFFFFFFEAC
:10056000FCF00000000000000000031FFFFFFFFF81
:10057000FFFFFFFFFFFFFFFFFFFFFFFFFFFFE0E0C9
:10058000E0E0E0E0E0E0E0E0C0C0C0C0808000006B
:10059000000000040C0C1E3E7FFFFFFFFFFFFFFF6B
:1005A000FFFFFFFFFFFFFFFFFFFFFFFFFFFF3F3FDB
:1005B0003F3F3F3F3F3F3F3F3F1F1F1F1F1F0F0F4B
:1005C00007070301000000000080C0E0F0F8FFFF13
:1005D000FFFFFFFFFFFFFFFFFFFFFFFFFFFFFFFF2B
:1005E000FFFFFFFFFFFFFFFFFFFFFFFFFFFFFFFF1B
:1005F000FFFFFFFF7F00000000000000000000FF81
:10060000FFFFFFFFFFFFFFFFFEFEFEFEFEFEFEFE02
:10061000FFFFFFFFFFFFFFFEFEFEFEFEFEFCFCFCF9
:10062000F8F0E0C00000000000000103071FFFFF1A
:10063000FFFFFFFFFFFFFFFF0101010101010101BA
:100640000101010101010101010101010103030394
:100650000307070F0F1F1F3F7FFFFFFFFFFFFFFF76
:10066000FFFFFFFFFFFFFFFFFFFFFFFFFFFFFFFF9A
:10067000FFFFFFFFFFFFFFFFFFFFFFFFFFFCF8E0B3
:10068000800000000000000000000000000000FFEB
:10069000FFFFFFFFFFFFFFFFFFFFFFFFFFFFFFFF6A
:1006A000FFFFFFFFFFFFFFFEFCF0E0800000000007
:1006B0000001030F1F00000000000000000000FF09
:1006C000FFFFFFFFFFFFFFFFFFFFFFFFFFFFFFFF3A
:1006D000FFFFFEFCF0E080000000000001070F3F7C
:1006E0007FFFFFFFFF00000000000000000000FF90
:1006F000FFFFFFFFFFFFFFFFFFFFFFFFFFFEFCF01D
:10070000C080000000000001070F3F7FFFFFFFFFD8
:10071000FFFFFFFFFF00000000000000000000FFDF
:10072000FFFFFFFFFFFFFFFFFEF8F0C080000000AB
:10073000000001071F3FFFFFFFFFFFFFFFFFFFFF5D
:10074000FFFFFFFFFF00000000000000000000FFAF
:10075000FFFFFFFFFFFFFFFF0000000000000000A1
:100760000080808080808080808080808080808009
:100770008080808080000000000000000000008079
:100780008080808080808080FFFFFFFFFFFFFFFF71
:10079000FFFFFFFFFFFFFFFFFFFFFFFFFFFFFFFF69
:1007A000FFFFFFFFFF00000000000000000000FF4F
:1007B000FFFFFFFFFFFFFFFFFFFFFFFFFFFFFFFF49
:1007C000FFFFFFFFFFFFFFFFFFFFFFFFFFFFFFFF39
:1007D000FFFFFFFFFF07070707070707070707FFD9
:1007E000FFFFFFFFFFFFFFFF000000000000000011
:1007F00000010101010101010101010101010101EA
:1008000001010101010101010101FFFFFFFFFFFFE4
:10081000FFFFFFFFFFFFFFFF0000000000000000E0
:1008200000FFFFFFFFFFFFFFFFFFFFFFFFFFFFFFD7
:10083000FFFFFFFFFFFFFFFFFFFFFFFFFFFFFFFFC8
:10084000FFFFFFFFFFFFFFFF0000000000000000B0
:1008500000FFFFFFFFFFFFFFFFFFFFFFFFFFFFFFA7
:10086000FFFFFFFFFFFFFFFFFFFFFFFFFFFFFFFF98
:10087000FFFFFFFFFFFFFFFF010101010101010178
:1008800001010101010101000000000000000080E1
:100890008080C0C0C0E0E0F0F8FCFEFFFFFFFFFF7B
:1008A000FFFFFFFFFFFFFFFFFFFFFFFFFFFFFFFF58
:1008B000FFFFFFFFFFFFFFFFFFFFFFFFFF7F7F3F08
:1008C0001F0F07000000000000000080E0FFFFFF96
:1008D000FFFFFFFFFFFFFFFFFFFFFFFFFFFFFFFF28
:1008E000FFFFFFFFFFFFFFFFFFFFFFFFFFFFFFFF18
:1008F000FFFFFE00000000000000000000FFFFFFFF
:10090000FFFFFFFFFFFFFFFFFCFCFCFCFCFCFCFC0F
:10091000FEFEFEFEFEFEFCFCFCFCFCF8F8F0F0E047
:10092000C08000000000000103070F3FFFFFFFFF32
:10093000FFFFFFFFFFFFFFFF0303030303030303A7
:100940000303030303030303030303070707070F5B
:100950000F1F1F3F3F7FFFFFFFFFFFFFFFFFFFFF57
:10096000FFFFFFFFFFFFFFFFFFFFFFFFFFFFFFFF97
:10097000FFFEFCF8F8F0E0E0C0C0C080808080009E
:10098000000000000001010101010101010101FF5E
:10099000FFFFFFFFFFFFFFFFFFFFFFFFF8F0C0803B
:1009A00000000000000103070F1F1F3F7F7F7FFF34
:1009B000FFFFFFFFFFFFFFFFFFFFFFFFFFFFFFFF47
:1009C000FFFFFFFFFFFFFFFFFFF8C0000000000078
:1009D0000000011F7FFFFFFFFFFEFEFEFEFEFEFE8A
:1009E000FEFEFEFEFEFEFEFFFFFFFFFFFFFFFFFF1E
:1009F000FFFFFFFFFFFFFFFFE0000000000000001F
:100A00000000C08080000000010101010103030318
:100A1000030101010000000000008080C0E0E0F060
:100A2000FCFEFFFFFFFFFFFF0000000000000000D2
:100A300000003F7F7FFFFFFFFFFFFFFFFFFFFFFF84
:100A4000FFFFFFFFFFFF7F3F1F03000000000000CC
:100A5000000080F8FFFFFFFF3F01000000000000E2
:100A60000000C0FEFFFFFFFFFFFFFFFFFFFFFFFFD4
:100A7000FFFFFFFFFFFFFFFFFFFC00000000000083
:100A800000000003FFFFFFFFFFFF3F0F0300000018
:100A90000000000080E0F0F8F8FCFCFCFCFEFEFE2C
:100AA000FCFCFCFCF8F0E0C080000000000000034B
:100AB000071F7FFFFFFFFFFFFFFFFFFFFFFF7F3FDE
:100AC0001F1F0F0F0707070303030303030303039A
:100AD00003030303030707070F0F1F3F3F7FFFFFBA
:100AE000FFFFFFFFFFFFFFFF00000000000000000E
:100AF00000000000000000000000000000000000F6
:100B000000000000000000000000000000000000E5
:100B1000000000FFFFFFFFFFFFFFFFFFFFFFFFFFE2
:100B2000FFFFFFFFFFFFFFFFFFFFFFFFFFFFFFFFD5
:100B3000FFFFFFFFFFFEF8E0800000000000000163
:100B4000073FFFFFFFFFFFFFFFFFFFFFFFFFFFFF6D
:100B5000FFFFFFFFFFFFFFFFFFFFFFFFFFFFFFFFA5
:100B6000FFFEF8E08000000000000001071F7FFF8B
:100B7000FFFFFFFFFFFFFFFFFFFFFFFFFFFFFFFF85
:100B8000FFFFFFFFFFFFFFFFFFFFFFFFFFFEF8E09C
:100B90008000000000000001071F7FFFFFFFFFFF34
:100BA000FFFFFFFFFFFFFFFFFFFFFFFFFFFFFFFF55
:100BB000FFFFFFFFFFFFFFFFFFFCF8E080000000EA
:100BC00000000001071F7FFFFFFFFFFFFFFFFFFF88
:100BD000FFFFFFFFFFFFFFFFFFFFFFFFFFFFFFFF25
:100BE000FFFFFFFFFFFCF0C000000000000000005E
:100BF000031F7FFFFFFFFFFFFFFFFFFFFFFFFFFF61
:100C0000FFFFFFFFFFFFFFFFFFFFFFFFFFFFFFFFF4
:100C1000FFFCF0C00000000000000000030F3FFFD9
:100C2000FFFFFFFFFFFFFFFFFFFFFFFFFFFFFFFFD4
:100C3000FFFFFFFFFFFFFFFFFFFFFFFFFFFFF7C704
:100C40000707070707070707070F3FFFFFFFFFFF1C
:100C5000FFFFFFFFFFFFFFFFFFFFFFFFFFFFFFFFA4
:100C6000FFFFFFFFFFFFFFFFFFFFFFFFFCF8F0E0CC
:100C7000E0C0C0808080000000000001010101018F
:100C8000000000000000808080C0C0E0E0F0F8FEBE
:100C9000FFFFFFFFFFFFFFFFFFF0800000000000ED
:100CA0000000000F3F7F7FFFFFFFFFFFFFFFFFFF01
:100CB000FFFFFFFF7F7F3F0F0000000000000000EC
:100CC00000E0FFFFFFFFFFFFFF1F03010000000028
:100CD000000000C0F0F8FCFEFEFFFFFFFFFFFFFF7B
:100CE000FFFFFFFEFCF8F0C0000000000000000164
:100CF000073FFFFFFFFFFFFFFFFFFFFF7F3F1F0FCC
:100D00000F0703020000000000000080C0C0C0C048
:100D1000808000000000000206070F1F3F7FFFFFDA
:100D2000FFFFFFFFFFFFFFFFFFFFFEFCF0E0E0C063
:100D30008000000000010103070F0F1F1F1F1F0F7E
:100D40000F0703030100000000000080C0E0F0F87E
:100D5000FCFFFFFFFFFFFFFFE0800000000000003E
:100D600000000F3FFFFFFFFFFFFFFFFFFFFFFFFF41
:100D7000FFFFFFFFFFFF7F3F0700000000000000B4
:100D80000000C0FFFFFFFFFF0F0100000000000098
:100D90000000C0F0F8F8FCFEFEFEFEFFFFFFFFFFC4
:100DA000FEFEFEFEFCFCF8F0C000000000000000AB
:100DB00001031FFFFFFFFFFFFFFFFF7F3F1F0F0F1D
:100DC0000707030303010101010101010101010101
:100DD00001010101010303030707070F1F1F3F7FE5
:100DE000FFFFFFFFFFFFFFFFFFFFFFFFFFFCF8F02C
:100DF000F0E0C0C080808000000000000101010020
:100E00000000000000808080C0C0E0F0F8FCFEFF21
:100E1000FFFFFFFFFFFFFFFFFFF8C08000000000A3
:100E2000000000070F3F3F7FFFFFFFFFFFFFFFFFB7
:100E3000FFFFFF7F7F3F0F070000000000000080E2
:100E4000C0F8FFFFFFFFFFFF0000000000000000F0
:100E50000000FFFFFFFFFFFFFFFFFFFFFFFFFFFFA0
:100E6000FFFFFFFFFFFFFFFFFF0700000000000084
:100E7000000000F8FFFFFFFF3F0701000000000037
:100E8000000000E0F0F8FCFEFEFEFEFFFFFFFFFEAC
:100E9000FEFEFEFEFCFCFCF8F8F000000000000086
:100EA00000000000FFFFFFFFFFFFFFFF3F1F0F0FCE
:100EB0000707030303010101010101010101010110
:100EC0000101010303030307070E000000000000F7
:100ED0000000001FFFFFFFFFFFFFFFFFFFFFFFFFFF
:100EE000FFFFFFFFFFFFFFFFFFFFFFFFFFFFFFFF12
:100EF000FFFFFFFFFFFFFEF8E00000000000000022
:100F0000030F7FFFFFFFFFFFFFFFFFFFFEFEFEFE61
:100F1000FEFEFEFEFEFCFCFCFCFCFCFCF8F8F8F01F
:100F2000F0E0E0C08000000000000103071F3FFF69
:100F3000FFFFFFFFFFFFFFFFFFFFFFFF03030303B1
:100F40000303030303030303030303030707070761
:100F50000F0F0F1F1F3F3F7FFFFFFFFFFFFFFFFF31
:100F6000FFFFFFFFFFFFFFFFFFFFFFFFFFFFFFFF91
:100F7000FFFFFFFFFFFFFFFFFFFFFFFFFEFEFEFE85
:100F8000FEFEFEFFFFFFFFFFFFFFFFFFFFFFFFFF74
:100F9000FFFFFFFFFFFFFFFFFFFFFFFFFFFFFFFF61
:100FA000FFFFFFFFFFFFFFFFE080000000000000E9
:100FB000000000000080E0FFFFFFFFFFFFFFFFFFDA
:100FC000FFFFFFFFFFFFFFFFFFFFFFFFFFFFFFFF31
:100FD000FFFFFFFFFFFFFFFF7F1F0F0F0707070741
:100FE0000707070F0F1F3FFFFFFFFFFFFFFFFFFF79
:100FF000FFFFFFFFFFFFFFFFFFFFFFFFFFFFFFFF01
:10100000FFFFFFFFFFFFFFFFFFFFFFFFFFFFFFFFF0
:10101000FFFFFFFFFFFFFFFFFFFFFFFFFFFFFFFFE0
:10102000FFFFFFFFFFFFFFFFFFFFFFFFFFFFFFFFD0
:10103000FFFFFFFFFFFFFFFFFFFFFFFFFFFFFFFFC0
:10104000FFFFFFFFFFFFFFFFFFFFFFFFFFFFFFFFB0
:10105000FFFFFFFFFFFFFFFFFFFFFFFFFFFFFFFFA0
:10106000FFFFFFFFFFFFFFFFFCF0E0E0C0C0C0C0DC
:10107000C0C0C0E0E0F0FCFFFFFFFFFFFFFFFFFF8D
:10108000FFFFFFFFFFFFFFFFFFFFFFFFFFFFFFFF70
:10109000FFFFFFFFFFFFFFFF0F0301010000000044
:1010A00000000001010307FFFFFFFFFFFFFFFFFF3D
:1010B000FFFFFFFFFFFFFFFFFFFFFFFFFFFFFFFF40
:1010C000FFFFFFFFFFFFFFFFFFFFFFFFFFFFFFFF30
:1010D000FFFFFFFFFFFFFFFFFFFFFFFFFFFFFFFF20
:1010E000FFFFFFFFFFFFFFFFFCE08080071F3F3F88
:1010F0001F070080E0FCFFFF3F070100E0F8FCFC59
:10110000F8E00101073FFFFFDF8F8F0F1F00000096
:10111000FFFFFFFFFFFFFFFFFCFCFCFCFC000000EB
:10112000FCFCFCFCFFFFFFFFDF8F0F1F1F3F1E00BB
:101130000080C1FFFFFFFFFFFCF8F0E0C0840C1C43
:101140003C7CFCFCFFFFFFFFFF1F1E1E3E3E1C0001
:101150000081C3FFFFFFFFFFFCFC7C7C7C7C3838F8
:10116000000103C7FFFFFFFFFFFFFFFCF8E0C10323
:1011700000000000FFFFFFFFFF8F0F0F0FCFCFCF4B
:1011800000000000CFCFCFFFFF0000003C3C3C3C04
:101190003C3C3EFFFFFFFFFFFCFCFCFCFCFC7878C6
:1011A00000010387FFFFFFFFF0E0C0800C1C1C3C28
:1011B0003C3C3EFFFFFFFFFF0701006078FCFC782E
:1011C00070000103FFFFFFFF3F3F3F3F3F3F3C30C9
:1011D0000001071FFFFFFFFFFFFFFCF0C000071F1C
:1011E0007FFFFFFFFFFFFFFFC3810000183C3C189B
:1011F000000081C3FFFFFFFFC3810000183C3C18C3
:10120000000081C3FFFFFFFFC08000001E1E1E1EE6
:101210000080C0E0FFFFFFFFFF78383838383830F3
:101220000103071FFFFFFFFFFFFFFFFFFFE7C3C330
:10123000C3C3E7FFFFFFFFFFFFFFFFFFFFE7C3C3DE
:10124000C3C3E7FFFFFFFFFFFFFFFFFFFFFFFEF846
:10125000C000031F7FFFFFFFFFFFFFFCF0800107BF
:101260001FFFFFFFFFFFFFFFFFFFFFFFFFFFFFFF6E
:10127000FFFFFFFFFFFFFFFFFFFFFFFFFFFFFFFF7E
:10128000FFFFFFFFFFFFFFFFFFFFFFFFFFFFFFFF6E
:10129000FFFFFFFFFFFFFFFFFFFFFFFFFFFFFFFF5E
:1012A000FFFFFFFFFFFFFFFFFFFFFFFFFFFFFFFF4E
:1012B000FFFFFFFFFFFFFFFFFFFFFFFFFFFFFFFF3E
:1012C000FFFFFFFFFFFEFEFDFDFDFDFDFDFDFDFE41
:1012D000FEFFFFFFFFFFFFFFFFFFFEFDFBF7EFEF4E
:1012E000DFDFBFBFBFBFBFBFBEDDDEEFEFF7FBFD80
:1012F000FEFFFFFFFFFFFFFFFFFFFFFFFFFFFFFFFF
:10130000FFFFFFFFFFFFFFFFFFFFFFFFFFFFFFFFED
:10131000FFFFFFFFFFFFFFFFFFFFFFFFFFFFFFFFDD
:10132000FFFFFFFFFFFFFFFFFFFFFFFFFFFFFFFFCD
:10133000FFFFFFFFFFFFFFFFFFFFFFFFFFFFFFFFBD
:10134000FFFFFFFFFFFFFFFFFFFFFFFFFFFFFFFFAD
:10135000FFFFFFFFFFFFFFFFFFFFFFFFFFFFFFFF9D
:10136000FFFFFFFFFFFFFFFFFFFFFFFFFFFFFFFF8D
:10137000FFFFFFFFFFFFFFFFFFFFFFFFFFFFFFFF7D
:10138000FFFFFFFFFFFFFFFFFFFFFFFFFFFFFFFF6D
:10139000FFFFFFFFFFFFFFFFFFFFFFFFFFFEFDFB64
:1013A000F7EFEFEFDFDFDFDFDFDFEFEFF7FBFDFE74
:1013B000FFFFFFFFFFFFFFFFFFFFFFFFFFFFFFFF3D
:1013C000FFFFFFFFFFFFFFFFFFFFFFFFFFFFFFFF2D
:1013D000FFFFFFFFFFFFFFFFFFFFFFFFFFFFFFFF1D
:1013E000FFFFFFFFFFFCFBF7EFDFBF7F7FFFFFFF8C
:1013F000FFFFFFFFFFFFFFFFFF7F7DBADDEEF4F38E
:10140000CF3FFFFFFFFFFFFFFFFFFFFFFFFFFFFFDC
:10141000FF7FFF7FFFFFFFFFFE3DCBF7EFEFEFDF2B
:10142000DFDFDFDFEDEECFB7BBBC7F7F7F7F7F7B72
:10143000B5BABDDFEFF7FBFCFFFFFFFFFFFFFFFFCC
:10144000FFFFFFFFFFFFFFFFFFFFFEFDFDFDFDFDB7
:10145000FDFEFFFFFFFFFFFEFEFEFEFEFEFFFFFFA5
:10146000FFFFFFFFFFFFFFFFFFFFFFFFFFFFFFFF8C
:10147000FFFFFFFFFFFFFFFFFFFFFFFFFFFFFFFC7F
:10148000FBF7EFDFBFBFBF7F7F7F7F7F77BBB5DE1F
:10149000EFF7FBFCFFFFFFFFFFFFFFFFFFFFFFFF7B
:1014A000FFFFFFFFFFFFFFFFFFFFFFFFFFFFFFFF4C
:1014B000FFFFFFFFFFFFFFFFFFFFFFFFFFFFFFFF3C
:1014C000FFFFF8E79F7FFFFFFFFFFFFFFFFFFFFF2B
:1014D000FFFFF7ABD7EFFF7F9FE7F8FFFFFFFFFFAF
:1014E000FFFFFFFFFFFFFFFFFFFFFFFFFFFFFFFF0C
:1014F000FEFDFBF7F7EFEFDFDFDFBFBFBFBFBFBF13
:10150000BFBFDDDAEDEFF7F7FBFDF8C73FFFFFFFE9
:10151000FFFFFFFFFFFFFFFFFFFFFFFFFFFFFFFFDB
:10152000FFFFFFFF7FC03FFFFFFFFFFFFFFFFFFF4A
:10153000FFFFFFFFFFFFFFFFFFFFFFFFFFF8E79F3A
:101540007FFFFFFFFFFFFFFFFFFFFFFF7FBF7FFF6B
:10155000FFFF7F9FE7F8FFFFFFFFFFFFFFFFFFFF9A
:101560007F8FF0FFFFFFFFFFFFFFFFFFFCF3EF9F09
:101570007F7FFFFFFFFFEFB7DBEF7F7F9FAF73FC46
:10158000FFFFFFAFD77F7FBFCFF3FCFFFFFFFFFF62
:10159000FFFFFFFFFFFFFFFFFFFFFFFFFFFFFFFF5B
:1015A000FFFFFFFFFCC33FFFFFFFFFFFFFFFFFFF4A
:1015B000FFFFFFFFFFFFFFFFFFFFFFFF3FC3FCFF3A
:1015C000FFFFFFFFFFFFFFFFFFFFFFFFFFFFFFFF2B
:1015D000FFFFFFFFFFFFFFFFFFFFFFFFFFFFFFFF1B
:1015E000FFFFFFFFFFFFFFFFFF807FFFFFFFFFFF0A
:1015F000FFFFFFFFFFFFFFFFFFFFFFFFFFFFFFFFFB
:10160000FFFF7F80FFFFFFFFFFFFFFFFFFFFFFFFE9
:10161000FFFFFFFFFEF1CFBF7FFFFFFFFFFFFFFFD9
:10162000FFFFFFFFFFFFFFFFFFFFFFFFFFFFFFFFCA
:10163000FFFF7FBFCFF1FEFFFFFFFFFFFFFFFFFFB9
:10164000FFFFFFFFFFFFFFFFFFFFFFFFFF07F8FFA9
:10165000FFFFFFFFFFFFFFFFFFFFFFFFFFFFFFFF9A
:10166000FFFFFFFF807FFFFFFFFFFFFFFFFFFFFF89
:10167000FFFFFFFFFFFFFFFFFFFFFFFFFF7F80FF79
:10168000FFFFFFFFFFFFFFFFFFFFFF00FFFFFFFF69
:10169000FFFFFF807FFFFFFFFFFFFFFFFFFFFFFF59
:1016A000FFFFFFFFFFFFFF3FC0FFFFFFFFFFFFFF49
:1016B000FFFFFF00FFFFFFFFFFFFFFFFFFFFFFFF39
:1016C000FFFFFFFFFFFFFFFFFFFFFFFF01FEFFFF29
:1016D000FFFFFFFFFFFFFFFFFFFFFFFFFFFFFFFF1A
:1016E000FFFFFFFFFFFE01FFFFFFFFFFFFFFFFFF09
:1016F000FFFFFFFFFFFFFFFFFFFFFFFFFFFFFFFFFA
:10170000FFFFFFFFFFFFFFFFFFFFFFFFFFFFFFFFE9
:10171000FF1FE1FEFFFFFFFFFFFFFFFFFFFFFFFFD8
:10172000FFFFFFFFFFFFFFFFFFFEE11FFFFFFFFFC8
:10173000FFFFFFFFFFFFFFFFFFFFFFFF01FEFFFFB8
:10174000FFFFFFFFFFFFFFFFFFFFFFFFFFFFFFFFA9
:10175000FFFFFFFFFFFFFFFFFFFFFFFFFFFE01FE99
:10176000FFFFFFFFFFFFFFFFFFFFFFFFFFFFFFFF89
:10177000FFFFFFFFFFFF7E9DE3F9FEFFFFFFFFFF7F
:10178000FFFFFFFFFFFFFFFFFFFFFFFF0FF0FFFF68
:10179000FFFFFFFFFFFFFFFFFFFFFFFFFFFFFFFF59
:1017A000FFFFFFFFFFF00FFFFFFFFFFFFFFFFFFF48
:1017B000FFF8877FFFFFFFFFFFFFFF1FE3FCFFFF37
:1017C000FFFFFFFFFFFFFFFFFFFFFFFFFFFFFCC269
:1017D0003FFFFFFFFEFEFDFDF3CF3FFFFFFFFFFFDB
:1017E000FFFFFFFFFFFFFFFFFFFFFFFFFFFFFFFF09
:1017F000FFFFFFFFFF1FE7F9FEFFFFFFFFFFFFFFF8
:10180000FFFFFFFFFFFFFFFFFFFFFEF9E71FFFFFE7
:10181000FFFFFFFFFFFFFFFFFFFFFFFFFFFFFFFFD8
:10182000FFFFFFFFFFFFFFFFFFFFFFFFFFFFFFFFC8
:10183000FFFFFFFFFFFFFFFFFFFFFF3FDFE7FBFDB6
:10184000FEFEFFFFFFFFFFFFFFFFFFFFFEFDFBE7C9
:101850009F7FFFFFFFFFFFFFFFFFFFFFFFFFFFFF78
:10186000FFFFFFFFFF3FCFF3FDFEFFFFFFFFFFFF87
:10187000FFFFFFFFFFFFFFFFFFFFFFFFFFFFFFFF78
:10188000FFFEFDF3CF3FFFFF7FBFDFEFEFF7F7FB7B
:10189000FBFBF9FAFBFBF7F7F7EFEFDFBF7F7FFF0B
:1018A000FFFFFF7FBFDFEFEFF7F7FBF8FBFBFBFB73
:1018B000FBF7F7EFEFDF3FCFF3FDFEFFFFFFFFFF8B
:1018C000FFFFFFFFFFFFFFFFFEF8F7CF3FFFFFFF28
:1018D000FEFEFEFDFBF7EF9F7FFFFFFFFFFFFFFF19
:1018E000FFFFFFFFFFFF3FDFEFEFF7F7FBFBF8FB2B
:1018F000F7F7EFEF9F7FFFFF7F7F007FFFFFFFFF87
:10190000FFFFFFFFFFFFFFFFFFFFFFFFFFFFFFFFE7
:10191000FFFFFFFFFFFFFFFFFFFFFFFFFFFFFFFFD7
:10192000FF7FBFDFEFEFEFF7F0F7F7F7EFEFEFDF56
:10193000BF7FFFFFFFFFFFFFFFFFFFFFFFFFFFFF77
:10194000FFFFFFFFFFFFFFFFFFFFFFFFFFFFFFFFA7
:10195000FFFFFFFFFFFFFFFFFFFFFFFFFFFFFFFF97
:10196000FFFFFFFFFFFFFFFFFFFF7F7FBCA39FBFC6
:10197000BF7F7F7FFFFFFFFFFFFFFFFFFFFFFFFF37
:10198000FFFFFFFFFFFFFFFFFFFFFFFFFFFFFFFF67
:10199000FFFF7FBFBFDFDFEFEFEFF7F7F0F7F7F7FE
:1019A000F7EFEFEFDFDFBFBF7FFFFFFFFFFFFFFFBF
:1019B000FFFFFFFFFFFFFFFFFFFFFF1FE1FEFFFF36
:1019C000FFFFFFFFFFFFFFFFFFFFFFFFFFFFFFFF27
:1019D000FFFFFFFF3FC7F9FEFFFFFFFFFFFFFFFF16
:1019E000FFFFFF7F7FBFBFDFC0DFDFDFBFBF7F7FC6
:1019F000FFFF7F7F007F7F7FFFFFFFFFFFFFFFFF76
:101A0000FFFFFFFFFFFFFFFFFFFFFFFFFFFFFFFFE6
:101A1000FFFFFFFFFFFFFF1FE0FFFFFFFFFFFFFFD5
:101A2000FFFF00FFFFFFFFFFFFFFFFFFFFFFFFFFC5
:101A3000FFFFFFFFFFFFFFFFFFFFFFFFFFFFFFFFB6
:101A4000FFFFFFFFFFFFFFFFFFFFFFFFFFFFFFFFA6
:101A500000FFFFFFFFFFFFFFFFFFFFFFFFFFFFFF95
:101A6000FFFFFFFFFFFFFFFFFFFFFFFFFFFFFFFF86
:101A7000FFFFFFFFFFFFFFFFFFFFFFFFFFFFFFFF76
:101A8000FFFFFFFFFFFFFFFFFFFFFFFFFFFFFFFF66
:101A9000FFFFFFFF07F8FFFFFFFFFFFFFFFFFFFF55
:101AA000FFFFFFFFFFFFFFFFFFFFFFFFFFFFFFFF46
:101AB000FFFFFFFFFFFFFFFFFFFFFFFFFFFFFFFF36
:101AC000FFFFFFFF00FFFFFFFFFFFFFFFFFFFFFF25
:101AD000FFFFFFFFFFFFFFFFFFFFFFFFFFFFFFFF16
:101AE000FFFFFFFFFF0FF0FFFFFFFFFFFFFFFFFF05
:101AF000FFFFFFFFFFFFFFFFFFFFFFFFFFFFFF3FB6
:101B0000C7F8FFFFFFFFFFFFFFFFFFFFFFFFFFC063
:101B10003FFFFFFFFFFFFFFFFFFFFFFF00FFFFFF94
:101B2000FFFFFFFFFFFFFFFFFFFFFFFFFFFFFFFFC5
:101B3000FFFFFFFFFFFFFFFFFFFFFFFFFFFFFFFFB5
:101B400000FFFFFFFFFFFFFFFFFF7F80FFFFFFFFA3
:101B5000FFFFFFFFFFFFFFFFFFFFFFFFFFFFFFFF95
:101B6000FFFFFFFFFFFFFFFFFFFFFFFFFFFFFFFF85
:101B7000FFFFFFFFFFFFFFFF3FC0FFFFFFFFFFFF74
:101B8000FFFFFFFFFFFFFFFFFFFFFFFFFFFFFFFF65
:101B9000FFFFFFFFFFFFFFFFFFFFFFFFFFFFFFFF55
:101BA000FFFFFFFFFFFFFFFFFFFFFFFFFFFFFFFF45
:101BB000FFFFFFFFFFFFFFFFFFFFFFFFFF07F8FF34
:101BC000FFFFFFFFFFFFFFFFFFFFFFFFFFFFFFFF25
:101BD000FFFFFFFFFFFFFFFFFFFFFFFFFFFFFFFF15
:101BE000FFFFFFFFFFFFFFFFFFFFFFFF0FF0FFFF04
:101BF000FFFFFFFFFFFFFFFFFFFFFFFFFFFFFFFFF5
:101C0000FFFFFFFFFFFFFFFFFFFFFFFFFFFF7F80E3
:101C1000FFFFFFFFFFFFFFFFFFFFFFFFFFFFFFFFD4
:101C2000FFFFFFFFFFFFFFFFFFFF1FE1FEFFFFFFC3
:101C3000FFFFFFFFFFFFFF03FCFFFFFFFFFFFFFFB3
:101C4000FFFFFFFF0FF0FFFFFFFFFFFFFFFFFFFFA3
:101C5000FFFFFFFFFFFFFFFFFFFFFFFFFFFFFFFF94
:101C6000FFFFFFFFFFFFFFFF00FFFFFFFFFFFFFF83
:101C7000FFFFFFFF07FFFFFFFFFFFFFFFFFFFFFF6C
:101C8000FFFFFFFFFFFFFFFFFFFFFFFFFFFFFFFF64
:101C9000FFFFFFFFFFFFFFFFFFFFFFFFFFFFFFFF54
:101CA000FF07F8FFFFFFFFFFFFFFFFFFFFFFFFFF43
:101CB000FFFFFFFFFFFFFFFFFFFFFFFFFFFFFFFF34
:101CC000FFFFFFFFFFFFFFFFFFFFFFFFFFFFFFFF24
:101CD000FFFFFFFFFFFFFFFFFFFFFFFFFFFFFFFF14
:101CE000FFFFFFFFFFFF1FE0FFFFFFFFFFFFFFFF03
:101CF000FFFFFFFFFFFFFFFFFFFFFFFFFFFFFFFFF4
:101D0000FFFFFFFFFFFFFFFFFFFFFFFFFFFFFFFFE3
:101D1000FFFFFFFFFF1FE3FFFFFFFFFFFFFFFFFFCF
:101D2000FFFFFFFFFFFFFFFFFFFFFFFFFFFFFFFFC3
:101D3000FFFFFFFFFFFFFFFF1FFFFFFFFFFFFFFF93
:101D4000FFFFFFFFFFFFFFFFFFFFFFFFFFFFFFFFA3
:101D5000FFFFFFFF07F8FFFFFFFFFFFFFFFFFFFF92
:101D600000FFFFFFFFFFFFFFFFFFFFFFFF3FFFFF42
:101D7000FFFFFFFFFFFFFFFFFFFFFFFFFFFFFFFF73
:101D8000FFFFFFFFFFFFFFFFFFFFFFFFFFFFFFFF63
:101D90001FFFFFFFFFFFFFFFFFFFFFFFFFFFFFFF33
:101DA000FFFFFFFFFFFFFFFFFFFFFFFFFFFFFFFF43
:101DB000FFFFFFFFFFFFFFFFFFFFFFFFFFFFFFFF33
:101DC000FFFFFFFFFFFFFFFFFFFF3FFFFFFFFFFFE3
:101DD000FFFFFFFFFFFFFFFFFFFFFFFFFFFFFFFF13
:101DE000FFFFFFFFFFFFFFFFFFFFFFFFFFFFFFFF03
:101DF000FFFFFFFFFFFFFFFFFFFFFFFFFFFFFFFFF3
:101E0000FFFFFFFFFFFFFFFFFFFFFFFFFFFFFF7F62
:101E1000BFFFFFFFFFFFFFFFFFFFFFFFFFFFFFFF12
:101E2000FFFFFFFFFFFFFFFFFFFFFFFFFFFFFFFFC2
:101E3000FFFFFFFFFFFFFFFFFFFFFFFFFFFFFFFFB2
:101E4000FFFFFFFFFFFFFFFFFFFFFFFFFFFFFFFFA2
:101E5000FFFFFFFFFFFFFFFFFFFFFFFFFFFFFFFF92
:10254000FFFFFFFFFFFFFFFFFEFEFFFEFEFEFEFEA2
:10255000FFFFFFFFFFFFFFFFFFFFFFFFFFFFFFFF8B
:10256000FFFFFFFFFFFFFFFFFFFFFFFFFFFFFFFF7B
:10257000FFFFFFFFFFFFFFFFFFFFFFFFFFFFFFFF6B
:10258000FFFFFFFFFFFFFFFFFFFFFFFFFFFFFFFF5B
:10259000FFFFFFFFFFFFFFFFFFFFFFFFFFFFFFFE4C
:1025A000FEFEFEFCFCFCFCFCFCFCFEFEFFFFFFFF55
:1025B000FFFFFFFFFFFFFFFFFFFFFFFFFFFFFFFF2B
:1025C000FFFFFFFFFFFFFFFFFFFFFFFFFFFFFFFF1B
:1025D000FFFFFFFFFFFFFFFFFFFFFFFFFFFFFFFF0B
:1025E000FFFFFFFFFFFFFFFFFFFFFFFFFFFFFFFFFB
:1025F000FFFFFFFFFFFFFFFFFFFFFFFFFFFFFFFFEB
:10260000FFFFFFFFFFFFFFFFFFFFFFFFFFFFFFFFDA
:10261000FFFFFFFFFFFFFFFFFFFFFFFFFFFFFFFFCA
:10262000FFFFFFFFFFFFFFFFFFFFFFFFFFFFFFFFBA
:10263000FFFFFFFFFFFFFFFFFFFFFFFFFFFFFFFFAA
:10264000FFFFFFFFFFFFFFFFFFFFFFFFFFFFFFFF9A
:10265000FFFFFFFFFFFFFFFFFFFFFFFFFFFFFFFF8A
:10266000FFFFFFFFFFFFFEF8F8F1E3C7CF9F1F3F1B
:102670003F7F3F3F7F7F7F3F3F1F1FC7E7E3F1F86B
:10268000FCFEFFFFFFFFFFFFFFFFFFFFFFFEFEFC63
:10269000FCF8F1F3E3E7E7E7E3E7E7E3F3F3F0F868
:1026A000F0F0E3E7E7C7CFCFCF8FCFCFC7E7E3F3B4
:1026B000F3F9FCFCFCFEFFFFFFFFFFFFFFFFFFFF46
:1026C000FCF0E1E3C78F3F3F7F7F7F7FFFFF7FFF0E
:1026D000FF7F7F3F1F8F87E7F3F1F8FCFFFFFFFFCE
:1026E000FFFFFFFFFFFFFFFFFFFFFFFFFFFFFFFFFA
:1026F000FFFFFFFFFFFFFFFFFFFFFFFFFFFFFFFFEA
:10270000FFFFFFFFFFFFFFFFFFFFFFFFFFFFFFFFD9
:10271000FFFFFFFFFFFFFFFFFFFFFFFFFFFFFFFFC9
:10272000FFFFFFFFFFFFFFFFFFFFFFFFFFFFFFFFB9
:10273000FFFFFFFFFFFFFFFFFFFFFFFFFFFFFFFFA9
:10274000FFFFFFFFFFFFFFFFFFFFFFFFFFFFFFFF99
:10275000FFFFFFFFFFFFFFFFFFFFFFFFFFFFFFFF89
:10276000FFFFFFFFFFFFFFFFFFFFFFFFFFFFFFFF79
:10277000FFFFFFFFFFFFFFFFFFFFFFFFFFFFFFFF69
:10278000FFFFFFFFFFFFFFFFFFFFFFFEF8C0070F88
:102790007FFFFFFFFFFFFFFFFFFFFFFFFFFFFFFFC9
:1027A000FFFFFFFFFFFFFFFF3F1783C0FCFFFFFCA2
:1027B000F8F1E3CF0F1F3F7FFFFFFFFFFFFFFFFF9A
:1027C000FFFFF8E0C38F1F3FFF3F0F07C1F0FCFF83
:1027D000FFFFFFFFFFFFFFFFFFFFFFFF3F1F87C35D
:1027E000F1F8FEFFF9E0860F3F7FFFFFFFFFFFFFDD
:1027F000FFFFFFFFFFFFFFFFFFFFFFFFFFFFFFFFE9
:10280000FFFF3F0381FCFCFFFFFFFFFFFFFFFFFF18
:10281000FFFFFFFFFFFFFFFFFFFFFFFFFFFFFFFFC8
:10282000FFFFFFFFFFFFFFFFFFFFFFFFFFFFFFFFB8
:10283000FFFFFFFFFFFFFFFFFFFFFFFFFFFFFFFFA8
:10284000FFFFFFFFFFFFFFFFFFFFFFFFFFFFFFFF98
:10285000FFFFFFFFFFFFFFFFFFFFFFFFFFFFFFFF88
:10286000FFFFFFFFFFFFFFFFFFFFFFFFFFFFFFFF78
:10287000FFFFFFFFFFFFFFFFFFFFFFFFFFFFFFFF68
:10288000FFFFFFFFFFFFFFFFFFFFFFFFFFFFFFFF58
:10289000FFFFFFFFFFFFFFFFFFFFFFFFFFFFFFFF48
:1028A000FFFFFFFFFFFFFFFFFFFFFFFFFFFFFFFF38
:1028B000FFFFFE0000FFFFFFFFFFFFFFFFFFFFFF27
:1028C000FFFFFFFFFFFFFFFFFFFFFFFFFFFFFFFF18
:1028D000FFFFFF7F0F83830F3FFFFFFFFFFFFFFF20
:1028E000FFFFFFFFFFFFFFFFFFF800037FFFFFFF7A
:1028F000FFFFFFFFFF390084FFFFFFFFFFFFFFFF28
:10290000FFFFFFFFFFFFFFFFFF7F1F07073FFFFFE7
:10291000FFFFFFFFFFFFFFFFFFFFFFFFFFFFFFFFC7
:10292000FFFFFFFFFFFFFFFFFFFFFFFFFF0000FEB6
:10293000FFFFFFFFFFFFFFFFFFFFFFFFFFFFFFFFA7
:10294000FFFFFFFFFFFFFFFFFFFFFFFFFFFFFFFF97
:10295000FFFFFFFFFFFFFFFFFFFFFFFFFFFFFFFF87
:10296000FFFFFFFFFFFFFFFFFFFFFFFFFFFFFFFF77
:10297000FFFFFFFFFFFFFFFFFFFFFFFFFFFFFFFF67
:10298000FFFFFFFFFFFFFFFFFFFFFFFFFFFFFFFF57
:10299000FFFFFFFFFFFFFFFFFFFFFFFFFFFFFFFF47
:1029A000FFFFFFFFFFFFFFFFFFFFFFFFFFFFFFFF37
:1029B000FFFFFFFFFFFFFFFFFFFFFFFFFFFFFFFF27
:1029C000FFFFFFFFFFFFFFFFFFFFFFFFFFFFFFFF17
:1029D000FFFFFFFFFFFFFFFFFFFFFF0300FCFFFF05
:1029E000FFFFFFFFFFFFFFFFFFFFFFFFFFFFFFFFF7
:1029F000FFFFFFFFFFFFFFFFFFFFFFFFFFFFFFFFE7
:102A0000FFFFFFFFFFFFFFFFFFFFFFFFFFFFFFFFD6
:102A1000FF3F03C0F8FFFFFFFFFFFFFFFEFE0001C7
:102A2000FFFFFFFFFFFFFFFFFFFFFFFFFFFFFFFFB6
:102A3000FFFFFFFFFFFFFFFFFFFFFFFFFFFFFFFFA6
:102A4000FFFFFFFFFFFFFFFFFFFFFFFFFFFFFFFF96
:102A5000FFFFFFFEF00007FFFFFFFFFFFFFFFFFF8D
:102A6000FFFFFFFFFFFFFFFFFFFFFFFFFFFFFFFF76
:102A7000FFFFFFFFFFFFFFFFFFFFFFFFFFFFFFFF66
:102A8000FFFFFFFFFFFFFFFFFFFFFFFFFFFFFFFF56
:102A9000FFFFFFFFFFFFFFFFFFFFFFFFFFFFFFFF46
:102AA000FFFFFFFFFFFFFFFFFFFFFFFFFFFFFFFF36
:102AB000FFFFFFFFFFFFFFFFFFFFFFFFFFFFFFFF26
:102AC000FFFFFFFFFFFFFFFFFFFFFFFFFFFFFFFF16
:102AD000FFFFFFFFFFFFFFFFFFFFFFFFFFFFFFFF06
:102AE000FFFFFFFFFFFFFFFFFFFFFFFFFFFFFFFFF6
:102AF000FFFFFFFFFFFFFFFFFFFFFFFFFFFFFFFFE6
:102B0000FFFFFF7F0F81F0FCFFFFFFFFFFFFFFFFD5
:102B1000FFFFFFFFFFFFFFFFFFFFFFFFFFFFFFFFC5
:102B2000FFFFFFFFFFFFFFFFFFFFFFFFFFFFFFFFB5
:102B3000FFFFFFFFFFFFFFFFFFFFFF1F0FE1E0FCB5
:102B4000FFFFFEF00007FFFFFFFFFFFFFFFFFFFF9C
:102B5000FFFFFFFFFFFFFFFFFFFFFFFFFFFFFFFF85
:102B6000FFFFFFFFFFFFFFFFFFFFFFFFFFFFFFFF75
:102B7000FFFFFFFFFFFFFFFFFFFFF840079FFFFF83
:102B8000FFFFFFFFFFFFFFFFFFFFFFFFFFFFFFFF55
:102B9000FFFFFFFFFFFFFFFFFFFFFFFFFFFFFFFF45
:102BA000FFFFFFFFFFFFFFFFFFFFFFFFFFFFFFFF35
:102BB000FFFFFFFFFFFFFFFFFFFFFFFFFFFFFFFF25
:102BC000FFFFFFFFFFFFFFFFFFFFFFFFFFFFFFFF15
:102BD000FFFFFFFFFFFFFFFFFFFFFFFFFFFFFFFF05
:102BE000FFFFFFFFFFFFFFFFFFFFFFFFFFFFFFFFF5
:102BF000FFFFFFFFFFFFFFFFFFFFFFFFFFFFFFFFE5
:102C0000FFFFFFFFFFFFFFFFFFFFFFFFFFFFFFFFD4
:102C1000FFFFFFFFFFFFFFFFFFFFFFFFFFFFFFFFC4
:102C2000FFFFFFFFFFFFFFFFFFFFFFFFFFFF0F03A0
:102C3000A1F8FCFFFFFFFFFFFFFFFFFFFFFFFFFF0C
:102C4000FFFFFFFFFFFFFFFFFFFFFFFFFFFFFFFF94
:102C5000FFFFFFFFFFFFFFFFFFFFFFFFFFFFFFFF84
:102C6000FFFFFFFFFFFF3E0080811078FEFFFFFFA8
:102C7000FFFFFFFFFFFFFFFFFFFFFFFFFFFFFFFF64
:102C8000FFFFFFFFFFFFFFFFFFFFFFFFFFFFFFFF54
:102C9000FFFFFFFFFFFFFFFFFFFFFFFFFFFFFEF84C
:102CA000D00307FFFFFFFFFFFFFFFFFFFFFFFFFF57
:102CB000FFFFFFFFFFFFFFFFFFFFFFFFFFFFFFFF24
:102CC000FFFFFFFFFFFFFFFFFFFFFFFFFFFFFFFF14
:102CD000FFFFFFFFFFFFFFFFFFFFFFFFFFFFFFFF04
:102CE000FFFFFFFFFFFFFFFFFFFFFFFFFFFFFFFFF4
:102CF000FFFFFFFFFFFFFFFFFFFFFFFFFFFFFFFFE4
:102D0000FFFFFFFFFFFFFFFFFFFFFFFFFFFFFFFFD3
:102D1000FFFFFFFFFFFFFFFFFFFFFFFFFFFFFFFFC3
:102D2000FFFFFFFFFFFFFFFFFFFFFFFFFFFFFFFFB3
:102D3000FFFFFFFFFFFFFFFFFFFFFFFFFFFFFFFFA3
:102D4000FFFFFFFFFFFFFFFFFFFFFFFFFFFFFFFF93
:102D5000FFFFFFFFFFFFFFFFFF7F3F0783F8FCFF41
:102D6000FFFFFFFFFFFFFFFFFFFFFFFFFFFFFFFF73
:102D7000FFFFFFFFFFFFFFFFFFFFFFFFFFFFFFFF63
:102D8000FFFFFFFFFFFFFFFFFCF8E1E3CF1F1F3F47
:102D9000FFFFFF3F1F87C3F3F8FCFEFFFFFFFFFFAE
:102DA000FFFFFFFFFFFFFFFFFFFFFFFFFFFFFFFF33
:102DB000FFFFFFFFFFFFFFFFFFFFFFFFFFFFFFFF23
:102DC000FFFFFCE0C1071F7FFFFFFFFFFFFFFFFFCB
:102DD000FFFFFFFFFFFFFFFFFFFFFFFFFFFFFFFF03
:102DE000FFFFFFFFFFFFFFFFFFFFFFFFFFFFFFFFF3
:102DF000FFFFFFFFFFFFFFFFFFFFFFFFFFFFFFFFE3
:102E0000FFFFFFFFFFFFFFFFFFFFFFFFFFFFFFFFD2
:102E1000FFFFFFFFFFFFFFFFFFFFFFFFFFFFFFFFC2
:102E2000FFFFFFFFFFFFFFFFFFFFFFFFFFFFFFFFB2
:102E3000FFFFFFFFFFFFFFFFFFFFFFFFFFFFFFFFA2
:102E4000FFFFFFFFFFFFFFFFFFFFFFFFFFFFFFFF92
:102E5000FFFFFFFFFFFFFFFFFFFFFFFFFFFFFFFF82
:102E6000FFFFFFFFFFFFFFFFFFFFFFFFFFFFFFFF72
:102E7000FFFFFFFFFFFFFFFFFFFFFFFFFFFFFFFF62
:102E8000FFFFFFFFFF7F3F1F8FC7E1F0FCFEFFFF4B
:102E9000FFFFFFFFFFFFFFFFFFFFFFFFFFFFFFFF42
:102EA000FFFFFFFFFFFFFFFEFCF8F9F9F3C7871FE5
:102EB0003F7FFFFFFFFFFFFFFFFFFFFFFFFFFFFF62
:102EC000FF7F3F0F0FC7E3F1F9FCFEFEFFFFFFFF9F
:102ED000FFFFFFFFFFFFFFFFFFFFFFFFFFFFFFFF02
:102EE000FFFFFEFCF8F0E1C78F1F7FFFFFFFFFFF32
:102EF000FFFFFFFFFFFFFFFFFFFFFFFFFFFFFFFFE2
:102F0000FFFFFFFFFFFFFFFFFFFFFFFFFFFFFFFFD1
:102F1000FFFFFFFFFFFFFFFFFFFFFFFFFFFFFFFFC1
:102F2000FFFFFFFFFFFFFFFFFFFFFFFFFFFFFFFFB1
:102F3000FFFFFFFFFFFFFFFFFFFFFFFFFFFFFFFFA1
:102F4000FFFFFFFFFFFFFFFFFFFFFFFFFFFFFFFF91
:102F5000FFFFFFFFFFFFFFFFFFFFFFFFFFFFFFFF81
:102F6000FFFFFFFFFFFFFFFFFFFFFFFFFFFFFFFF71
:102F7000FFFFFFFFFFFFFFFFFFFFFFFFFFFFFFFF61
:102F8000FFFFFFFFFFFFFFFFFFFFFFFFFFFFFFFF51
:102F9000FFFFFFFFFFFFFFFFFFFFFFFFFFFFFFFF41
:102FA000FFFFFFFFFFFFFFFFFFFFFFFFFFFFFFFF31
:102FB000FFFFFFFF7F7F1F8FC7E3F3F0F8FCFCFFED
:102FC000FFFFFEFEFEFCF9F9F1F1E3C7CF8F1F3FD3
:102FD0007FFFFFFFFFFFFFFFFFFFFFFFFFFFFFFF81
:102FE000FFFFFFFFFFFFFFFFFFFFFFFFFFFFFFFFF1
:102FF000FFFF7F3F1F9F1F8FC7E3F3F1F8FCFCFE2D
:10300000FCFCFCF8F9F1E3E7C71F3F7FFFFFFFFF80
:10301000FFFFFFFFFFFFFFFFFFFFFFFFFFFFFFFFC0
:10302000FFFFFFFFFFFFFFFFFFFFFFFFFFFFFFFFB0
:10303000FFFFFFFFFFFFFFFFFFFFFFFFFFFFFFFFA0
:10304000FFFFFFFFFFFFFFFFFFFFFFFFFFFFFFFF90
:10305000FFFFFFFFFFFFFFFFFFFFFFFFFFFFFFFF80
:10306000FFFFFFFFFFFFFFFFFFFFFFFFFFFFFFFF70
:10307000FFFFFFFFFFFFFFFFFFFFFFFFFFFFFFFF60
:10308000FFFFFFFFFFFFFFFFFFFFFFFFFFFFFFFF50
:10309000FFFFFFFFFFFFFFFFFFFFFFFFFFFFFFFF40
:1030A000FFFFFFFFFFFFFFFFFFFFFFFFFFFFFFFF30
:1030B000FFFFFFFFFFFFFFFFFFFFFFFFFFFFFFFF20
:1030C000FFFFFFFFFFFFFFFFFFFFFFFFFFFFFFFF10
:1030D000FFFFFFFFFFFFFFFFFFFFFFFFFFFFFFFF00
:1030E000FFFFFFFFFF7F7F1F1F3F3F7F7FFFFFFF30
:1030F000FFFFFFFFFFFFFFFFFFFFFFFFFFFFFFFFE0
:10310000FFFFFFFFFFFFFFFFFFFFFFFFFFFFFFFFCF
:10311000FFFFFFFFFFFFFFFFFFFFFFFFFFFFFFFFBF
:10312000FFFFFFFFFFFFFF7FFF7F7FFFFFFFFFFF2F
:10313000FFFFFFFFFFFFFFFFFFFFFFFFFFFFFFFF9F
:10314000FFFFFFFFFFFFFFFFFFFFFFFFFFFFFFFF8F
:10315000FFFFFFFFFFFFFFFFFFFFFFFFFFFFFFFF7F
:10316000FFFFFFFFFFFFFFFFFFFFFFFFFFFFFFFF6F
:10376000FFFFFFFFFFFFFFFF11241FBECFEFD8E0D9
:10377000DEBFCDBF11E0A0E0B1E0E6EEFBE702C0A6
:1037800005900D92A637B107D9F711E0A6E7B1E091
:1037900001C01D92A937B107E1F70E94633A0C946A
:1037A000F13D0C94000090E002C0915031F0809106
:1037B000BC0087FFFACF81E0089580E00895282FAC
:1037C00084EA8093BC0090E002C09150F1F08091B7
:1037D000BC0087FFFACF8091B90080FD16C020930E
:1037E000BB0084E88093BC0090E002C0915069F077
:1037F0008091BC0087FFFACF8091B90080FF07C09D
:103800008091B90080958170089580E0089581E0ED
:1038100008958093BB0084E88093BC0090E002C0D0
:10382000915079F08091BC0087FFFACF8091B90068
:1038300090E0887F883211F0892F089591E0892FD8
:10384000089590E0892F0895FB018295880F880FD5
:10385000807C84688093BC0090E002C0915049F065
:103860008091BC0087FFFACF8091BB00808381E00C
:10387000089580E0089584E98093BC0081E0089574
:1038800084EA8093BC0090E002C09150F9F08091EE
:10389000BC0087FFFACF8091B90080FD17C081ED91
:1038A0008093BB0084E88093BC0090E002C09150FC
:1038B00069F08091BC0087FFFACF8091B90080FF4A
:1038C00007C08091B90080958170089580E00895C7
:1038D00081E0089584EA8093BC0090E002C091509A
:1038E000F9F08091BC0087FFFACF8091B90080FD8C
:1038F00017C080ED8093BB0084E88093BC0090E00B
:1039000002C0915069F08091BC0087FFFACF80918E
:10391000B90080FF07C08091B9008095817008953B
:1039200080E0089581E00895DC0184EA8093BC0082
:1039300020E003C0215009F457C08091BC0087FFEC
:10394000F9CF8091B90080FD4FC080ED8093BB001E
:1039500084E88093BC0020E003C0215009F444C0F7
:103960008091BC0087FFF9CF8091B90080FD38C0FD
:103970006093BB0084E88093BC0020E002C021502B
:1039800099F18091BC0087FFFACF8091B900887FC0
:10399000883251F5BA0141155105E9F040E050E097
:1039A00034E8FD01E40FF51F80818093BB00309364
:1039B000BC0020E002C02150B9F08091BC0087FF1C
:1039C000FACF8091B900887F883271F44F5F5F4FE2
:1039D0004617570730F384E98093BC0081E00895CF
:1039E0008091B90080FFC4CF80E00895CF93DF932A
:1039F000EC0184EA8093BC0020E003C0215009F46C
:103A00004AC08091BC0087FFF9CF8091B90080FD4A
:103A100042C080ED8093BB0084E88093BC0020E02E
:103A200002C02150C1F18091BC0087FFFACF809184
:103A3000B90080FD2CC06093BB0084E88093BC007B
:103A400020E002C0215039F18091BC0087FFFACFFD
:103A50008091B900887F8832F1F484E98093BC00BA
:103A600084EA8093BC0020E002C02150A1F0809144
:103A7000BC0087FFFACF8091B90080FD0CC081EDBA
:103A80008093BB0084E88093BC0020E00AC0809152
:103A9000B90080FFD0CF80E0DF91CF910895215011
:103AA000D1F38091BC0087FFFACF8091B90080FFED
:103AB00004C08091B90080FDEECF4115510559F148
:103AC000DA01119760E070E020E030E0A617B70758
:103AD00011F021E030E000243695279507943695C3
:103AE00027950794322F202D822F84688093BC0065
:103AF00020E002C0215079F28091BC0087FFFACF0C
:103B00008091BB00FE01E60FF71F80836F5F7F4F40
:103B100064177507C8F284E98093BC0081E0BCCFCC
:103B20000F931F93DF93CF93CDB7DEB727970FB6D1
:103B3000F894DEBF0FBECDBF8C01CE01019660E0D0
:103B400070E047E050E00E94F61C8823D9F199818B
:103B50008A81282F2795222727959F77922BF80176
:103B600090839B81292F2295220F220F207C8F7713
:103B70008695822B81833C813770330F330F83818D
:103B8000807E2D81422F4295407F9F73969596951A
:103B9000942B92832F7322952F70832B822B9E81DF
:103BA000292F2295220F220F207C8F73822B838353
:103BB0009F71969596958481887F892B84838F81C8
:103BC000858381E027960FB6F894DEBF0FBECDBF88
:103BD000CF91DF911F910F910895DF93CF93CDB7D0
:103BE000DEB727970FB6F894DEBF0FBECDBFFC013E
:103BF0009081892F8F778983991F9927991F218118
:103C0000822F8F73880F892B8A832295269526957C
:103C100023703281832F8F70880F880F822B8B83C4
:103C20009381892F8695869587708C8332953F7016
:103C3000892F83708295807F832B8D8392959695B3
:103C40009695937084818770880F880F892B8E8357
:103C500085818F83CE01019660E070E047E050E0FF
:103C60000E94941C811181E027960FB6F894DEBF64
:103C70000FBECDBFCF91DF9108950F931F93DF93B8
:103C8000CF930F92CDB7DEB78E010F5F1F4FC801E4
:103C900060E070E041E050E00E94F61C882331F4BF
:103CA0000F90CF91DF911F910F91089589818078B6
:103CB0008983C80160E070E041E050E00E94941CFC
:103CC000882371F381E00F90CF91DF911F910F91C5
:103CD00008950F931F93DF93CF930F92CDB7DEB765
:103CE0008E010F5F1F4FC80160E070E041E050E0BF
:103CF0000E94F61C882331F40F90CF91DF911F9121
:103D00000F91089589818F778983C80160E070E001
:103D100041E050E00E94941C882371F381E00F90F1
:103D2000CF91DF911F910F91089584B18C6284B976
:103D300081E58CBD08958EBD0DB407FEFDCF0895BD
:103D400043980E949B1E439A0895409843980E946E
:103D50009B1E439A0895409A43980E949B1E439A43
:103D600008954098439880E20E949B1E439A409891
:103D700043988FEF0E949B1E439A08950F931F93C1
:103D8000CF93DF938C014098439882E30E949B1E5F
:103D9000439AC0E0D0E0409A4398F801EC0FFD1F31
:103DA00080810E949B1E439A2196CE31D10599F7BE
:103DB000DF91CF911F910F9108954098439884E42B
:103DC0000E949B1E439A409A439880E00E949B1E4B
:103DD000439A409A43988FE00E949B1E439A4098D2
:103DE000439885E40E949B1E439A409A439880E042
:103DF0000E949B1E439A409A439880E00E949B1E1B
:103E0000439A409A439887E20E949B1E439A409AA5
:103E1000439881E00E949B1E439A409843988EE409
:103E20000E949B1E439A409A439880E00E949B1EEA
:103E3000439A409843988FE40E949B1E439A409A6D
:103E4000439880E00E949B1E439A409A439880E0EA
:103E50000E949B1E439A4098439882E20E949B1EB8
:103E6000439A409A439884EC0E949B1E439A409840
:103E7000439884E20E949B1E439A08952F923F929A
:103E80004F925F926F927F928F929F92AF92BF926A
:103E9000CF92DF92EF92FF920F931F93DF93CF9316
:103EA000CDB7DEB7A3970FB6F894DEBF0FBECDBF78
:103EB0008C017A8B698B0E94DD1EDE011796EDE482
:103EC000F1E08AE001900D928150E1F7DE01119658
:103ED000E0E0F1E086E001900D928150E1F7F80119
:103EE0004181242F229526952695237082818F70FB
:103EF000880F880F822B90E09C013595279535958A
:103F000027953595279535952795205D29838F70C1
:103F10009070805D8A838081881F8827881F4F73F7
:103F2000440F482B50E0CA01959587959595879544
:103F30009595879595958795805D8C834F7050708A
:103F4000405D4D8398E2692E91E0792E2224188EEF
:103F5000198E1A8E1B8E1C8E1D8E1E8E822C988C96
:103F600087E2C82E8EEFD82EC60CD71C5301EE2444
:103F7000FF241BC0E989FA89EA0DFB1DE491409AF0
:103F800043988E2F0E949B1E439A0894E11CF11CBB
:103F900088E291E0A80EB91EE0E1F0E0CE0EDF1E4F
:103FA000F0E1EF16F10409F495C18CE0E816F10494
:103FB00008F39EE0E916F104E8F6AF81B8858A16A9
:103FC0009B06E0F18D0120E030E040E050E060E051
:103FD00070E0EA2FE05FE8A391E0EA1708F090E0D4
:103FE000910F9C8B91E0FC89F11708F090E0492E2D
:103FF000420E91E0421608F090E0392E330E91E027
:10400000331608F090E0592E540E91E0541608F043
:1040100090E0F92FF50F91E0F51708F090E0E92F07
:10402000E60F91E0E61708F090E0892F870F9E8D4C
:10403000981708F46DC2891709F441C2A985BA8599
:104040008A169B06E0F18D0120E030E040E050E070
:1040500060E070E08A2F805F89A391E08A1708F002
:1040600090E0910F9D8B91E0ED89E11708F090E0D1
:10407000492E420E91E0421608F090E0392E330EA0
:1040800091E0331608F090E0592E540E91E054164A
:1040900008F090E0F92FF50F91E0F51708F090E0A7
:1040A000E92FE60F91E0E61708F090E0892F870FDF
:1040B0009E8D981708F400C2891709F4D4C1AB8506
:1040C000BC858A169B06E0F18D0120E030E040E0DF
:1040D00050E060E070E08A2F805F8AA391E08A1749
:1040E00008F090E0910F9E8B91E0EE89E11708F0C7
:1040F00090E0492E420E91E0421608F090E0392EF1
:10410000330E91E0331608F090E0592E540E91E0F2
:10411000541608F090E0F92FF50F91E0F51708F02C
:1041200090E0E92FE60F91E0E61708F090E0892F84
:10413000870F9E8D981708F493C1891709F467C1FA
:10414000AD85BE858A169B06E0F18D0120E030E04A
:1041500040E050E060E070E08A2F805F8BA391E048
:104160008A1708F090E0910F9F8B91E0EF89E1179B
:1041700008F090E0492E420E91E0421608F090E0DF
:10418000392E330E91E0331608F090E0592E540E7C
:1041900091E0541608F090E0F92FF50F91E0F51733
:1041A00008F090E0E92FE60F91E0E61708F090E0C4
:1041B000892F870F9E8D981708F426C1891709F457
:1041C000FAC0AF85B8898A169B0608F4D3CE8D0154
:1041D00020E030E040E050E060E070E0FA2FF05F77
:1041E000FF8F91E0FA1708F090E0910F9B8B91E020
:1041F000EB89E11708F090E0492E420E91E042165B
:1042000008F090E0392E330E91E0331608F090E07C
:10421000592E540E91E0541608F090E0F92FF50F46
:1042200091E0F51708F090E0E92FE60F91E0E6172E
:1042300008F090E0892F870F9E8D981760F18917FD
:1042400009F098CE8D8D8E1730F1E81709F092CED7
:104250009C8D9F1700F1F91709F08CCEEB8DE515B9
:10426000D0F05E1609F086CEFA8DF315A0F03F1659
:1042700009F080CE898D841570F0481609F07ACE49
:104280009B89E88DE91738F09E1709F073CEFF8DF2
:104290002F1608F06FCEE4E0F0E081E090E08C0FA4
:1042A0009D1FE80FF91F8081843309F4BAC185335B
:1042B0000CF069C0813309F460C182330CF040C155
:1042C0008F3209F496C1803309F487C1882309F439
:1042D00051CE5BCE089461087108722D7F5F81E03A
:1042E000721508F080E0688D680F81E0988D69177D
:1042F00008F080E0598D580F81E0E98D5E1708F0D5
:1043000080E04A8D480F81E0FA8D4F1708F080E079
:104310003B8D380F81E09B8D391708F080E02C8DA4
:10432000280F81E0EC8D2E1708F080E0FD8D8F0FB7
:1043300091E08F1708F090E0272E688F598F4A8FF1
:104340003B8F2C8F8D8F8E8D890F8E8F6114710412
:1043500009F004CEA3960FB6F894DEBF0FBECDBF12
:10436000CF91DF911F910F91FF90EF90DF90CF9051
:10437000BF90AF909F908F907F906F905F904F9085
:104380003F902F900895873309F43FC188330CF094
:10439000C2C0853309F4FDC0863309F097CFAC0D58
:1043A000BD1DA855BE4EFD018491409A43980E94C0
:1043B0009B1E439AEACD8D8D8E1730F1E81709F0D8
:1043C00000CF9C8D9F1700F1F91709F0FACEEB8D05
:1043D000E515D0F05E1609F0F4CEFA8DF315A0F0D5
:1043E0003F1609F0EECE898D841570F0481609F05D
:1043F000E8CE9F89E88DE91738F09E1709F0E1CEE5
:10440000FBA12F1608F0DDCEE3E0F0E046CF8D8D66
:104410008E1730F1E81709F093CE9C8D9F1700F1AD
:10442000F91709F08DCEEB8DE515D0F05E1609F089
:1044300087CEFA8DF315A0F03F1609F081CE898D55
:10444000841570F0481609F07BCE9E89E88DE91737
:1044500038F09E1709F074CEFAA12F1608F070CE2E
:10446000E2E0F0E01ACF8D8D8E1730F1E81709F0F9
:1044700026CE9C8D9F1700F1F91709F020CEEB8D09
:10448000E515D0F05E1609F01ACEFA8DF315A0F0FE
:104490003F1609F014CE898D841570F0481609F086
:1044A0000ECE9D89E88DE91738F09E1709F007CEEA
:1044B000F9A12F1608F003CEE1E0F0E0EECE8D8DED
:1044C0008E1730F1E81709F0B9CD9C8D9F1700F1D8
:1044D000F91709F0B3CDEB8DE515D0F05E1609F0B4
:1044E000ADCDFA8DF315A0F03F1609F0A7CD898D5B
:1044F000841570F0481609F0A1CD9C89E88DE91764
:1045000038F09E1709F09ACDF8A12F1608F096CD35
:10451000E0E0F0E0C2CE893309F453C089330CF4F3
:1045200044C08A3309F0D2CEAC0DBD1DA85DBD4E8E
:10453000FD018491409A43980E949B1E439A25CD89
:10454000823379F0833309F0C1CEAC0DBD1DA85B79
:10455000BE4EFD018491409A43980E949B1E439A4F
:1045600014CDAC0DBD1DA85DBE4EFD018491409AD9
:1045700043980E949B1E439A08CDAC0DBD1DA85FB9
:10458000BE4EFD018491409A43980E949B1E439A1F
:10459000FCCCAC0DBD1DA857BE4EFD018491409AC8
:1045A00043980E949B1E439AF0CCAC0DBD1DA851B0
:1045B000BE4EFD018491409A43980E949B1E439AEF
:1045C000E4CCAC0DBD1DA85FBD4EFD018491409AA9
:1045D00043980E949B1E439AD8CCAC0DBD1DA85198
:1045E000BF4EFD018491409A43980E949B1E439ABE
:1045F000CCCCAC0DBD1DA85BBD4EFD018491409A95
:1046000043980E949B1E439AC0CCAC0DBD1DA8537D
:10461000BE4EFD018491409A43980E949B1E439A8E
:10462000B4CCAC0DBD1DA859BE4EFD018491409A7D
:1046300043980E949B1E439AA8CC2F923F924F9280
:104640005F926F927F928F929F92AF92BF92CF9222
:10465000DF92EF92FF920F931F93DF93CF93CDB72B
:10466000DEB7C259D0400FB6F894DEBF0FBECDBF43
:104670008C013B010E94DD1EDE011796EBE6F1E0A6
:104680008AE001900D928150E1F7DE015C96E7E54A
:10469000F1E084E101900D928150E1F7DE01119685
:1046A000E0E0F1E086E001900D928150E1F7F80141
:1046B0004181242F229526952695237082818F7023
:1046C000880F880F822B90E09C01359527953595B2
:1046D00027953595279535952795205D29838F70EA
:1046E0009070805D8A838081881F8827881F4F7320
:1046F000440F482B50E0CA0195958795959587956D
:104700009595879595958795805D8C834F705070B2
:10471000405D4D83DE015196E6E0F1E08BE00190D3
:104720000D928150E1F7F801228122952F7043818B
:10473000842F83708295807F822B90E09C01359539
:104740002795359527953595279535952795205D9E
:10475000298B8F709070805D8A8B42954695469527
:10476000437084818770880F880F842B90E09C01B0
:104770003595279535952795359527953595279521
:10478000205D2C8B8F709070805D8D8B2581822FAA
:1047900082958F706AE00E94E53D905D998F2F7041
:1047A000205D2A8FAE961FAEAE9744243324222478
:1047B000AF961FAEAF97E0961FAEE097E1961FAEA3
:1047C000E197E2961FAEE2978FE49FEF99AB88AB3B
:1047D000AE968FACAE97942C5401A094B094C8A818
:1047E000D9A8EE24FF242AE0E216F10409F48FC2CE
:1047F000E114F10429F029E0E216F10408F49BC069
:1048000090E0FFE0EF16F10409F48BC42CE0E2160F
:10481000F10430F08EE0E816F10410F40C94662DEB
:10482000409A43988FEF0E949B1E439A0894E11C84
:10483000F11C80E190E0C80ED91EE0E3F0E0AE0E7E
:10484000BF1EF0E1EF16F10471F6AE967FADAE97A4
:104850007F5F81E0AE96EFADAE977E1708F080E007
:10486000682F640D81E0641508F080E0582F530D27
:1048700081E0531508F080E0482F420D81E0421599
:1048800008F080E0AF963FADAF97380F81E0AF966C
:10489000FFADAF973F1708F080E0E0962FADE097AF
:1048A000280F81E0E0965FACE097251508F080E0E6
:1048B000E1969FADE197890F91E0E196EFADE19729
:1048C0008E1708F090E0AE967FAFAE97462E1A0195
:1048D000AF963FAFAF97E0962FAFE097E1968FAFDF
:1048E000E197E296FFADE297F90FE296FFAFE2970C
:1048F00088A999A9019799AB88AB87529E4F09F077
:1049000067CFCE56DF4F0FB6F894DEBF0FBECDBFD8
:10491000CF91DF911F910F91FF90EF90DF90CF909B
:10492000BF90AF909F908F907F906F905F904F90CF
:104930003F902F900895AF81B8858A169B0608F4A2
:1049400051C08D0120E030E040E050E060E070E0D8
:104950008A2F805DC557DF4F8883CB58D04091E0C8
:104960008A1708F090E0910F6F969FAF6F9791E0D4
:104970006F96EFAD6F97E11708F090E0920FA09659
:104980009FAFA09791E0A096FFADA097F21708F017
:1049900090E0930FA1969FAFA19791E0A1965FAC95
:1049A000A197531608F090E0592E540E91E054163A
:1049B00008F090E0F92FF50F91E0F51708F090E07E
:1049C000960FE1E0961708F0E0E08E2F870FE29651
:1049D0002FADE297281710F40C940434821711F4C9
:1049E0000C94C233A985BA858A169B0608F451C077
:1049F0008D0120E030E040E050E060E070E0EA2F20
:104A0000E05DC457DF4FE883CC58D04091E0EA170F
:104A100008F090E0910FA2969FAFA29791E0A29626
:104A2000FFADA297F11708F090E0920FA3969FAF09
:104A3000A39791E0A3965FACA397521608F090E07D
:104A4000930FA4969FAFA49791E0A496EFADA4977F
:104A5000E31708F090E0592E540E91E0541608F038
:104A600090E0F92FF50F91E0F51708F090E0960F20
:104A7000E1E0961708F0E0E08E2F870FE2962FAD69
:104A8000E297281710F40C94BE33821711F40C949B
:104A90007C33AB85BC858A169B0608F451C08D011A
:104AA00020E030E040E050E060E070E0EA2FE05DC0
:104AB000C357DF4FE883CD58D04091E0EA1708F0A4
:104AC00090E0910FA5969FAFA59791E0A596FFADB9
:104AD000A597F11708F090E0920FA6969FAFA697C2
:104AE00091E0A6965FACA697521608F090E0930F5F
:104AF000A7969FAFA79791E0A796EFADA797E3176B
:104B000008F090E0592E540E91E0541608F090E011
:104B1000F92FF50F91E0F51708F090E0960FE1E01E
:104B2000961708F0E0E08E2F870FE2962FADE29700
:104B3000281710F40C944A34821711F40C9408349A
:104B4000AD85BE858A169B0608F44FC08D0120E016
:104B500030E040E050E060E070E0EA2FE05DC257F6
:104B6000DF4FE883CE58D04091E0EA1708F090E09C
:104B7000910FA8969FAFA89791E0A896FFADA89730
:104B8000F11708F090E0920FA9969FAFA99791E0D6
:104B9000A9965FACA997521608F090E0930FAA96D9
:104BA0009FAFAA9791E0AA96EFADAA97E31708F0F6
:104BB00090E0592E540E91E0541608F090E0F92F31
:104BC000F50F91E0F51708F090E0960FE1E09617E9
:104BD00008F0E0E08E2F870FE2962FADE2972817BE
:104BE00008F476C2821709F438C2AF85B8898A16EC
:104BF0009B0608F405CE8D0120E030E040E050E057
:104C000060E070E0EA2FE05DC157DF4FE883CF58E6
:104C1000D04091E0EA1708F090E0910FAB969FAF7B
:104C2000AB9791E0AB96FFADAB97F11708F090E032
:104C3000920FAC969FAFAC9791E0AC965FACAC97FF
:104C4000521608F090E0930FAD969FAFAD9791E0AC
:104C5000AD96EFADAD97E31708F090E0592E540EE6
:104C600091E0541608F090E0F92FF50F91E0F51758
:104C700008F090E0960FE1E0961708F0E0E08E2F44
:104C8000870FE2962FADE2972817F0F1821709F00F
:104C9000B7CDE1968FADE1978917B0F1981709F07C
:104CA000AFCDE0969FADE0979F1770F1F91709F02F
:104CB000A7CDAF96EFADAF97E51530F15E1609F0D1
:104CC0009FCDAD96FFADAD972F16F0F0F21509F020
:104CD00097CDAC965FACAC973514B0F0531409F097
:104CE0008FCDAB962FADAB97421670F0241509F01F
:104CF00087CDC157DF4F8881CF58D040AE969FAD4A
:104D0000AE97981708F07CCDE4E0F0E0E3C12F8186
:104D10003885F3018081882309F491C582169306B2
:104D200008F48DC5890120E030E040E050E060E00B
:104D300070E0F02FF05DCA57DF4FF883C658D040BF
:104D400091E0F01708F090E0F92FF10F91E0F117E2
:104D500008F090E0CF56DF4F9883C159D040A1E0D2
:104D60005524521608F0A0E0B1E080E0831708F067
:104D7000B0E0E1E090E0941708F0E0E091E0552425
:104D8000551608F090E081E05524561608F080E0B2
:104D9000E2962FADE297281708F047C5409A43984E
:104DA0008FEB0E949B1E439A9FE529853A85F3016C
:104DB0008181882309F44FC08216930608F44BC002
:104DC000890120E030E040E050E060E070E0F02F4A
:104DD000F05DC957DF4FF883C758D040E1E0F017C6
:104DE00008F0E0E0AE2FA10FE1E0A11708F0E0E04D
:104DF0006B96EFAF6B97B1E05524521608F0B0E018
:104E00005524539480E0831708F05524F1E0E0E046
:104E1000E41708F0F0E081E0CE56DF4F8883C259F6
:104E2000D040E0E0E51728F0CE56DF4F1882C25997
:104E3000D04081E0E0E0E61708F080E0E2962FAD98
:104E4000E297281708F072C5409A43988FEB0E94AA
:104E50009B1E439A9FE52B853C85F3018281882325
:104E600009F44FC08216930608F44BC0890120E074
:104E700030E040E050E060E070E0F02FF05DC857B7
:104E8000DF4FF883C858D040E1E0F01708F0E0E0C9
:104E9000AE2FA10FE1E0A11708F0E0E06C96EFAFB4
:104EA0006C97B1E05524521608F0B0E055245394A5
:104EB00080E0831708F05524F1E0E0E0E41708F003
:104EC000F0E081E0CE56DF4F8883C259D040E0E069
:104ED000E51728F0CE56DF4F1882C259D04081E046
:104EE000E0E0E61708F080E0E2962FADE2972817A1
:104EF00008F0A8C5409A43988FEB0E949B1E439AE6
:104F00009FE52D853E85F3018381882309F44FC0F9
:104F10008216930608F44BC0890120E030E040E09F
:104F200050E060E070E0F02FF05DC757DF4FF8838E
:104F3000C958D040E1E0F01708F0E0E0AE2FA10F33
:104F4000E1E0A11708F0E0E06D96EFAF6D97B1E0FA
:104F50005524521608F0B0E05524539480E083178E
:104F600008F05524F1E0E0E0E41708F0F0E081E01B
:104F7000CE56DF4F8883C259D040E0E0E51728F0D5
:104F8000CE56DF4F1882C259D04081E0E0E0E617EC
:104F900008F080E0E2962FADE297281708F082C46F
:104FA000409A43988FEB0E949B1E439A9FE52F8562
:104FB0003889F3018481882309F4ABC082169306F3
:104FC00008F4A7C0890120E030E040E050E060E054
:104FD00070E0F02FF05DC657DF4FF883CA58D0401D
:104FE000E1E0F01708F0E0E0AE2FA10FE1E0A1173B
:104FF00008F0E0E06E96EFAF6E97B1E055245216E0
:1050000008F0B0E05524539480E0831708F055244D
:10501000F1E0E0E0E41708F0F0E081E0CE56DF4F89
:105020008883C259D040E0E0E51728F0CE56DF4F24
:105030001882C259D04081E0E0E0E61708F080E035
:10504000E2962FADE297281708F0B4C4409A43982F
:105050008FEB0E949B1E439AE9CBE1968FADE197BF
:105060008917B0F1981709F0C0CDE0969FADE09791
:105070009F1770F1F91709F0B8CDAF96EFADAF9764
:10508000E51530F15E1609F0B0CDAA96FFADAA97EE
:105090002F16F0F0F21509F0A8CDA9965FACA997EC
:1050A0003514B0F0531409F0A0CDA8962FADA897F1
:1050B000421670F0241509F098CDC257DF4F888151
:1050C000CE58D040AE969FADAE97981708F08DCDD4
:1050D000E3E0F0E081E090E08C0F9D1FE80FF91F06
:1050E0009081953311F40C94C334963314F00C94DE
:1050F0006233923311F40C94A934933314F00C946A
:105100006234903311F40C94B634913311F40C944E
:105110005533992309F08ACBFFE0EF16F10409F02B
:1051200075CB2C8D3D8DF3018581882309F452C008
:105130008216930608F44EC0890120E030E040E07A
:1051400050E060E070E0F02FF05FED96FFAFED977C
:10515000E1E0F01708F0E0E05E2E510EE1E05116BC
:1051600008F0E0E06196EFAF6197A1E080E0821780
:1051700008F0A0E0B1E0E0E0E31708F0B0E0F1E013
:1051800080E0841708F0F0E0E1E080E0851708F0A7
:10519000E0E081E0C057DF4F8883C059D04080E015
:1051A000861728F0C057DF4F1882C059D040C0572B
:1051B000DF4F2881C059D040E2968FADE297821729
:1051C00010F00C942031409A43988FEB0E949B1E64
:1051D000439A9FE52E8D3F8DF3018681882309F444
:1051E00052C08216930608F44EC0890120E030E0D8
:1051F00040E050E060E070E0F02FF05FEE96FFAF2F
:10520000EE97E1E0F01708F0E0E05E2E510EE1E0ED
:10521000511608F0E0E06296EFAF6297A1E080E0FF
:10522000821708F0A0E0B1E0E0E0E31708F0B0E09A
:10523000F1E080E0841708F0F0E0E1E080E085171D
:1052400008F0E0E081E0C057DF4F8883C059D040CC
:1052500080E0861728F0C057DF4F1882C059D04031
:10526000C057DF4F2881C059D040E2968FADE297FA
:10527000821710F00C943632409A43988FEB0E94BC
:105280009B1E439A9FE528A139A1F30187818823BA
:1052900009F452C08216930608F44EC0890120E03A
:1052A00030E040E050E060E070E0F02FF05FEF961B
:1052B000FFAFEF97E1E0F01708F0E0E05E2E510E4F
:1052C000E1E0511608F0E0E06396EFAF6397A1E0EC
:1052D00080E0821708F0A0E0B1E0E0E0E31708F01A
:1052E000B0E0F1E080E0841708F0F0E0E1E080E079
:1052F000851708F0E0E081E0C057DF4F8883C05990
:10530000D04080E0861728F0C057DF4F1882C05980
:10531000D040C057DF4F2881C059D040E2968FADB2
:10532000E297821710F00C94AB31409A43988FEBC0
:105330000E949B1E439A9FE52AA13BA1F301808511
:10534000882309F454C08216930608F450C08901DA
:1053500020E030E040E050E060E070E0F02FF05FEF
:10536000C158DF4FF883CF57D040E1E0F01708F085
:10537000E0E05E2E510EE1E0511608F0E0E06496A8
:10538000EFAF6497A1E080E0821708F0A0E0B1E001
:10539000E0E0E31708F0B0E0F1E080E0841708F007
:1053A000F0E0E1E080E0851708F0E0E081E0C05740
:1053B000DF4F8883C059D04080E0861728F0C0575F
:1053C000DF4F1882C059D040C057DF4F2881C059E5
:1053D000D040E2968FADE297821710F00C94C8325D
:1053E000409A43988FEB0E949B1E439A9FE52CA105
:1053F0003DA1F3018185882309F453C082169306E9
:1054000008F44FC0890120E030E040E050E060E067
:1054100070E0F02FF05FC058DF4FF883C058D040E5
:10542000E1E0F01708F0E0E05E2E510EE1E05116E9
:1054300008F0E0E06596EFAF6597A1E080E08217A5
:1054400008F0A0E0B1E0E0E0E31708F0B0E0F1E040
:1054500080E0841708F0F0E0E1E080E0851708F0D4
:10546000E0E081E0C057DF4F8883C059D04080E042
:10547000861728F0C057DF4F1882C059D040C05758
:10548000DF4F2881C059D040E2968FADE297821756
:1054900008F022C7409A43988FEB0E949B1E439AC4
:1054A0009FE52EA13FA1F3018285882309F453C013
:1054B0008216930608F44FC0890120E030E040E0F6
:1054C00050E060E070E0F02FF05FCF57DF4FF883DF
:1054D000C158D040E1E0F01708F0E0E05E2E510E38
:1054E000E1E0511608F0E0E06696EFAF6697A1E0C4
:1054F00080E0821708F0A0E0B1E0E0E0E31708F0F8
:10550000B0E0F1E080E0841708F0F0E0E1E080E056
:10551000851708F0E0E081E0C057DF4F8883C0596D
:10552000D04080E0861728F0C057DF4F1882C0595E
:10553000D040C057DF4F2881C059D040E2968FAD90
:10554000E297821708F0DEC7409A43988FEB0E94DB
:105550009B1E439A9FE528A539A5F30183858823DF
:1055600009F453C08216930608F44FC0890120E065
:1055700030E040E050E060E070E0F02FF05FCE57A8
:10558000DF4FF883C258D040E1E0F01708F0E0E0C8
:105590005E2E510EE1E0511608F0E0E06796EFAFA5
:1055A0006797A1E080E0821708F0A0E0B1E0E0E0BA
:1055B000E31708F0B0E0F1E080E0841708F0F0E0D5
:1055C000E1E080E0851708F0E0E081E0C057DF4FC0
:1055D0008883C059D04080E0861728F0C057DF4F3D
:1055E0001882C059D040C057DF4F2881C059D040E1
:1055F000E2968FADE297821708F0F9C6409A439879
:105600008FEB0E949B1E439A9FE52AA53BA5F301C1
:105610008485882309F453C08216930608F44FC08A
:10562000890120E030E040E050E060E070E0F02FE1
:10563000F05FCD57DF4FF883C358D040E1E0F0175B
:1056400008F0E0E05E2E510EE1E0511608F0E0E0D7
:105650006896EFAF6897A1E080E0821708F0A0E0BD
:10566000B1E0E0E0E31708F0B0E0F1E080E084179B
:1056700008F0F0E0E1E080E0851708F0E0E081E08C
:10568000C057DF4F8883C059D04080E0861728F08C
:10569000C057DF4F1882C059D040C057DF4F288114
:1056A000C059D040E2968FADE297821708F0BEC78E
:1056B000409A43988FEB0E949B1E439A9FE52CA52E
:1056C0003DA5F3018585882309F453C0821693060E
:1056D00008F44FC0890120E030E040E050E060E095
:1056E00070E0F02FF05FCC57DF4FF883C458D04004
:1056F000E1E0F01708F0E0E05E2E510EE1E0511617
:1057000008F0E0E06996EFAF6997A1E080E08217CA
:1057100008F0A0E0B1E0E0E0E31708F0B0E0F1E06D
:1057200080E0841708F0F0E0E1E080E0851708F001
:10573000E0E081E0C057DF4F8883C059D04080E06F
:10574000861728F0C057DF4F1882C059D040C05785
:10575000DF4F2881C059D040E2968FADE297821783
:1057600008F02FC5409A43988FEB0E949B1E439AE6
:105770009FE52EA53FA5F3018685882309F450C037
:105780008216930608F44CC0890120E030E040E026
:1057900050E060E070E0F02FF05FCB57DF4FF88310
:1057A000C558D040E1E0F01708F0E0E05E2E510E61
:1057B000E1E0511608F0E0E06A96EFAF6A97A1E0E9
:1057C00080E0821708F0A0E0B1E0E0E0E31708F025
:1057D000B0E0F1E080E0841708F0F0E0E1E080E084
:1057E000851708F0E0E081E0C057DF4F8883C0599B
:1057F000D04080E0861728F0C057DF4F1882C0598C
:10580000D040C057DF4F2881C059D040E2968FADBD
:10581000E297821708F41ACC281711F40C949637E3
:10582000992311F40C94102401C8821741F4E196D5
:105830008FADE197891708F4B1CA981711F090E07D
:10584000B4CAE0969FADE0979E1708F4A7CAE9177F
:10585000B1F7AF96EFADAF97EB1708F49FCABE173D
:1058600071F72A1608F49ACAA21549F7CF56DF4FE6
:105870005880C159D040351408F490CA5314F9F631
:105880004F1608F48BCAF415D1F6CA57DF4F28819A
:10589000C658D040AE968FADAE97821708F47ECA38
:1058A00090E083CA821709F082CBCE56DF4F888101
:1058B000C259D040E196EFADE197E81708F470CBFC
:1058C0008E1709F074CBE0962FADE0972F1708F4F0
:1058D00067CBF21709F06BCBAF968FADAF978515FD
:1058E00008F45ECB581609F062CB2B1608F458CB9F
:1058F000B21509F05CCB6D96EFAD6D973E1608F4CE
:105900004FCBE31509F053CB4A1608F449CBA41545
:1059100009F04DCBC757DF4FF881C958D040AE963C
:105920005FACAE975F1608F042CB3ACB821709F016
:1059300092CACE56DF4F8881C259D040E196EFAD72
:10594000E197E81708F480CA8E1709F084CAE09638
:105950002FADE0972F1708F477CAF21709F07BCA2A
:10596000AF968FADAF97851508F46ECA581609F03B
:1059700072CA2B1608F468CAB21509F06CCA6B9685
:10598000EFAD6B973E1608F45FCAE31509F063CAE2
:105990004A1608F459CAA41509F05DCAC957DF4F61
:1059A000F881C758D040AE965FACAE975F1608F04E
:1059B00052CA4ACA821709F0ACCBCE56DF4F888153
:1059C000C259D040E196EFADE197E81708F43ECB1D
:1059D0008E1709F09ECBE0962FADE0972F1708F4B5
:1059E00035CBF21709F095CBAF968FADAF978515F4
:1059F00008F42CCB581609F08CCB2B1608F426CBC8
:105A0000B21509F086CB6E96EFAD6E973E1608F490
:105A10001DCBE31509F07DCB4A1608F417CBA4156E
:105A200009F077CBC657DF4FF881CA58D040AE9601
:105A30005FACAE975F1608F409CB992309F46CCBE1
:105A40000C941624821709F05CCACE56DF4F888169
:105A5000C259D040E196EFADE197E81708F44ACA81
:105A60008E1709F04ECAE0962FADE0972F1708F475
:105A700041CAF21709F045CAAF968FADAF978515A9
:105A800008F438CA581609F03CCA2B1608F432CA72
:105A9000B21509F036CA6C96EFAD6C973E1608F455
:105AA00029CAE31509F02DCA4A1608F423CAA41519
:105AB00009F027CAC857DF4FF881C858D040AE96C2
:105AC0005FACAE975F1608F01CCA14CAAC8DBD8DD2
:105AD0008A169B0608F446C08D0120E030E040E0C5
:105AE00050E060E070E09A2F905FE3969FAFE397FD
:105AF00091E0E396EFADE397EA1708F090E0910F9D
:105B00009AAB91E0FAA9F11708F090E0920F9BABE5
:105B100091E05BA8521608F090E0930F9CAB91E0E7
:105B2000ECA9E31708F090E0592E540E91E05416BA
:105B300008F090E0F92FF50F91E0F51708F090E0EC
:105B4000960FE1E0961708F0E0E08E2F870FE296BF
:105B50002FADE297281710F40C94DC36821711F45D
:105B60000C94A236AE8DBF8D8A169B0608F443C0F6
:105B70008D0120E030E040E050E060E070E0EA2F8E
:105B8000E05FE496EFAFE49791E0EA1708F090E069
:105B9000910F9DAB91E0FDA9F11708F090E0920FF5
:105BA0009EAB91E05EA8521608F090E0930F9FAB79
:105BB00091E0EFA9E31708F090E0592E540E91E020
:105BC000541608F090E0F92FF50F91E0F51708F062
:105BD00090E0960FE1E0961708F0E0E08E2F870F37
:105BE000E2962FADE297281710F40C94193782171C
:105BF00011F40C94DF36A8A1B9A18A169B0608F40B
:105C000043C08D0120E030E040E050E060E070E013
:105C1000EA2FE05FE596EFAFE59791E0EA1708F02D
:105C200090E0910F98AF91E0F8ADF11708F090E097
:105C3000920F99AF91E059AC521608F090E0930F93
:105C40009AAF91E0EAADE31708F090E0592E540EB8
:105C500091E0541608F090E0F92FF50F91E0F51758
:105C600008F090E0960FE1E0961708F0E0E08E2F44
:105C7000870FE2962FADE297281710F40C94563751
:105C8000821711F40C941C37AAA1BBA18A169B069B
:105C900008F443C08D0120E030E040E050E060E0D7
:105CA00070E0EA2FE05FE696EFAFE69791E0EA1743
:105CB00008F090E0910F9BAF91E0FBADF11708F079
:105CC00090E0920F9CAF91E05CAC521608F090E02F
:105CD000930F9DAF91E0EDADE31708F090E0592EE2
:105CE000540E91E0541608F090E0F92FF50F91E072
:105CF000F51708F090E0960FE1E0961708F0E0E065
:105D00008E2F870FE2962FADE297281710F40C9490
:105D10009337821711F40C945937ACA1BDA18A16A0
:105D20009B0608F445C08D0120E030E040E050E0E3
:105D300060E070E0EA2FE05FE796EFAFE79791E071
:105D4000EA1708F090E0910F9EAF91E0FEADF117D9
:105D500008F090E0920F9FAF91E05FAC521608F010
:105D600090E0930F21969FAF219791E02196EFADA0
:105D70002197E31708F090E0592E540E91E0541645
:105D800008F090E0F92FF50F91E0F51708F090E09A
:105D9000960FE1E0961708F0E0E08E2F870FE2966D
:105DA0002FADE297281708F416C7821709F4DEC64C
:105DB000AEA1BFA18A169B0608F44DC08D0120E05C
:105DC00030E040E050E060E070E0EA2FE05FE8960D
:105DD000EFAFE89791E0EA1708F090E0910F229674
:105DE0009FAF229791E02296FFAD2297F11708F01E
:105DF00090E0920F23969FAF239791E023965FAC9C
:105E00002397521608F090E0930F24969FAF2497A3
:105E100091E02496EFAD2497E31708F090E0592E17
:105E2000540E91E0541608F090E0F92FF50F91E030
:105E3000F51708F090E0960FE1E0961708F0E0E023
:105E40008E2F870FE2962FADE297281708F4FFC632
:105E5000821709F4C3C6A8A5B9A58A169B0608F43B
:105E60004DC08D0120E030E040E050E060E070E0A7
:105E7000EA2FE05FE996EFAFE99791E0EA1708F0C3
:105E800090E0910F25969FAF259791E02596FFAD65
:105E90002597F11708F090E0920F26969FAF26976E
:105EA00091E026965FAC2697521608F090E0930F8B
:105EB00027969FAF279791E02796EFAD2797E31797
:105EC00008F090E0592E540E91E0541608F090E03E
:105ED000F92FF50F91E0F51708F090E0960FE1E04B
:105EE000961708F0E0E08E2F870FE2962FADE2972D
:105EF000281708F4E8C6821709F4ACC6AAA5BBA502
:105F00008A169B0608F44DC08D0120E030E040E089
:105F100050E060E070E0EA2FE05FEA96EFAFEA97CA
:105F200091E0EA1708F090E0910F28969FAF28972C
:105F300091E02896FFAD2897F11708F090E0920FB6
:105F400029969FAF299791E029965FAC2997521621
:105F500008F090E0930F2A969FAF2A9791E02A9637
:105F6000EFAD2A97E31708F090E0592E540E91E018
:105F7000541608F090E0F92FF50F91E0F51708F0AE
:105F800090E0960FE1E0961708F0E0E08E2F870F83
:105F9000E2962FADE297281708F4D1C6821709F4CC
:105FA00095C6ACA5BDA58A169B0608F44DC08D010B
:105FB00020E030E040E050E060E070E0EA2FE05F99
:105FC000EB96EFAFEB9791E0EA1708F090E0910FB6
:105FD0002B969FAF2B9791E02B96FFAD2B97F11748
:105FE00008F090E0920F2C969FAF2C9791E02C96A2
:105FF0005FAC2C97521608F090E0930F2D969FAF50
:106000002D9791E02D96EFAD2D97E31708F090E0D6
:10601000592E540E91E0541608F090E0F92FF50F28
:1060200091E0F51708F090E0960FE1E0961708F080
:10603000E0E08E2F870FE2962FADE297281708F445
:1060400092C5821709F456C5AEA5BFA58A169B0650
:1060500010F40C9410248D0120E030E040E050E07A
:1060600060E070E0EA2FE05FEC96EFAFEC9791E034
:10607000EA1708F090E0910F2E969FAF2E9791E0CF
:106080002E96FFAD2E97F11708F090E0920F2F9605
:106090009FAF2F9791E02F965FAC2F97521608F085
:1060A00090E0930F60969FAF609791E06096EFADA0
:1060B0006097E31708F090E0592E540E91E05416C3
:1060C00008F090E0F92FF50F91E0F51708F090E057
:1060D000960FE1E0961708F0E0E08E2F870FE2962A
:1060E0002FADE297281708F444C0821711F00C94E2
:1060F0001024E1968FADE1978917D8F1981711F028
:106100000C941024E0969FADE0979F1790F1F9173B
:1061100011F00C941024AF96EFADAF97E51548F150
:106120005E1611F00C9410246096FFAD60972F1648
:1061300000F1F21511F00C9410242F965FAC2F97FC
:106140003514B8F0531411F00C9410242E962FAD82
:106150002E97421670F0241511F00C941024EC9632
:106160008FADEC97AE969FADAE97981710F00C944C
:106170001024E9E0F0E081E190E08C0F9D1FE80F32
:10618000F91F9081943309F4A8C495330CF008C426
:10619000913309F495C492330CF031C49F3209F461
:1061A00075C4903309F03CCBAC0DBD1DA851BF4E5A
:1061B000FD018491409A43980E949B1E439A0C943F
:1061C0001624281709F0D5CAE1962FADE1972E17AE
:1061D00008F4C8CAE21709F0CCCAE0968FADE09780
:1061E0008F1708F4BFCAF81709F0C3CAAF96EFAD0E
:1061F000AF97EB1708F4B6CABE1709F0BACA2A1649
:1062000008F4B0CAA21509F0B4CA6996FFAD69973F
:106210003F1608F4A7CAF31509F0ABCA451408F4F1
:10622000A1CA541409F0A5CACC57DF4F5880C458EE
:10623000D040AE962FADAE97251508F09ACA92CAF7
:10624000281711F00C94EA28E1962FADE1972E174C
:1062500010F40C94E328E21711F00C94EA28E0966D
:106260008FADE0978F1710F40C94E328F81711F016
:106270000C94EA28AF96EFADAF97EB1710F40C949F
:10628000E328BE1711F00C94EA282A1610F40C9497
:10629000E328A21511F00C94EA286196FFAD6197EE
:1062A0003F1610F40C94E328F31511F00C94EA282F
:1062B000451410F40C94E328541411F00C94EA28BB
:1062C000ED965FACED97AE962FADAE97251510F01D
:1062D0000C94EA280C94E328281709F0E2C8E19608
:1062E0002FADE1972E1708F4D5C8E21709F0D9C8E9
:1062F000E0968FADE0978F1708F4CCC8F81709F037
:10630000D0C8AF96EFADAF97EB1708F4C3C8BE1770
:1063100009F0C7C82A1608F4BDC8A21509F0C1C8FB
:106320006596FFAD65973F1608F4B4C8F31509F0FC
:10633000B8C8451408F4AEC8541409F0B2C8C0581F
:10634000DF4F5880C058D040AE962FADAE97251580
:1063500008F0A7C89FC8281711F00C949C29E19653
:106360002FADE1972E1710F40C949529E21711F038
:106370000C949C29E0968FADE0978F1710F40C9445
:106380009529F81711F00C949C29AF96EFADAF97B3
:10639000EB1710F40C949529BE1711F00C949C295E
:1063A0002A1610F40C949529A21511F00C949C292E
:1063B0006396FFAD63973F1610F40C949529F3157F
:1063C00011F00C949C29451410F40C949529541444
:1063D00011F00C949C29EF965FACEF97AE962FAD21
:1063E000AE97251510F00C949C290C94952928172C
:1063F00009F00BC9E1962FADE1972E1708F4FEC8FE
:10640000E21709F002C9E0968FADE0978F1708F404
:10641000F5C8F81709F0F9C8AF96EFADAF97EB17CD
:1064200008F4ECC8BE1709F0F0C82A1608F4E6C84C
:10643000A21509F0EAC86796FFAD67973F1608F402
:10644000DDC8F31509F0E1C8451408F4D7C85414A1
:1064500009F0DBC8CE57DF4F5880C258D040AE9607
:106460002FADAE97251508F0D0C8C8C8281711F071
:106470000C944329E1962FADE1972E1710F40C945C
:106480003C29E21711F00C944329E0968FADE09778
:106490008F1710F40C943C29F81711F00C94432931
:1064A000AF96EFADAF97EB1710F40C943C29BE17E5
:1064B00011F00C9443292A1610F40C943C29A215CF
:1064C00011F00C9443296296FFAD62973F1610F4C9
:1064D0000C943C29F31511F00C944329451410F445
:1064E0000C943C29541411F00C944329EE965FACA3
:1064F000EE97AE962FADAE97251510F00C9443296C
:106500000C943C29281709F026C8E1962FADE19795
:106510002E1708F419C8E21709F01DC8E0968FADD0
:10652000E0978F1708F410C8F81709F014C8AF9651
:10653000EFADAF97EB1708F407C8BE1709F00BC80B
:106540002A1610F40C94A42AA21509F004C8669621
:10655000FFAD66973F1610F40C94A42AF31511F0C2
:106560000C94AB2A451410F40C94A42A541411F082
:106570000C94AB2ACF57DF4F5880C158D040AE960D
:106580002FADAE97251510F00C94AB2A0C94A42ACD
:10659000281711F00C94F729E1962FADE1972E17EB
:1065A00010F40C94F029E21711F00C94F729E096FE
:1065B0008FADE0978F1710F40C94F029F81711F0B5
:1065C0000C94F729AF96EFADAF97EB1710F40C943E
:1065D000F029BE1711F00C94F7292A1610F40C9428
:1065E000F029A21511F00C94F7296496FFAD649779
:1065F0003F1610F40C94F029F31511F00C94F729C0
:10660000451410F40C94F029541411F00C94F7294B
:10661000C158DF4F5880CF57D040AE962FADAE97C0
:10662000251510F00C94F7290C94F029281709F07F
:1066300046C8E1962FADE1972E1708F439C8E21746
:1066400009F03DC8E0968FADE0978F1708F430C889
:10665000F81709F034C8AF96EFADAF97EB1708F411
:1066600027C8BE1709F02BC82A1608F421C8A2159E
:1066700009F025C86896FFAD68973F1608F418C85A
:10668000F31509F01CC8451408F412C8541409F095
:1066900016C8CD57DF4F5880C358D040AE962FADA7
:1066A000AE97251508F00BC803C8AA0DBB1DA8514D
:1066B000BE4FFD018491409A43980E949B1E439ACD
:1066C0000C941624983309F41DC199330CF0E6C0DC
:1066D000963309F424C1973311F00C948928AA0D3C
:1066E000BB1DA851B54FFD018491409A43980E946B
:1066F0009B1E439A0C941624E1968FADE19789175F
:10670000E8F1981711F00C944925E0969FADE097B9
:106710009F17A0F1F91711F00C944925AF96EFAD32
:10672000AF97E51558F15E1611F00C944925A49623
:10673000FFADA4972F1610F1F21511F00C94492516
:10674000A3965FACA3973514C8F0531411F00C94C2
:106750004925A2962FADA297421680F0241511F07C
:106760000C944925C457DF4F8881CC58D040AE9651
:106770009FADAE97981710F00C944925E1E0F0E03A
:106780000C946A28E1968FADE1978917E8F1981784
:1067900011F00C94F224E0969FADE0979F17A0F1C2
:1067A000F91711F00C94F224AF96EFADAF97E51501
