:100000000C94E51B0C94E82C0C94021C0C94021C20
:100010000C94021C0C94021C0C94021C0C94021CE8
:100020000C94021C0C94021C0C94021C0C94021CD8
:100030000C94021C0C94021C0C94021C0C94021CC8
:100040000C94021C0C94021C0C94021C0C94021CB8
:100050000C94021C0C94021C0C94021C0C94021CA8
:100060000C94021C0C94021CBB22AF22A3229722E8
:100070008B227F22732267225B229221C722D02605
:10008000C326B626A9269C268F2682267526682694
:100090005B264E26DD268C2C802C742C682C5C2C48
:1000A000502C442C382C2C2C202C142C982C9F2E8B
:1000B000262F122FF52E892F502FD92E88305B3006
:1000C0004A3030300230CB2F7D30FFFFFFFFFFFF83
:1000D000FEF8C000031F7FFFFFFFFFFFFFFCF08063
:1000E00001071FFFFFFFFFFFFFFFFFFFFFFFFFE70E
:1000F000C3C3C3C3E7FFFFFFFFFFFFFFFFFFFFE730
:10010000C3C3C3C3E7FFFFFFFFFFC08000001E1E85
:100110001E1E0080C0E0FFFFFFFFFF783838383830
:1001200038300103071FFFFFFFFFC3810000183CA9
:100130003C18000081C3FFFFFFFFC3810000183C93
:100140003C18000081C3FFFFFFFF3F3F3F3F3F3FA1
:100150003C300001071FFFFFFFFFFFFFFCF0C00066
:10016000071F7FFFFFFFFFFFFFFFF0E0C0800C1CB9
:100170001C3C3C3C3EFFFFFFFFFF0701006078FC9A
:10018000FC7870000103FFFFFFFFFF0000003C3C14
:100190003C3C3C3C3EFFFFFFFFFFFCFCFCFCFCFC4E
:1001A000787800010387FFFFFFFFFFFFFFFCF8E007
:1001B000C10300000000FFFFFFFFFF8F0F0F0FCFF5
:1001C000CFCF00000000CFCFCFFFFF1F1E1E3E3E4F
:1001D0001C000081C3FFFFFFFFFFFCFC7C7C7C7CDC
:1001E0003838000103C7FFFFFFFFDF8F0F1F1F3FDE
:1001F0001E000080C1FFFFFFFFFFFCF8F0E0C0849D
:100200000C1C3C7CFCFCFFFFFFFFDF8F8F0F1F00EF
:100210000000FFFFFFFFFFFFFFFFFCFCFCFCFC00FA
:100220000000FCFCFCFCFFFFFFFFFCE08080071FE0
:100230003F3F1F070080E0FCFFFF3F070100E0F8A1
:10024000FCFCF8E00101073FFFFFFFFFFFFFFFFF9E
:10025000FFFFFFFFFFFFFFFFFFFFFFFFFFFFFEFEB0
:10026000FEFEFEFEFEFFFFFFFFFFFFFFFFFFFFFFA3
:10027000FFFFFFFFFFFFFFFFFFFFFFFFFFFFFFFF8E
:10028000FFFFFFFFFFFFFFFFFFFFE0800000000018
:100290000000000000000080E0FFFFFFFFFFFFFF05
:1002A000FFFFFFFFFFFFFFFFFFFFFFFFFFFFFFFF5E
:1002B000FFFFFFFFFFFFFFFFFFFF7F1F0F0F07077E
:1002C00007070707070F0F1F3FFFFFFFFFFFFFFF96
:1002D000FFFFFFFFFFFFFFFFFFFFFFFFFFFFFFFF2E
:1002E000FFFFFFFFFFFFFFFFFFFFFFFFFFFFFFFF1E
:1002F000FFFFFFFFFFFFFFFFFFFFFFFFFFFFFFFF0E
:10030000FFFFFFFFFFFFFFFFFFFFFFFFFFFFFFFFFD
:10031000FFFFFFFFFFFFFFFFFFFFFFFFFFFFFFFFED
:10032000FFFFFFFFFFFFFFFFFFFFFFFFFFFFFFFFDD
:10033000FFFFFFFFFFFFFFFFFFFFFFFFFFFFFFFFCD
:10034000FFFFFFFFFFFFFFFFFFFFFCF0E0E0C0C08B
:10035000C0C0C0C0C0E0E0F0FCFFFFFFFFFFFFFF38
:10036000FFFFFFFFFFFFFFFFFFFFFFFFFFFFFFFF9D
:10037000FFFFFFFFFFFFFFFFFFFF0F030101000073
:10038000000000000001010307FFFFFFFFFFFFFF68
:10039000FFFFFFFFFFFFFFFFFFFFFFFFFFFFFFFF6D
:1003A000FFFFFFFFFFFFFFFFFFFFFFFFFFFFFFFF5D
:1003B000FFFFFFFFFFFFFFFFFFFFFFFFFFFFFFFF4D
:1003C000FFFFFFFFFFFFFFFFFFFFFFFFFFFFFFFC40
:1003D000F8F0F0E0C0C08080800000000000010163
:1003E00001000000000000808080C0C0E0F0F8FC48
:1003F000FEFFFFFFFFFFFFFFFFFFFFF8C0800000D1
:100400000000000000070F3F3F7FFFFFFFFFFFFFDF
:10041000FFFFFFFFFF7F7F3F0F070000000000008E
:100420000080C0F8FFFFFFFFFFFF0000000000009A
:1004300000000000FFFFFFFFFFFFFFFFFFFFFFFFC8
:10044000FFFFFFFFFFFFFFFFFFFFFF0700000000B0
:100450000000000000F8FFFFFFFF3F070100000061
:100460000000000000E0F0F8FCFEFEFEFEFFFFFFD3
:10047000FFFEFEFEFEFEFCFCFCF8F8F000000000B3
:10048000000000000000FFFFFFFFFFFFFFFF3F1F16
:100490000F0F07070303030101010101010101011E
:1004A00001010101010303030307070E000000001F
:1004B00000000000001FFFFFFFFFFFFFFFFFFFFF27
:1004C000FFFFFFFFFFFFFFFFFFFFFFFFFFFFFFFF3C
:1004D000FFFFFFFFFFFFFFFFFEF8E000000000004E
:1004E0000000030F7FFFFFFFFFFFFFFFFFFFFEFE88
:1004F000FEFEFEFEFEFEFEFCFCFCFCFCFCFCF8F836
:10050000F8F0F0E0E0C08000000000000103071FE9
:100510003FFFFFFFFFFFFFFFFFFFFFFFFFFF0303A3
:100520000303030303030303030303030303070793
:1005300007070F0F0F1F1F3F3F7FFFFFFFFFFFFF4B
:10054000FFFFFFFFFFFFFFFFFFFFFFFFFFFFFCF8C5
:10055000F0E0E0C0C08080800000000000010101E8
:100560000101000000000000808080C0C0E0E0F0D9
:10057000F8FEFFFFFFFFFFFFFFFFFFF0800000001E
:1005800000000000000F3F7F7FFFFFFFFFFFFFFF26
:10059000FFFFFFFFFFFF7F7F3F0F00000000000015
:1005A000000000E0FFFFFFFFFFFFFF1F030100004F
:1005B0000000000000C0F0F8FCFEFEFFFFFFFFFFA0
:1005C000FFFFFFFFFFFEFCF8F0C00000000000008E
:1005D0000001073FFFFFFFFFFFFFFFFFFFFF7F3F20
:1005E0001F0F0F0703020000000000000080C0C0C2
:1005F000C0C0808000000000000206070F1F3F7F80
:10060000FFFFFFFFFFFFFFFFFFFFFFFFFEFCF0E02C
:10061000E0C08000000000010103070F0F1F1F1F33
:100620001F0F0F0703030100000000000080C0E05F
:10063000F0F8FCFFFFFFFFFFFFFFE080000000007D
:10064000000000000F3FFFFFFFFFFFFFFFFFFFFF66
:10065000FFFFFFFFFFFFFFFF7F3F070000000000DD
:1006600000000000C0FFFFFFFFFF0F0100000000BF
:1006700000000000C0F0F8F8FCFEFEFEFEFFFFFFE9
:10068000FFFFFEFEFEFEFCFCF8F0C00000000000D4
:10069000000001031FFFFFFFFFFFFFFFFF7F3F1F62
:1006A0000F0F07070303030101010101010101010C
:1006B000010101010101010303030707070F1F1FC8
:1006C0003F7FFFFFFFFFFFFFFFFF00000000000074
:1006D000000000000000000000000000000000001A
:1006E000000000000000000000000000000000000A
:1006F0000000000000FFFFFFFFFFFFFFFFFFFFFF05
:10070000FFFFFFFFFFFFFFFFFFFFFFFFFFFFFFFFF9
:10071000FFFFFFFFFFFFFFFEF8E08000000000008A
:100720000001073FFFFFFFFFFFFFFFFFFFFFFFFF8E
:10073000FFFFFFFFFFFFFFFFFFFFFFFFFFFFFFFFC9
:10074000FFFFFFFEF8E08000000000000001071F2F
:100750007FFFFFFFFFFFFFFFFFFFFFFFFFFFFFFF29
:10076000FFFFFFFFFFFFFFFFFFFFFFFFFFFFFFFE9A
:10077000F8E08000000000000001071F7FFFFFFF7E
:10078000FFFFFFFFFFFFFFFFFFFFFFFFFFFFFFFF79
:10079000FFFFFFFFFFFFFFFFFFFFFFFCF8E0800010
:1007A000000000000001071F7FFFFFFFFFFFFFFFAA
:1007B000FFFFFFFFFFFFFFFFFFFFFFFFFFFFFFFF49
:1007C000FFFFFFFFFFFFFFFCF0C000000000000084
:1007D0000000031F7FFFFFFFFFFFFFFFFFFFFFFF83
:1007E000FFFFFFFFFFFFFFFFFFFFFFFFFFFFFFFF19
:1007F000FFFFFFFCF0C00000000000000000030F3E
:100800003FFFFFFFFFFFFFFFFFFFFFFFFFFFFFFFB8
:10081000FFFFFFFFFFFFFFFFFFFFFFFFFFFFFFFFE8
:10082000F7C70707070707070707070F3FFFFFFF80
:10083000FFFFFFFFFFFFFFFFFFFFFFFFFFFFFFFFC8
:10084000FFFFFFFFFFFFFFFFFFFFFFFFFFFFFFFFB8
:10085000FFFFFFFEFCF8F8F0E0E0C0C0C080808041
:1008600080000000000000010101010101010101FF
:1008700001FFFFFFFFFFFFFFFFFFFFFFFFFFF8F09C
:10088000C08000000000000103070F1F1F3F7F7F93
:100890007FFFFFFFFFFFFFFFFFFFFFFFFFFFFFFFE8
:1008A000FFFFFFFFFFFFFFFFFFFFFFF8C00000009B
:1008B00000000000011F7FFFFFFFFFFEFEFEFEFEA7
:1008C000FEFEFEFEFEFEFEFEFEFFFFFFFFFFFFFF41
:1008D000FFFFFFFFFFFFFFFFFFFFE0000000000042
:1008E00000000000C0808000000001010101010340
:1008F0000303030101010000000000008080C0E04C
:10090000E0F0FCFEFFFFFFFFFFFF00000000000023
:10091000000000003F7F7FFFFFFFFFFFFFFFFFFFA3
:10092000FFFFFFFFFFFFFFFF7F3F1F0300000000EF
:100930000000000080F8FFFFFFFF3F010000000003
:1009400000000000C0FEFFFFFFFFFFFFFFFFFFFFF3
:10095000FFFFFFFFFFFFFFFFFFFFFFFC00000000A6
:10096000000000000003FFFFFFFFFFFF3F0F030039
:1009700000000000000080E0F0F8F8FCFCFCFCFE49
:10098000FEFEFCFCFCFCF8F0E0C080000000000073
:100990000003071F7FFFFFFFFFFFFFFFFFFFFFFFBA
:1009A0007F3F1F1F0F0F0707070303030303030303
:1009B000030303030303030707070F0F1F3F3F7FD3
:1009C000FFFFFFFFFFFFFFFFFFFF00000000000031
:1009D000000000010101010101010101010101010A
:1009E000010101010101010101010101FFFFFFFFFF
:1009F000FFFFFFFFFFFFFFFFFFFF00000000000001
:100A0000000000FFFFFFFFFFFFFFFFFFFFFFFFFFF3
:100A1000FFFFFFFFFFFFFFFFFFFFFFFFFFFFFFFFE6
:100A2000FFFFFFFFFFFFFFFFFFFF000000000000D0
:100A3000000000FFFFFFFFFFFFFFFFFFFFFFFFFFC3
:100A4000FFFFFFFFFFFFFFFFFFFFFFFFFFFFFFFFB6
:100A5000FFFFFFFFFFFFFFFFFFFF0101010101019A
:100A6000010101010101010101000000000000007D
:100A700000808080C0C0C0E0E0F0F8FCFEFFFFFF17
:100A8000FFFFFFFFFFFFFFFFFFFFFFFFFFFFFFFF76
:100A9000FFFFFFFFFFFFFFFFFFFFFFFFFFFFFF7FE6
:100AA0007F3F1F0F07000000000000000080E0FFF4
:100AB000FFFFFFFFFFFFFFFFFFFFFFFFFFFFFFFF46
:100AC000FFFFFFFFFFFFFFFFFFFFFFFFFFFFFFFF36
:100AD000FFFFFFFFFE00000000000000000000FF1D
:100AE000FFFFFFFFFFFFFFFFFFFFFCFCFCFCFCFC28
:100AF000FCFCFEFEFEFEFEFEFCFCFCFCFCF8F8F03E
:100B0000F0E0C08000000000000103070F3FFFFF7E
:100B1000FFFFFFFFFFFFFFFFFFFF030303030303CD
:100B20000303030303030303030303030307070789
:100B3000070F0F1F1F3F3F7FFFFFFFFFFFFFFFFF5D
:100B4000FFFFFFFFFFFFFFFFFFFFFFFFFFFFFFFFB5
:100B5000FFFFFFFFFFFFFFFFFFFFFFFFFFFFFFFCA8
:100B6000F8E080000000000000000000000000002D
:100B700000FFFFFFFFFFFFFFFFFFFFFFFFFFFFFF84
:100B8000FFFFFFFFFFFFFFFFFFFEFCF0E080000024
:100B900000000001030F1F00000000000000000023
:100BA00000FFFFFFFFFFFFFFFFFFFFFFFFFFFFFF54
:100BB000FFFFFFFFFEFCF0E08000000000000107E7
:100BC0000F3F7FFFFFFFFF0000000000000000005C
:100BD00000FFFFFFFFFFFFFFFFFFFFFFFFFFFFFE25
:100BE000FCF0C080000000000001070F3F7FFFFF06
:100BF000FFFFFFFFFFFFFF000000000000000000FC
:100C000000FFFFFFFFFFFFFFFFFFFEF8F0C08000C7
:100C10000000000001071F3FFFFFFFFFFFFFFFFF76
:100C2000FFFFFFFFFFFFFF000000000000000000CB
:100C300000FFFFFFFFFFFFFFFFFF000000000000BD
:100C40000000008080808080808080808080808024
:100C50008080808080808000000000000000000014
:100C600000808080808080808080FFFFFFFFFFFF0A
:100C7000FFFFFFFFFFFFFFFFFFFFFFFFFFFFFFFF84
:100C8000FFFFFFFFFFFFFF0000000000000000006B
:100C900000FFFFFFFFFFFFFFFFFFFFFFFFFFFFFF63
:100CA000FFFFFFFFFFFFFFFFFFFFFFFFFFFFFFFF54
:100CB000FFFFFFFFFFFFFF070707070707070707FC
:100CC00007FFFFFFFFFFFFFFFFFFFFC08080808067
:100CD000000000000000010101010100000000000F
:100CE0000000808080C0C0E0F0F0F8FEFFFFFFFF52
:100CF000FFFFFFFFFFFFFFFFFFFFFF7F7F7F7FFF04
:100D0000FFFFFFFFFFFFFFFFFFFFFFFFFFFFFF7F73
:100D10007F3F1F07000000000000000000E0FFFF11
:100D2000FFFFFFFFFFFFFFFFFFFFFFFFFFFFFFFFD3
:100D3000FFFFFFFFFFFFFFFFFFFFFFFFFFFFFFFFC3
:100D4000FFFEFCF00000000000000000031FFFFF9A
:100D5000FFFFFFFFFFFFFFFFFFFFFFFFFFFFFFFFA3
:100D6000E0E0E0E0E0E0E0E0E0E0C0C0C0C08080C3
:100D70000000000000040C0C1E3E7FFFFFFFFFFF81
:100D8000FFFFFFFFFFFFFFFFFFFFFFFFFFFFFFFF73
:100D90003F3F3F3F3F3F3F3F3F3F3F1F1F1F1F1F03
:100DA0000F0F07070301000000000080C0E0F0F80B
:100DB000FFFFFFFFFFFFFFFFFFFFFFFFFFFFFFFF43
:100DC000FFFFFFFFFFFFFFFFFFFFFFFFFFFFFFFF33
:100DD000FFFFFFFFFFFF7F0000000000000000009A
:100DE00000FFFFFFFFFFFFFFFFFFFEFEFEFEFEFE18
:100DF000FEFEFFFFFFFFFFFFFFFEFEFEFEFEFEFC0E
:100E0000FCFCF8F0E0C00000000000000103071F38
:100E1000FFFFFFFFFFFFFFFFFFFF010101010101D6
:100E200001010101010101010101010101010103B0
:100E300003030307070F0F1F1F3F7FFFFFFFFFFF86
:100E4000FFFFFFFFFFFFFFFFFFFFFFFEFCF8F0F0DB
:100E5000E0C0C080808000000000000101010000AF
:100E600000000000808080C0C0E0F0F0FCFEFFFFCA
:100E7000FFFFFFFFFFFFFFFFFFFFFF7F3F1F070792
:100E8000070F1F1F3F7F7FFFFFFFFFFFFFFFFFFFDA
:100E9000FF7F7F3F1F07000000000000000000C030
:100EA000FCFFFFFFFFFFFFFFFFFFFFFFFFFFFFFF55
:100EB000FFFFFFFFFFFFFFFFFFFFFFFFFFFFFFFF42
:100EC000FFFFFFFFFFFF0000000000000000000028
:100ED00003FFFFFFFFFFFFFFFFFFFFFFFFFFFFFF1E
:100EE000FFFFFFFFFFFFFFFFFFFFFFFFFFFFFFFF12
:100EF000FFFEFCF0E08000000000000001070F7F13
:100F0000FFFFFFFFFFFFFFFFFFFFFFFFFFFFFFFFF1
:100F1000FFFFFFFFFFFFFFFFFFFEFCF8F0E0C080D8
:100F200000000000000103070F1F3FFFFFFFFFFF4E
:100F3000FFFFFFFFFFFFFFFFFFFFFFFFFFFFFFFFC1
:100F4000FFFEFCF8F0E0C080000000000001030795
:100F50000F1F3F7FFFFFFFFFFFFFFFFFFFFFFFFFB1
:100F6000FFFFFFFFFFFFFFFFFFFFFCF8F0E0C08087
:100F700000000000000000040C1C3C7CFCFCFCFC9D
:100F8000FCFCFCFCFCFCFCFCFCFCFCFCFCFCFCFCA1
:100F9000FCFCFCFCFFFFFFFFFFFF03030303030355
:100FA0000303030303030303030303030303030311
:100FB0000303030303030303030303030303030301
:100FC00003030303FFFFFFFFFFFFFFFFFFFFFEFE23
:100FD000FCFCF8F8F0F0E0E0C0C080800000000009
:100FE000000000000000FFFFFFFFFFFFFFFFFFFF0B
:100FF000FFFFFFFFFFFFFFFFFFFF8F8300000000E9
:101000000001010307070F1F1F3F3F000000000002
:10101000000000000000FFFFFFFFFFFFFFFFFFFFDA
:10102000FFFFFFFFFFFFFFFFFFFFFFFF7F7F7FFF50
:10103000FFFFFFFFFFFFFFFFFFFFFF0000000000BB
:10104000000000000000FFFFFFFFFFFFFFFFFFFFAA
:10105000FFFFFFFFFFFFFFFFFFFFFFFFFFFFFFFFA0
:10106000FFFFFFFFFFFFFFFFFFFFFF00000000008B
:10107000000000000000FFFFFFFFFFFFFFFFFFFF7A
:10108000FFFFFFFFFFFFFFFFFFFFFFFFFFFFFFFF70
:10109000FFFFFFFFFFFFFFFFFFFFFF00000000005B
:1010A000000000000000FFFFFFFFFFFFFFFFFFFF4A
:1010B000FFFFFFFFFFFFFFFFFFFFFFFFFFFFFFFF40
:1010C000FFFFFFFFFFFFFFFFFFFFFF00000000002B
:1010D000000000000000FFFFFFFFFFFFFFFFFFFF1A
:1010E000FFFFFFFFFFFFFFFFFFFFFFFFF8F8F8F82C
:1010F000F8F8F8F8F8F8F8F8F8F8F8000000000048
:10110000000000000000F8F8F8F8F8F8F8F8F8F82F
:10111000F8F8F8F8FFFFFFFFFFFFFFFF07070707DB
:10112000070707070707070707070707070707074F
:10113000070707070707070707070707070707073F
:1011400007070707FFFFFFFFFFFFFFFFFFFFFFFF8F
:10115000FEFCF8F0E0C0C0808080000000000001CC
:1011600001010000000000008080C0C0E0E0F0F855
:10117000FCFEFFFFFFFFFFFFFFFFFFFFFCE0C000E3
:10118000000000000000030F1F3F7F7FFFFFFFFFF5
:10119000FFFFFFFFFF7F7F3F1F0F030000000000E6
:1011A000000080E0F8FEFFFFFFFFF00000000000FD
:1011B000000000001FFFFFFFFFFFFFFFFFFFFFFF1B
:1011C000FFFFFFFFFFFFFFFFFFFFFFFF1F0000000C
:1011D000000000000000E0FFFFFF00000000000032
:1011E0000000007FFFFFFFFFFFFFFFFFFFFFFFFF8C
:1011F000FFFFFFFFFFFFFFFFFFFFFFFFFF7F00007D
:1012000000000000000000FFFFFF000000000000E1
:10121000000000FEFFFFFFFFFFFFFFFFFFFFFFFFDC
:10122000FFFFFFFFFFFFFFFFFFFFFFFFFFFE0000CD
:1012300000000000000000FFFFFF0F0000000000A2
:1012400000000000F8FEFFFFFFFFFFFFFFFFFFFFB2
:10125000FFFFFFFFFFFFFFFFFFFFFFFEF8000000A3
:101260000000000000011FFFFFFFFFFF3F0F030012
:1012700000000000000080E0F0F8FCFCFEFEFEFF35
:10128000FFFFFEFEFEFCFCF8F0E080000000000026
:101290000001070F3FFFFFFFFFFFFFFFFFFFFFFF03
:1012A0007F3F1F0F0F070703030301010101010126
:1012B0000101010101010103030307070F1F3F7F24
:1012C000FFFFFFFFFFFFFFFFFFFFFFFFFFFFFFFF2E
:1012D000FFFFFFFFFFFFFFFFFFFFFFFFFFFFFFFF1E
:1012E000FFFFFFFFFFFFFFFFFFFFFFFFFFFFFFFF0E
:1012F000FFFFFFFFFFFFFFFFFFFFFFFFFFFFFFFFFE
:10130000FFFFFFFFFFFFFFFFFFFFFFFFFFFFFFFFED
:10131000FFFFFFFFFFFFFFFFFFFFFFFFFFFFFFFFDD
:10132000FFFFFFFFFFFFFFFFFFFFFFFFFFFFFFFFCD
:10133000FFFFFFFFFFFFFFFFFFFFFFFFFFFFFFFFBD
:10134000FFFFFFFFFFFFFFFFFFFFFFFFFFFFFFFFAD
:10135000FFFFFFFFFFFFFFFFFFFFFFFFFFFFFFFF9D
:10136000FFFFFFFFFFFFFFFFFFFFFFFFFFFFFFFF8D
:10137000FFFFFFFFFFFFFFFFFFFFFFFFFFFFFFFF7D
:10138000FFFFFFFFFFFFFFFFFFFFFFFFFFFFFFFF6D
:10139000FFFFFFFFFFFFFFFFFFFFFFFFFFFFFFFF5D
:1013A000FFFFFFFFFFFFFFFFFFFFFFFFFFFFFFFF4D
:1013B000FFFFFFFFFFFFFFFFFFFFFFFFFFFFFFFF3D
:1013C000FFFFFFFFFFFFFFFFFFFFFFFFFFFFFFFF2D
:1013D000FFFFFFFFFFFFFFFFFFFFFFFFFFFFFFFF1D
:1013E000FFFFFFFFFFFFFFFFFFFFFFFFFFFFFFFF0D
:1013F000FFFFFFFFFFFFFFFFFFFFFFFFFFFFFFFFFD
:10140000FFFFFFFFFFFFFFFFFFFFFFFFFFFFFFFFEC
:10141000FFFFFFFFFFFFFFFFFFFFFFFFFFFFFFFFDC
:10142000FFFFFFFFFFFFFFFFFFFFFFFFFFFFFFFFCC
:10143000FFFFFFFFFFFFFFFFFFFFFFFFFFFFFFFFBC
:10144000FFFFFFFFFFFFFFFFFFFFFFFFFFFFFFFFAC
:10145000FFFFFFFFFFFFFFFFFFFFFFFFFFFFFFFF9C
:10146000FFFFFFFFFFFFFFFFFFFFFFFFFEFDFBFB97
:10147000FBF7F7F7F7FBFBFDFEFFFFFFFFFFFFFEAC
:10148000FDFBFBF7F7F7F7FBFBFBFDFEFFFFFFFFA5
:10149000FFFFFFFFFFFFFFFFFFFFFFFFFFFFFFFF5C
:1014A000FFFFFFFFFFFFFFFFFFFFFFFFFFFFFFFF4C
:1014B000FFFFFFFFFFFFFFFFFFFFFFFFFFFFFFFF3C
:1014C000FFFFFFFFFFFFFFFFFFFFFFFFFFFFFFFF2C
:1014D000FFFFFFFFFFFFFFFFFFFFFFFFFFFFFFFF1C
:1014E000FFFFFFFFFFFFFFFFFFFFFFFFFFFFFFFF0C
:1014F000FFFFFFFFFFFFFFFFFFFFFFFFFFFFFFFFFC
:10150000FFFFFFFFFFFFFFFFFFFFFFFFFFFFFFFFEB
:10151000FFFFFFFFFFFFFFFFFFFFFFFFFFFFFFFFDB
:10152000FFFFFFFFFFFFFFFFFFFFFFFFFFFFFFFFCB
:10153000FFFFFFFFFFFFFFFFFFFFFFFFFFFFFFFFBB
:10154000FFFFFFFFFFFFFFFFFFFFFFFFFFFFFFFFAB
:10155000FFFFFFFFFFFFFFFFFFFFFFFFFFFFFFFF9B
:10156000FFFFFFFFFFFFFFFFFFFFFFFFFFFFFFFF8B
:10157000FFFFFFFFFFFFFFFFFFFFFFFFFFFFFFFF7B
:10158000FFFFFFFFFFFFFFFFFFFFFFFFFFFFFFFE6C
:10159000F9E79F7FFFFFFFFFFFFFFFFFFFFFFFFF59
:1015A000FF7F9FEFEF9F7FFFFFFFFFFFFFFFFFFF2B
:1015B000FFFFFFFF7F9FE7F9FEFFFFFFFFFFFFFF3A
:1015C000FFFFFFFFFFFFFFFFFFFFFFFFFFFFFFFF2B
:1015D000FFFFFFFFFFFFFFFFFFFFFFFFFFFFFFFF1B
:1015E000FFFFFFFFFFFFFFFFFFFFFFFFFFFFFFFF0B
:1015F000FFFFFFFFFFFFFFFFFFFFFFFFFFFFFFFFFB
:10160000FFFFFFFFFFFFFFFFFFFFFFFFFFFFFFFFEA
:10161000FFFFFFFFFFFFFFFFFFFFFFFFFFFFFFFFDA
:10162000FFFFFFFFFFFFFFFFFFFFFFFFFFFFFFFFCA
:10163000FFFFFFFFFFFFFFFFFFFFFFFFFFFFFFFFBA
:10164000FFFFFFFFFFFFFFFFFFFFFFFFFFFFFFFFAA
:10165000FFFFFFFFFFFFFFFFFFFFFFFFFFFFFFFF9A
:10166000FFFFFFFFFFFFFFFFFFFFFFFFFFFFFFFF8A
:10167000FFFFFFFFFFFFFFFFFFFFFFFFFFFFFFFF7A
:10168000FFFFFFFFFFFFFFFFFFFFFFFFFFFFFFFF6A
:10169000FFFFFFFFFFFFFFFFFFFFFFFFFFFFFFFF5A
:1016A000FFFFFFFFFFFFFFFFFFFFFFFFFFFFFFFF4A
:1016B000FFFFFFFFFFFFE01FFFFFFFFFFFFFFFFF39
:1016C000FFFFFFFFFFFFFFFFFFFFFFFFFFFFFFFF2A
:1016D000FFFFFFFFFFFFFFFFFFFFFFFFFFFFFFFF1A
:1016E0001FE0FFFFFFFFFFFFFFFFFFFFFFFFFFFF09
:1016F000FFFFFFFFFFFFFFFFFFFFFFFFFFFFFFFFFA
:10170000FFFFFFFFFFFFFFFFFFFFFFFFFFFFFFFFE9
:10171000FFFFFFFFFFFFFFFFFFFFFFFFFFFFFFFFD9
:10172000FFFFFFFFFFFFFFFFFFFFFFFFFFFFFFFFC9
:10173000FFFFFFFFFFFFFFFFFFFFFFFFFFFFFFFFB9
:10174000FFFFFFFFFFFFFFFFFFFFFFFFFFFFFFFFA9
:10175000FFFFFFFFFFFFFFFFFFFFFFFFFFFFFFFF99
:10176000FFFFFFFFFFFFFFFFFFFFFFFFFFFFFFFF89
:10177000FFFFFFFFFFFFFFFFFFFFFFFFFFFFFFFF79
:10178000FFFFFFFFFFFFFFFFFFFFFFFFFFFFFFFF69
:10179000FFFFFFFFFFFFFFFFFFFFFFFFFFFFFFFF59
:1017A000FFFFFFFFFFFFFFFFFFFFFFFFFFFFFFFF49
:1017B000FFFFFFFFFFFFFFFFFFFFFFFFFFFFFFFF39
:1017C000FFFFFFFFFFFFFFFFFFFFFFFFFFFFFFFF29
:1017D000FFFFFFFFFFFFFFFFFFFFFFFFFFCF30FF18
:1017E000FFFFFFFFFFFFFFFFFFFFFFFFFFFFFFFF09
:1017F000FFFFFFFFFFFFFFFFFFFFFFFFFFFFFFFFF9
:10180000FFFFFFFFFFFFFFFFFF30CFFFFFFFFFFFE7
:10181000FFFFFFFFFFFFFFFFFFFFFFFFFFFFFFFFD8
:10182000FFFFFFFFFFFFFFFFFFFFFFFFFFFFFFFFC8
:10183000FFFFFFFFFFFFFFFFFFFFFFFFFFFFFFFFB8
:10184000FFFFFFFFFFFFFFFFFFFFFFFFFFFFFFFFA8
:10185000FFFFFFFFFFFFFFFFFFFFFFFFFFFFFFFF98
:10186000FFFFFFFFFFFFFFFFFFFFFFFFFFFFFFFF88
:10187000FFFFFFFFFFFFFFFFFFFFFFFFFFFFFFFF78
:10188000FFFFFFFFFFFFFFFFFFFFFFFFFFFFFFFF68
:10189000FFFFFFFFFFFFFFFFFFFFFFFFFFFFFFFF58
:1018A000FFFFFFFFFFFFFFFFFFFFFFFFFFFFFFFF48
:1018B000FFFFFFFFFFFFFFFFFFFFFFFFFFFFFFFF38
:1018C000FFFFFFFFFFFFFFFFFFFFFFFFFFFFFFFF28
:1018D000FFFFFFFFFFFFFFFFFFFFFFFFFFFFFFFF18
:1018E000FFFFFFFFFFFFFFFFFFFFFFFFFFFFFFFF08
:1018F000FFFFFFFFFFFFFFFFFFFFFFFFFFFFFFFFF8
:10190000FFFFFFFFFFFF0FF0FFFFFFFFFFFFFFFFE6
:10191000FFFFFFFFFFFFFFFFFFFFFFFFFFFFFFFFD7
:10192000FFFFFFFFFFFFFFFFFFFFFFFFFFFFFFFFC7
:10193000F00FFFFFFFFFFFFFFFFFFFFFFFFFFFFFB6
:10194000FFFFFFFFFFFFFFFFFFFFFFFFFFFFFFFFA7
:10195000FFFFFFFFFFFFFFFFFFFFFFFFFFFFFFFF97
:10196000FFFFFFFFFFFFFFFFFFFFFFFFFFFFFFFF87
:10197000FFFFFFFFFFFFFFFFFFFFFFFFFFFFFFFF77
:10198000FFFFFFFFFFFFFFFFFFFFFFFFFFFFFFFF67
:10199000FFFFFFFFFFFFFFFFFFFFFFFFFFFFFFFF57
:1019A000FFFFFFFFFFFFFFFFFFFFFFFFFFFFFFFF47
:1019B000FFFFFFFFFFFFFFFFFFFFFFFFFFFFFFFF37
:1019C000FFFFFFFFFFFFFFFFFFFFFFFFFFFFFFFF27
:1019D000FFFFFFFFFFFFFFFFFFFFFFFFFFFFFFFF17
:1019E000FFFFFFFFFFFFFFFFFFFFFFFFFFFFFFFF07
:1019F000FFFFFFFFFFFFFFFFFFFFFFFFFFFFFFFFF7
:101A0000FFFFFFFFFFFFFFFFFFFFFFFFFFFFFFFFE6
:101A1000FFFFFFFFFFFFFFFFFFFFFFFFFFFFFFFFD6
:101A2000FFFFFFFFFFFFFFFFFFFFFFFFFFFFFFFFC6
:101A30001FE3FCFFFFFFFFFFFFFFFFFFFFFFFFFFB5
:101A4000FFFFFFFFFFFFFFFFFFFFFFFFFFFFFFFFA6
:101A5000FFFFFFFFFFFCE31FFFFFFFFFFFFFFFFF95
:101A6000FFFFFFFFFFFFFFFFFFFFFFFFFFFFFFFF86
:101A7000FFFFFFFFFFFFFFFFFFFFFFFFFFFFFFFF76
:101A8000FFFFFFFFFFFFFFFFFFFFFFFFFFFFFFFF66
:101A9000FFFFFFFFFFFFFFFFFFFFFFFFFFFFFFFF56
:101AA000FFFFFFFFFFFFFFFFFFFFFFFFFFFFFFFF46
:101AB000FFFFFFFFFFFFFFFFFFFFFFFFFFFFFFFF36
:101AC000FFFFFFFFFFFFFFFFFFFFFFFFFFFFFFFF26
:101AD000FFFFFFFFFFFFFFFFFFFFFFFFFFFFFFFF16
:101AE000FFFFFFFFFFFFFFFFFFFFFFFFFFFFFFFF06
:101AF000FFFFFFFFFFFFFFFFFFFFFFFFFFFFFFFFF6
:101B0000FFFFFFFFFFFFFFFFFFFFFFFFFFFFFFFFE5
:101B1000FFFFFFFFFFFFFFFFFFFFFFFFFFFFFFFFD5
:101B2000FFFFFFFFFFFFFFFFFFFFFFFFFFFFFFFFC5
:101B3000FFFFFFFFFFFFFFFFFFFFFFFFFFFFFFFFB5
:101B4000FFFFFFFFFFFFFFFFFFFFFFFFFFFFFFFFA5
:101B5000FFFFFFFFFFFFFFFFFFFF7F9FE7F9FEFF94
:101B6000FFFFFFFFFFFFFFFFFFFFFFFFFFFFFFFF85
:101B7000FFFFFFFFFFFFFFFFFFFEF9E79F7FFFFF74
:101B8000FFFFFFFFFFFFFFFFFFFFFFFFFFFFFFFF65
:101B9000FFFFFFFFFFFFFFFFFFFFFFFFFFFFFFFF55
:101BA000FFFFFFFFFFFFFFFFFFFFFFFFFFFFFFFF45
:101BB000FFFFFFFFFFFFFFFFFFFFFFFFFFFFFFFF35
:101BC000FFFFFFFFFFFFFFFFFFFFFFFFFFFFFFFF25
:101BD000FFFFFFFFFFFFFFFFFFFFFFFFFFFFFFFF15
:101BE000FFFFFFFFFFFFFFFFFFFFFFFFFFFFFFFF05
:101BF000FFFFFFFFFFFFFFFFFFFFFFFFFFFFFFFFF5
:101C0000FFFFFFFFFFFFFFFFFFFFFFFFFFFFFFFFE4
:101C1000FFFFFFFFFFFFFFFFFFFFFFFFFFFFFFFFD4
:101C2000FFFFFFFFFFFFFFFFFFFFFFFFFFFFFFFFC4
:101C3000FFFFFFFFFFFFFFFFFFFFFFFFFFFFFFFFB4
:101C4000FFFFFFFFFFFFFFFFFFFFFFFFFFFFFFFFA4
:101C5000FFFFFFFFFFFFFFFFFFFFFFFFFFFFFFFF94
:101C6000FFFFFFFFFFFFFFFFFFFFFFFFFFFFFFFF84
:101C7000FFFFFFFFFFFFFFFFFFFFFFFFFFFFFFFF74
:101C8000FFFFFFFFFFFF7FBFCFF7F9FEFFFFFFFF63
:101C9000FFFFFFFFFFFFFFFFFFFFFFFFFEF9F7CF93
:101CA000BF7FFFFFFFFFFFFFFFFFFFFFFFFFFFFF04
:101CB000FFFFFFFFFFFFFFFFFFFFFFFFFFFFFFFF34
:101CC000FFFFFFFFFFFFFFFFFFFFFFFFFFFFFFFF24
:101CD000FFFFFFFFFFFFFFFFFFFFFFFFFFFFFFFF14
:101CE000FFFFFFFFFFFFFFFFFFFFFFFFFFFFFFFF04
:101CF000FFFFFFFFFFFFFFFFFFFFFFFFFFFFFFFFF4
:101D0000FFFFFFFFFFFFFFFFFFFFFFFFFFFFFFFFE3
:101D1000FFFFFFFFFFFFFFFFFFFFFFFFFFFFFFFFD3
:101D2000FFFFFFFFFFFFFFFFFFFFFFFFFFFFFFFFC3
:101D3000FFFFFFFFFFFFFFFFFFFFFFFFFFFFFFFFB3
:101D4000FFFFFFFFFFFFFFFFFFFFFFFFFFFFFFFFA3
:101D5000FFFFFFFFFFFFFFFFFFFFFFFFFFFFFFFF93
:101D6000FFFFFFFFFFFFFFFFFFFFFFFFFFFFFFFF83
:101D7000FFFFFFFFFFFFFFFFFFFFFFFFFFFFFFFF73
:101D8000FFFFFFFFFFFFFFFFFFFFFFFFFFFFFFFF63
:101D9000FFFFFFFFFFFFFFFFFFFFFFFFFFFFFFFF53
:101DA000FFFFFFFFFFFFFFFFFFFFFFFFFFFFFFFF43
:101DB000FFFFFFFF3FDFEFF7F9FEFFFFFFFFFEF939
:101DC000F7EFDF3FFFFFFFFFFFFFFFFFFFFFFFFF1B
:101DD000FFFFFFFFFFFFFFFFFFFFFFFFFFFFFFFF13
:101DE000FFFFFFFFFFFFFFFFFFFFFFFFFFFFFFFF03
:101DF000FFFFFFFFFFFFFFFFFFFFFFFFFFFFFFFFF3
:101E0000FFFFFFFFFFFFFFFFFFFFFFFFFFFFFFFFE2
:101E1000FFFFFFFFFFFFFFFFFFFFFFFFFFFFFFFFD2
:101E2000FFFFFFFFFFFFFFFFFFFFFFFFFFFFFFFFC2
:101E3000FFFFFFFFFFFFFFFFFFFFFFFFFFFFFFFFB2
:101E4000FFFFFFFFFFFFFFFFFFFFFFFFFFFFFFFFA2
:101E5000FFFFFFFFFFFFFFFFFFFFFFFFFFFFFFFF92
:101E6000FFFFFFFFFFFFFFFFFFFFFFFFFFFFFFFF82
:101E7000FFFFFFFFFFFFFFFFFFFFFFFFFFFFFFFF72
:101E8000FFFFFFFFFFFFFFFFFFFFFFFFFFFFFFFF62
:101E9000FFFFFFFFFFFFFFFFFFFFFFFFFFFFFFFF52
:101EA000FFFFFFFFFFFFFFFFFFFFFFFFFFFFFFFF42
:101EB000FFFFFFFFFFFFFFFFFFFFFFFFFFFFFFFF32
:101EC000FFFFFFFFFFFFFFFFFFFFFFFFFFFFFFFF22
:101ED000FFFFFFFFFFFFFFFFFFFFFFFFFFFFFFFF12
:101EE000FFFF7FBFBF7FFFFFFFFFFFFFFFFFFFFF82
:101EF000FFFFFFFFFFFFFFFFFFFFFFFFFFFFFFFFF2
:101F0000FFFFFFFFFFFFFFFFFFFFFFFFFFFFFFFFE1
:101F1000FFFFFFFFFFFFFFFFFFFFFFFFFFFFFFFFD1
:101F2000FFFFFFFFFFFFFFFFFFFFFFFFFFFFFFFFC1
:1025B000FFFFFFFFFEFDFDFDFBFBFBFBFBFBFDFD4E
:1025C000FEFFFFFFFFFFFFFFFFFFFFFFFFFFFFFF1C
:1025D000FFFFFFFFFFFFFFFFFFFFFFFFFFFEFDFB12
:1025E000FBFBF7F7F7F7F7F7FBFBFDFEFFFFFFFF3E
:1025F000FFFFFFFFFFFFFFFFFFFFFFFFFFFFFFFFEB
:10260000FFFFFFFFFFFFFFFFFFFFFFFFFFFFFFFFDA
:10261000FFFFFFFFFFFFFFFFFFFFFFFFFFFFFFFFCA
:10262000FFFFFFFFFFFFFFFFFFFFFFFFFFFFFFFFBA
:10263000FFFFFFFFFFFFFFFFFFFFFFFFFFFFFFFFAA
:10264000FFFFFFFFFFFFFFFFFFFFFFFFFFFFFFFF9A
:10265000FFFFFFFFFFFFFFFFFFFFFFFFFFFFFFFF8A
:10266000FFFFFFFFFFFFFFFFFFFFFFFFFFFFFFFF7A
:10267000FFFFFFFFFFFFFFFFFFFFFFFFFFFFFFFF6A
:10268000FFFFFFFFFFFFFFFFFFFFFFFFFFFFFFFF5A
:10269000FFFFFFFFFFFFFFFFFFFFFFFFFFFFFFFF4A
:1026A000FFFFFFFFFFFFFFFFFFFFFFFFFFFFFFFF3A
:1026B000FFFFFFFFFFFFFFFFFFFFFFFFFFFFFFFF2A
:1026C000FFFFFFFFFFFFFFFFFFFFFFFFFFFFFFFF1A
:1026D000FFFFFFFFFFFFFFFCF3CFBF7FFFFFFFFF09
:1026E000FFFFFFFFFFFFFEF5FA7DBFCFF3FCFFFF0B
:1026F000FFFFFFFFFFFFFFFFFFFFFFFFFFFFFFFFEA
:10270000FCF3CFBF7FFFFFFFFFFFFFFFFFFFFF7F58
:10271000BF5FEFFF7FBFCFF3FCFFFFFFFFFFFFFFB8
:10272000FFFFFFFFFFFFFFFFFFFFFFFFFFFFFFFFB9
:10273000FFFFFFFFFFFFFFFFFFFFFFFFFFFFFFFFA9
:10274000FFFFFFFFFFFFFFFFFFFFFFFFFFFFFFFF99
:10275000FFFFFFFFFFFFFFFFFFFFFFFFFFFFFFFF89
:10276000FFFFFFFFFFFFFFFFFFFFFFFFFFFFFFFF79
:10277000FFFFFFFFFFFFFFFFFFFFFFFFFFFFFFFF69
:10278000FFFFFFFFFFFFFFFFFFFFFFFFFFFFFFFF59
:10279000FFFFFFFFFFFFFFFFFFFFFFFFFFFFFFFF49
:1027A000FFFFFFFFFFFFFFFFFFFFFFFFFFFFFFFF39
:1027B000FFFFFFFFFFFFFFFFFFFFFFFFFFFFFFFF29
:1027C000FFFFFFFFFFFFFFFFFFFFFFFFFFFFFFFF19
:1027D000FFFFFFFFFFFFFFFFFFFFFFFFFFFFFFFF09
:1027E000FFFFFFFFFFFFFFFFFFFFFFFFFFFFFFFFF9
:1027F000FFFFFFFFFFFFFFFFFFFFFFFFFFF00FFFE8
:10280000FFFFFFFFFFFFFFFFFFFFFFFFFFFFFF7F58
:10281000FFFFFFFFFFFF0FF0FFFFFFFFFFFFFFFFC7
:10282000FFFFFFFFFFFFFFC03FFFFFFFFFFFFFFFB7
:10283000FFFFFFFFFFFFFFFFFFFFFFFFFFFFFFFFA8
:102840003FC0FFFFFFFFFFFFFFFFFFFFFFFFFFFF97
:10285000FFFFFFFFFFFFFFFFFFFFFFFFFFFFFFFF88
:10286000FFFFFFFFFFFFFFFFFFFFFFFFFFFFFFFF78
:10287000FFFFFFFFFFFFFFFFFFFFFFFFFFFFFFFF68
:10288000FFFFFFFFFFFFFFFFFFFFFFFFFFFFFFFF58
:10289000FFFFFFFFFFFFFFFFFFFFFFFFFFFFFFFF48
:1028A000FFFFFFFFFFFFFFFFFFFFFFFFFFFFFFFF38
:1028B000FFFFFFFFFFFFFFFFFFFFFFFFFFFFFFFF28
:1028C000FFFFFFFFFFFFFFFFFFFFFFFFFFFFFFFF18
:1028D000FFFFFFFFFFFFFFFFFFFFFFFFFFFFFFFF08
:1028E000FFFFFFFFFFFFFFFFFFFFFFFFFFFFFFFFF8
:1028F000FFFFFFFFFFFFFFFFFFFFFFFFFFFFFFFFE8
:10290000FFFFFFFFFFFFFFFFFFFFFFFFFFFFFFFFD7
:10291000FFFFFFFFFFFFFFFFFFFFFFFFFFFFFFFFC7
:10292000FFFFFFFFFF03FCFFFFFFFFFFFFFFFFFFB6
:10293000FFFFFFFFFFFFFFFFFFFFFFFFFFFFFC03A6
:10294000FFFFFFFFFFFFFFFFFFFFFFFFFFFFFF1F77
:10295000E1FEFFFFFFFFFFFFFFFFFFFFFFFFFFFFA6
:10296000FFFFFFFFFFFFFFFEE11FFFFFFFFFFFFF76
:10297000FFFFFFFFFFFFFFFFFFFFFFFFFFFFFFFF67
:10298000FFFFFFFFFFFFFFFFFFFFFFFFFFFFFFFF57
:10299000FFFFFFFFFFFFFFFFFFFFFFFFFFFFFFFF47
:1029A000FFFFFFFFFFFFFFFFFFFFFFFFFFFFFFFF37
:1029B000FFFFFFFFFFFFFFFFFFFFFFFFFFFFFFFF27
:1029C000FFFFFFFFFFFFFFFFFFFFFFFFFFFFFFFF17
:1029D000FFFFFFFFFFFFFFFFFFFFFFFFFFFFFFFF07
:1029E000FFFFFFFFFFFFFFFFFFFFFFFFFFFFFFFFF7
:1029F000FFFFFFFFFFFFFFFFFFFFFFFFFFFFFFFFE7
:102A0000FFFFFFFFFFFFFFFFFFFFFFFFFFFFFFFFD6
:102A1000FFFFFFFFFFFFFFFFFFFFFFFFFFFFFFFFC6
:102A2000FFFFFFFFFFFFFFFFFFFFFFFFFFFFFFFFB6
:102A3000FFFFFFFFFFFFFFFFFFFFFFFFFFFFFFFFA6
:102A4000FFFFFFFFFFFFFFFFFFFFFFFFFFFF3FC78E
:102A5000FBFCFFFFFFFFFFFFFFFFFFFFFFFFFFFF8D
:102A6000FFFFFFFCF3CF3FFFFFFFFFFFFFFFFFFF75
:102A7000FFFFFFFFFFFFFFFFFF7F9FEFF7FBFDFE65
:102A8000FEFEFFFFFFFFFFFEFEFEFDFBF7EF9F7F59
:102A9000FFFFFFFFFFFFFFFFFFFFFFFFFFFFFFFF46
:102AA000FFFFFFFFFFFFFFFFFFFFFFFFFFFFFFFF36
:102AB000FFFFFFFFFFFFFFFFFFFFFFFFFFFFFFFF26
:102AC000FFFFFFFFFFFFFFFFFFFFFFFFFFFFFFFF16
:102AD000FFFFFFFFFFFFFFFFFFFFFFFFFFFFFFFF06
:102AE000FFFFFFFFFFFFFFFFFFFFFFFFFFFFFFFFF6
:102AF000FFFFFFFFFFFFFFFFFFFFFFFFFFFFFFFFE6
:102B0000FFFFFFFFFFFFFFFFFFFFFFFFFFFFFFFFD5
:102B1000FFFFFFFFFFFFFFFFFFFFFFFFFFFFFFFFC5
:102B2000FFFFFFFFFFFFFFFFFFFFFFFFFFFFFFFFB5
:102B3000FFFFFFFFFFFFFFFFFFFFFFFFFFFFFFFFA5
:102B4000FFFFFFFFFFFFFFFFFFFFFFFFFFFFFFFF95
:102B5000FFFFFFFFFFFFFFFFFFFFFFFFFFFFFFFF85
:102B6000FFFFFFFFFFFFFFFFFFFFFFFFFFFFFFFF75
:102B7000FFFFFFFFFFFFFFFFFFFF7FBFDFDFEFEF85
:102B8000F7F4F3F7F7EFEFEFDFBF7FFFFFFFFFFF94
:102B9000FFFFFFFFFFFFFFFFFFFFFFFFFFFFFFFF45
:102BA000FFFFFFFFFFFFFFFFFFFF7F007F7F7FFF34
:102BB000FFFFFFFFFFFFFFFFFFFFFFFFFFFFFFFF25
:102BC000FFFFFFFFFFFFFFFFFFFFFFFFFFFFFFFF15
:102BD000FFFFFFFFFFFFFFFFFFFFFFFFFFFFFFFF05
:102BE000FFFFFFFFFFFFFFFFFFFFFFFFFFFFFFFFF5
:102BF000FFFFFFFFFFFFFFFFFFFFFFFFFFFFFFFFE5
:102C0000FFFFFFFFFFFFFFFFFFFFFFFFFFFFFFFFD4
:102C1000FFFFFFFFFFFFFFFFFFFFFFFFFFFFFFFFC4
:102C2000FFFFFFFFFFFFFFFFFFFFFFFFFFFFFFFFB4
:102C3000FFFFFFFFFFFFFFFFFFFFFFFFFFFFFFFFA4
:102C4000FFFFFFFFFFFFFFFFFFFFFFFFFFFFFFFF94
:102C5000FFFFFFFFFFFFFFFFFFFFFFFFFFFFFFFF84
:102C6000FFFFFFFFFFFFFFFFFFFFFFFFFFFFFFFF74
:102C7000FFFFFFFFFFFFFFFFFFFFFFFFFFFFFFFF64
:102C8000FFFFFFFFFFFFFFFFFFFFFFFFFFFFFFFF54
:102C9000FFFFFFFFFFFFFFFFFFFFFFFFFFFFFFFF44
:102CA000FFFFFFFFFFFFFFFF807FFFFFFFFFFFFF33
:102CB000FFFFFFFFFFFFFFFFFFFFFFFFFFFFFFFF24
:102CC000FFFFFFFFFFFFFFFFFFFFFFFFFFFFFFFF14
:102CD000FFFFFF03FCFFFFFFFFFFFFFFFFFFFFFF03
:102CE000FFFFFFFFFFFFFFFFFFFFFFFFFFFFFFFFF4
:102CF000FFFFFFFFFFFFFFFFFFFFFFFFFFFFFFFFE4
:102D0000FFFFFFFFFFFFFFFFFFFFFFFFFFFFFFFFD3
:102D1000FFFFFFFFFFFFFFFFFFFFFFFFFFFFFFFFC3
:102D2000FFFFFFFFFFFFFFFFFFFFFFFFFFFFFFFFB3
:102D3000FFFFFFFFFFFFFFFFFFFFFFFFFFFFFFFFA3
:102D4000FFFFFFFFFFFFFFFFFFFFFFFFFFFFFFFF93
:102D5000FFFFFFFFFFFFFFFFFFFFFFFFFFFFFFFF83
:102D6000FFFFFFFFFFFFFFFFFFFFFFFFFFFFFFFF73
:102D7000FFFFFFFFFFFFFFFFFFFFFFFFFFFFFFFF63
:102D8000FFFFFFFFFFFFFFFFFFFFFFFFFFFFFFFF53
:102D9000FFFFFFFFFFFFFFFFFFFFFFFFFFFFFFFF43
:102DA000FFFFFFFFFFFFFFFFFFFFFFFFFFFFFFFF33
:102DB000FFFFFFFFFFFFFFFFFFFFFFFFFFFFFFFF23
:102DC000FFFFFFFFFFFFFFFFFFFFFFFFFFFFFFFF13
:102DD000FF00FFFFFFFFFFFFFFFFFFFFFFFFFFFF02
:102DE000FFFFFFFFFFFFFFFFFFFFFFFFFFFFFFFFF3
:102DF000FFFFFFFFFFFFFFFFFFFFFFFF00FFFFFFE2
:102E0000FFFFFFFFFFFFFFFFFFFFFFFFFFFFFFFFD2
:102E1000FFFFFFFFFFFFFFFFFFFFFFFFFFFFFFFFC2
:102E2000FFFFFFFFFFFFFFFFFFFFFFFFFFFFFFFFB2
:102E3000FFFFFFFFFFFFFFFFFFFFFFFFFFFFFFFFA2
:102E4000FFFFFFFFFFFFFFFFFFFFFFFFFFFFFFFF92
:102E5000FFFFFFFFFFFFFFFFFFFFFFFFFFFFFFFF82
:102E6000FFFFFFFFFFFFFFFFFFFFFFFFFFFFFFFF72
:102E7000FFFFFFFFFFFFFFFFFFFFFFFFFFFFFFFF62
:102E8000FFFFFFFFFFFFFFFFFFFFFFFFFFFFFFFF52
:102E9000FFFFFFFFFFFFFFFFFFFFFFFFFFFFFFFF42
:102EA000FFFFFFFFFFFFFFFFFFFFFFFFFFFFFFFF32
:102EB000FFFFFFFFFFFFFFFFFFFFFFFFFFFFFFFF22
:102EC000FFFFFFFFFFFFFFFFFFFFFFFFFFFFFFFF12
:102ED000FFFFFFFFFFFFFFFFFFFFFFFFFFFFFFFF02
:102EE000FFFFFFFFFFFFFFFFFFFFFFFFFFFFFFFFF2
:102EF000FFFFFFFFFFFFFFFFFFFF03FCFFFFFFFFE1
:102F0000FFFFFFFFFFFFFFFFFFFFFFFFFFFFFFFFD1
:102F1000FFFFFFFFFFFFFFFFFFFFFFFFFFFFFFFFC1
:102F2000FFFFFFFF7F83FFFFFFFFFFFFFFFFFFFFAD
:102F3000FFFFFFFFFFFFFFFFFFFFFFFFFFFFFFFFA1
:102F4000FFFFFFFFFFFFFFFFFFFFFFFFFFFFFFFF91
:102F5000FFFFFFFFFFFFFFFFFFFFFFFFFFFFFFFF81
:102F6000FFFFFFFFFFFFFFFFFFFFFFFFFFFFFFFF71
:102F7000FFFFFFFFFFFFFFFFFFFFFFFFFFFFFFFF61
:102F8000FFFFFFFFFFFFFFFFFFFFFFFFFFFFFFFF51
:102F9000FFFFFFFFFFFFFFFFFFFFFFFFFFFFFFFF41
:102FA000FFFFFFFFFFFFFFFFFFFFFFFFFFFFFFFF31
:102FB000FFFFFFFFFFFFFFFFFFFFFFFFFFFFFFFF21
:102FC000FFFFFFFFFFFFFFFFFFFFFFFFFFFFFFFF11
:102FD000FFFFFFFFFFFFFFFFFFFFFFFFFFFFFFFF01
:102FE000FFFFFFFFFFFFFFFFFFFFFFFFFFFFFFFFF1
:102FF000FFFFFFFFFFFFFFFFFFFFFFFFFFFFFFFFE1
:10300000FFFFFFFFFFFFFFFFFFFFFFFFFFFFFFFFD0
:10301000FFFFFFFFFFFFFFFFFFFFFFFFFFFFFFFFC0
:10302000FFFFFF0FF7FFFFFFFFFFFFFFFFFFFFFFA8
:10303000FFFFFFFFFFFFFFFFFFFFFFFFFFFFFFFFA0
:10304000FFFFFFFFFFFFFFFFFFFFFFFFFFFFFFFF90
:10305000FFFFFFFFFFFFFFFFFFFFFFFFFFFFFFFF80
:10306000FFFFFFFFFFFFFFFFFFFFFFFFFFFFFFFF70
:1037C000FFFFFFFFFFFFFFFFFFFF11241FBECFEF33
:1037D000D8E0DEBFCDBF11E0A0E0B1E0E8E9F3E65C
:1037E00002C005900D92AC36B107D9F721E0ACE6E6
:1037F000B1E001C01D92AF36B207E1F70E94C12DC2
:103800000C94CA310C94000080E002C0815031F069
:103810009091BC0097FFFACF81E0089580E0089571
:1038200094EA9093BC0090E002C0915019F120916D
:10383000BC0027FFFACF2091B900922F917020FD94
:1038400019C08093BB0084E88093BC008091BC00C9
:1038500087FD06C0915071F08091BC0087FFFACFC0
:103860008091B90080FF04C08091B90080FD02C042
:1038700081E0089580E0089584EA8093BC0080E0B0
:1038800002C0815021F19091BC0097FFFACF909136
:10389000B900892F817090FD1AC090ED9093BB0004
:1038A00094E89093BC009091BC0097FD06C08150B5
:1038B00071F09091BC0097FFFACF8091B90080FF22
:1038C00004C08091B90080FD02C081E0089580E0CD
:1038D000089584EA8093BC0080E002C0815021F109
:1038E0009091BC0097FFFACF9091B900892F817019
:1038F00090FD1AC091ED9093BB0094E89093BC00AA
:103900009091BC0097FD06C0815071F09091BC0071
:1039100097FFFACF8091B90080FF04C08091B90071
:1039200080FD02C081E0089580E008958093BB008F
:1039300084E88093BC0080E002C0815051F09091F7
:10394000BC0097FFFACF9091B900987F81E0983240
:1039500009F080E0089520E48202C0011124846807
:103960008093BC0080E002C0815051F09091BC0077
:1039700097FFFACF8091BB00FB01808381E008951F
:1039800080E0089584E98093BC0081E00895FA0105
:1039900024EA2093BC0020E002C0215089F130913C
:1039A000BC0037FFFACF2091B900522F517020FD93
:1039B00027C020ED2093BB0024E82093BC0020E02A
:1039C0003091BC0037FD06C02150D1F03091BC00D1
:1039D00037FFFACF2091B90020FD14C06093BB00DF
:1039E00024E82093BC0020E002C0215049F030912F
:1039F000BC0037FFFACF2091B900287F283239F078
:103A000080E008952091B90020FFE8CFF9CF24E9A4
:103A10002093BC0024EA2093BC0002C0515081F3E3
:103A20002091BC0027FFFACF2091B90020FDE8CFFC
:103A300021ED2093BB0024E82093BC0020E002C0CD
:103A40002150F1F23091BC0037FFFACF2091B9003C
:103A500020FF04C02091B90020FDD2CF309741F162
:103A6000AF0141505109DC0120E030E081E090E0FD
:103A70002417350711F1002496958795079496959C
:103A800087950794982F802D84688093BC0080E0F0
:103A900003C0815009F4B4CF9091BC0097FFF9CFD7
:103AA0008091BB008D932F5F3F4F2E173F07F1F69C
:103AB00084E98093BC0081E0089580E090E0DBCF52
:103AC00024EA2093BC0020E002C0215079F130911B
:103AD000BC0037FFFACF2091B90020FD27C020EDB0
:103AE0002093BB0024E82093BC0020E03091BC0070
:103AF00037FD06C02150D1F03091BC0037FFFACF1E
:103B00002091B90020FD14C06093BB0024E82093ED
:103B1000BC0020E002C0215049F03091BC0037FFCA
:103B2000FACF2091B900287F283239F080E008953B
:103B30002091B90020FFE8CFF9CF41155105C9F018
:103B4000FC01480F591F24E881918093BB0020930A
:103B5000BC0080E002C0815049F39091BC0097FF07
:103B6000FACF8091B900887F883201F74E175F073E
:103B700059F784E98093BC0081E00895CF93DF93E7
:103B80001F92CDB7DEB741E050E060E070E0CE01BB
:103B900001960E94C71C982F811105C0892F0F9094
:103BA000DF91CF91089589818F77898341E050E03B
:103BB00060E070E0CE0101960E94601D91E08111ED
:103BC000EDCF90E0892F0F90DF91CF910895CF93A3
:103BD000DF931F92CDB7DEB741E050E060E070E0C8
:103BE000CE0101960E94C71C982F811105C0892F14
:103BF0000F90DF91CF91089589818078898341E08A
:103C000050E060E070E0CE0101960E94601D91E0FE
:103C10008111EDCF90E0892F0F90DF91CF91089522
:103C2000CF93DF93CDB7DEB727970FB6F894DEBFFB
:103C30000FBECDBFFC018081982F9F779983282FDD
:103C4000221F2227221F8181982F9F73990F922B69
:103C50009A83282F22952695269523708281982F66
:103C60009F70990F990F922B9B839381292F2695F3
:103C7000269527702C8382958F70292F237022958B
:103C8000207F822B8D839295969596959370848153
:103C90008770880F880F982B9E8385818F8347E0DC
:103CA00050E060E070E0CE0101960E94601D91E05E
:103CB000811101C090E0892F27960FB6F894DEBFDE
:103CC0000FBECDBFDF91CF9108950F931F93CF9378
:103CD000DF93CDB7DEB727970FB6F894DEBF0FBEE0
:103CE000CDBF8C0147E050E060E070E0CE0101966E
:103CF0000E94C71C8823F1F199818A8180FB97F982
:103D0000F8019083982F96958B81282F2295220F6A
:103D1000220F207C9F73922B9183982F96959695D6
:103D20008C818770282F220F220F8381382F307EBD
:103D30008D81482F4295407F9F70942B928382956E
:103D40008F70982F9370832F822B892B9E81292F20
:103D50002295220F220F207C8F73822B83839695CE
:103D60009695892F87709481987F982B94838F8163
:103D7000858381E027960FB6F894DEBF0FBECDBFD6
:103D8000DF91CF911F910F91089584B18C6284B916
:103D900081E58CBD08958EBD0DB407FEFDCF08955D
:103DA00043980E94CB1E439A0895409843980E94DE
:103DB000CB1E439A0895409A43980E94CB1E439A83
:103DC00008950F931F93CF93DF938C0140984398EE
:103DD00082E30E94CB1E439AE801025E1F4F899145
:103DE000409A43980E94CB1E439AC017D107B9F757
:103DF000DF91CF911F910F910895CF93DF930E9490
:103E0000C51E87B18B6087B93A9841988FE493ECCF
:103E10000197F1F700C00000419A8FE493EC0197FD
:103E2000F1F700C000004098439881E00E94CB1E4B
:103E3000439A409A439887E20E94CB1E439A409A45
:103E4000439881E00E94CB1E439A409A439880E0B9
:103E50000E94CB1E439A409843988CE00E94CB1E50
:103E6000439A409A439887ED0E94CB1E439A409A0A
:103E7000439886ED0E94CB1E439A409A43988DE961
:103E80000E94CB1E439A409843988CE20E94CB1E1E
:103E9000439A409A439888EA0E94CB1E439A4098DE
:103EA00043988AE30E94CB1E439A409A43988AE142
:103EB0000E94CB1E439A409843988BE30E94CB1EEE
:103EC000439A409A439888E00E94CB1E439A4098B8
:103ED00043988CE30E94CB1E439A409A439883E018
:103EE0000E94CB1E439A4098439881E10E94CB1ECA
:103EF000439A409A439883E00E94CB1E439A40988D
:103F0000439882E30E94CB1E439ACCE3D1E089918F
:103F1000409A43980E94CB1E439A91E0CA35D90734
:103F2000B1F7DF91CF9108954098439884E40E94BF
:103F3000CB1E439A409A439880E00E94CB1E439A3E
:103F4000409A43988FE00E94CB1E439A4098439832
:103F500085E40E94CB1E439A409A439880E00E94D9
:103F6000CB1E439A409A439880E00E94CB1E439A0E
:103F7000409A439887E20E94CB1E439A409A439806
:103F800081E00E94CB1E439A409843988EE40E94A1
:103F9000CB1E439A409A439880E00E94CB1E439ADE
:103FA000409843988FE40E94CB1E439A409A4398CE
:103FB00080E00E94CB1E439A409A439880E00E9482
:103FC000CB1E439A4098439882E20E94CB1E439AAC
:103FD000409A439884EC0E94CB1E439A40984398A1
:103FE00084E20E94CB1E439A08951F93CF93DF93E0
:103FF000182F0E94941FC0E8D2E1409A4398812F65
:104000000E94CB1E439A2197C1F7DF91CF911F9158
:104010000895CF92DF92EF92FF920F931F93CF9369
:10402000DF936C010E94941F760188EDE81A8EEFF1
:10403000F80A870100581D4EE701FE018491409A5D
:1040400043980E94CB1E439AC85DDE4F0C171D0794
:10405000A1F7F1E0EF1AF108EC14FD0451F7DF913C
:10406000CF911F910F91FF90EF90DF90CF90089527
:104070002F923F924F925F926F927F928F929F9278
:10408000AF92BF92CF92DF92EF92FF920F931F9366
:10409000CF93DF93CDB7DEB7C155D1090FB6F894F2
:1040A000DEBF0FBECDBF8C0162967FAF6EAF629751
:1040B0000E94941F8AE0E0E0F1E0DE01909601901A
:1040C0000D928A95E1F784E1EAE0F1E0DE011196D4
:1040D00001900D928A95E1F786E0EAE5F1E0DE01D4
:1040E0009A9601900D928A95E1F7D80111969C91CC
:1040F0001197892F829586958695837012962C91BB
:1041000012972F70220F220F822B282F22952F70AB
:10411000205D2AA78F70805D8BA78C91881F8827D0
:10412000881F9F73990F892B982F92959F70905D90
:104130009DA78F70805D8EA78BE0E0E6F1E0DE0149
:10414000559601900D928A95E1F7F801928192952A
:104150009F708381282F23702295207F922B292FF7
:1041600022952F70205D2D8B9F70905D9E8B829588
:1041700086958695837094819770990F990F892BF6
:10418000982F92959F70905D988F8F70805D898F2A
:104190009581292F22952F708DEC289F812D112438
:1041A000869586958695880F382F330F330F830FAA
:1041B000281B822F805D8D8F892F8F70805D8E8F61
:1041C000FFE22996FFAF29972A961FAE2A972B96D2
:1041D0001FAE2B972C961FAE2C972D961FAE2D97AA
:1041E0002E961FAE2E972F961FAE2F9760961FAE5E
:1041F00060972FE021962FAF219722961FAE22972E
:1042000023961FAE239724961FAE249725961FAEA4
:10421000259726961FAE269727961FAE2797289696
:104220001FAE28971CAA1DAA1EAA1FAA18AE19AE57
:104230001AAE1BAEBCA9B8ABEDA9E9AB2FEF3FEFAF
:104240003DAF2CAF84EF9FEF9FAF8EAF1BAA1AAA92
:10425000EAA9FBA93A9709F448C2ECADFDAD38973D
:1042600008F0E9C228A039A028A939A922153305E8
:1042700008F499C1412C512C612C712C43019101FE
:1042800040E050E060E070E080E090E0A0E30E9459
:10429000A03159016A017B018C012CA93DA94EA9CD
:1042A0005FA968AD79AD8AAD9BAD0E94B53108F0CC
:1042B0007AC180E090E0EAE2F0E0EC0FFD1FE80F49
:1042C000F91FF0818F2F0F2E000C990BAA0BBB0B3F
:1042D000C0978B30910508F0BEC28C5C9F4FFC01EB
:1042E0009101A201B301C4012996AFAC29972A9686
:1042F000BFAC2A972B96CFAC2B972C96DFAC2C9784
:104300002D96EFAC2D972E96FFAC2E972F960FADD6
:104310002F9760961FAD60970E949731490180E307
:104320000C949131ACADBDAD8A9FF0018B9FF00D27
:104330001124E80DF91DE653FC4F8491409A4398EF
:104340000E94CB1E439A2AA93BA92F5F3F4F3BAB4C
:104350002AAB8EAD9FAD01969FAF8EAFACADBDAD1C
:104360001196BDAFACAF2031310509F071CF2CA94A
:104370003DA94EA95FA968AD79AD8AAD9BADA1E01D
:104380000E94A0312CAB3DAB4EAB5FAB68AF79AFB9
:104390008AAF9BAF21962FAD219722963FAD2297F2
:1043A00023964FAD239724965FAD249725966FAD46
:1043B000259726967FAD269727968FAD2797289627
:1043C0009FAD2897AFEF0E94A03121962FAF219784
:1043D00022963FAF229723964FAF239724965FAF45
:1043E000249725966FAF259726967FAF2697279619
:1043F0008FAF279728969FAF289729962FAD29979B
:104400002A963FAD2A972B964FAD2B972C965FADF2
:104410002C972D966FAD2D972E967FAD2E972F96BC
:104420008FAD2F9760969FAD60970E94A03129961F
:104430002FAF29972A963FAF2A972B964FAF2B97EE
:104440002C965FAF2C972D966FAF2D972E967FAF42
:104450002E972F968FAF2F9760969FAF60972CA9BE
:104460003DA94EA95FA968AD79AD8AAD9BAD283253
:10447000314041055105610571058105910509F03E
:10448000D9CECF5ADF4F0FB6F894DEBF0FBECDBFE7
:10449000DF91CF911F910F91FF90EF90DF90CF9020
:1044A000BF90AF909F908F907F906F905F904F9054
:1044B0003F902F9008952CAD3DAD829FF001839FDA
:1044C000F00D1124E80DF91DE65BFA4F36CFACADC7
:1044D000BDAD8A9FF0018B9FF00D1124E80DF91DF1
:1044E000E653F94F2ACF2CAD3DAD829FF001839F5B
:1044F000F00D1124E80DF91DE65BF74F1ECFACADB2
:10450000BDAD8A9FF0018B9FF00D1124E80DF91DC0
:10451000E653F64F12CF2CAD3DAD829FF001839F45
:10452000F00D1124E80DF91DE65BF44F06CFACAD9C
:10453000BDAD8A9FF0018B9FF00D1124E80DF91D90
:10454000E653F34FFACE2CAD3DAD829FF001839F31
:10455000F00D1124E80DF91DE65BF14FEECEACAD88
:10456000BDAD8A9FF0018B9FF00D1124E80DF91D60
:10457000E653F04FE2CE2CAD3DAD829FF001839F1C
:10458000F00D1124E80DF91DE65BFE4ED6CE2CADE4
:104590003DAD829FF001839FF00D1124E80DF91DC0
:1045A000E65BFD4FCACE2AA03BA088A999A9821537
:1045B000930508F1412C512C612C712C4301910180
:1045C00040E050E060E070E080E090E0A0E30E9416
:1045D000A03159016A017B018C012CA93DA94EA98A
:1045E0005FA968AD79AD8AAD9BAD0E94B53118F475
:1045F00081E090E060CE2CA03DA0A8A9B9A9A215A9
:10460000B30508F1412C512C612C712C430191010F
:1046100040E050E060E070E080E090E0A0E30E94C5
:10462000A03159016A017B018C012CA93DA94EA939
:104630005FA968AD79AD8AAD9BAD0E94B53118F424
:1046400082E090E038CE2EA03FA0E8A9F9A9E215BB
:10465000F30508F1412C512C612C712C430191017F
:1046600040E050E060E070E080E090E0A0E30E9475
:10467000A03159016A017B018C012CA93DA94EA9E9
:104680005FA968AD79AD8AAD9BAD0E94B53118F4D4
:1046900083E090E010CE28A439A428A939A92215D6
:1046A000330508F4C8C0412C512C612C712C4301F6
:1046B000910140E050E060E070E080E090E0A0E335
:1046C0000E94A03159016A017B018C012CA93DA9EE
:1046D0004EA95FA968AD79AD8AAD9BAD0E94B53199
:1046E00008F0A9C084E090E0E6CD2CAD3DAD2830C7
:1046F000310508F0D9C428A039A088A999A9821544
:104700009305F8F0412C512C612C712C430191013F
:1047100040E050E060E070E080E090E0A0E30E94C4
:10472000A03159016A017B018C012CA93DA94EA938
:104730005FA968AD79AD8AAD9BAD0E94B53108F433
:10474000B8CD2AA03BA0A8A9B9A9A215B305F8F035
:10475000412C512C612C712C4301910140E050E01F
:1047600060E070E080E090E0A0E30E94A031590199
:104770006A017B018C012CA93DA94EA95FA968ADF6
:1047800079AD8AAD9BAD0E94B53108F431CF2CA034
:104790003DA0E8A9F9A9E215F305F8F0412C512C48
:1047A000612C712C4301910140E050E060E070E029
:1047B00080E090E0A0E30E94A03159016A017B01F2
:1047C0008C012CA93DA94EA95FA968AD79AD8AAD30
:1047D0009BAD0E94B53108F433CF2EA03FA028A98D
:1047E00039A922153305F8F0412C512C612C712C7C
:1047F0004301910140E050E060E070E080E090E033
:10480000A0E30E94A03159016A017B018C012CA90F
:104810003DA94EA95FA968AD79AD8AAD9BAD0E9457
:10482000B53108F435CF28A439A488A999A98215EF
:10483000930508F038CF8AA99BA90F9791F0AEADE8
:10484000BFAD129708F4CCC1409A43988FEF0E94F5
:10485000CB1E439A78CDF11176CD8AA99BA90F97EB
:1048600071F78EAD9FAD029708F40DC589809A80CF
:10487000A8A9B9A9A815B90508F402C5940140E092
:1048800050E060E070E080E090E0A0E10E94A031A4
:1048900059016A017B018C016296EEADFFAD629712
:1048A0008581882309F4E8C42CA93DA94EA95FA9F4
:1048B00068AD79AD8AAD9BAD0E94B53108F0DCC41E
:1048C0008FEB0E94DB1EFFE528A939A98B809C8015
:1048D0002815390528F1940140E050E060E070E0CF
:1048E00080E090E0A0E10E94A03159016A017B01C3
:1048F0008C016296AEADBFAD629716968C918823FF
:1049000079F02CA93DA94EA95FA968AD79AD8AAD12
:104910009BAD0E94B53120F48FEB0E94DB1EFFE5BA
:104920008D809E8028A939A92815390528F1940180
:1049300040E050E060E070E080E090E0A0E10E94A4
:10494000A03159016A017B018C016296AEADBFAD09
:10495000629717968C91882379F02CA93DA94EA9CE
:104960005FA968AD79AD8AAD9BAD0E94B53120F4E9
:104970008FEB0E94DB1EFFE58F80988428A939A960
:104980002815390528F1940140E050E060E070E01E
:1049900080E090E0A0E10E94A03159016A017B0112
:1049A0008C016296AEADBFAD629718968C9188234C
:1049B00079F02CA93DA94EA95FA968AD79AD8AAD62
:1049C0009BAD0E94B53120F48FEB0E94DB1EFFE50A
:1049D00089849A8428A939A92815390528F19401D0
:1049E00040E050E060E070E080E090E0A0E10E94F4
:1049F000A03159016A017B018C016296AEADBFAD59
:104A0000629719968C91882379F02CA93DA94EA91B
:104A10005FA968AD79AD8AAD9BAD0E94B53120F438
:104A20008FEB0E94DB1EFFE58B849C8428A939A9AB
:104A30002815390528F1940140E050E060E070E06D
:104A400080E090E0A0E10E94A03159016A017B0161
:104A50008C016296AEADBFAD62971A968C91882399
:104A600079F02CA93DA94EA95FA968AD79AD8AADB1
:104A70009BAD0E94B53120F48FEB0E94DB1EFFE559
:104A80008D849E8428A939A92815390528F1940117
:104A900040E050E060E070E080E090E0A0E10E9443
:104AA000A03159016A017B018C016296AEADBFADA8
:104AB00062971B968C91882379F02CA93DA94EA969
:104AC0005FA968AD79AD8AAD9BAD0E94B53120F488
:104AD0008FEB0E94DB1EFFE58F84988828A939A9F7
:104AE0002815390528F1940140E050E060E070E0BD
:104AF00080E090E0A0E10E94A03159016A017B01B1
:104B00008C016296AEADBFAD62971C968C918823E6
:104B100079F02CA93DA94EA95FA968AD79AD8AAD00
:104B20009BAD0E94B53120F48FEB0E94DB1EFFE5A8
:104B300089889A8828A939A92815390528F1940166
:104B400040E050E060E070E080E090E0A0E10E9492
:104B5000A03159016A017B018C016296AEADBFADF7
:104B600062971D968C91882379F02CA93DA94EA9B6
:104B70005FA968AD79AD8AAD9BAD0E94B53120F4D7
:104B80008FEB0E94DB1EFFE58B889C8828A939A942
:104B90002815390510F1940140E050E060E070E024
:104BA00080E090E0A0E10E94A03159016A017B0100
:104BB0008C016296AEADBFAD62971E968C91882334
:104BC00061F02CA93DA94EA95FA968AD79AD8AAD68
:104BD0009BAD0E94B53108F444C3F111B4CB34CE7F
:104BE00029803A80E8A9F9A9E215F30508F4F2C092
:104BF000412C512C612C712C4301910140E050E07B
:104C000060E070E080E090E0A0E10E94A0315901F6
:104C10006A017B018C012CA93DA94EA95FA968AD51
:104C200079AD8AAD9BAD0E94B53108F0D3C080E06C
:104C300090E0E5E1F0E0EC0FFD1FE80FF91FF081D7
:104C40008F2F0F2E000C990BAA0BBB0B8F978C305C
:104C5000910518F6815C9F4FFC019101A201B301FF
:104C6000C4012196AFAC21972296BFAC2297239620
:104C7000CFAC23972496DFAC24972596EFAC2597ED
:104C80002696FFAC269727960FAD279728961FAD3F
:104C900028970E94973149010C949131EEADFFADF8
:104CA000E295F295F07FFE27E07FFE27E80DF91DE3
:104CB000E65FFE4F42CBEEADFFADE295F295F07FA1
:104CC000FE27E07FFE27E80DF91DE65DFE4F35CBA0
:104CD000EEADFFADE295F295F07FFE27E07FFE2777
:104CE000E80DF91DE65BFE4F28CBEEADFFADE2957A
:104CF000F295F07FFE27E07FFE27E80DF91DE659CB
:104D0000FE4F1BCBEEADFFADE295F295F07FFE2797
:104D1000E07FFE27E80DF91DE657FE4F0ECBEEAD06
:104D2000FFADE295F295F07FFE27E07FFE27E80DCC
:104D3000F91DE655FE4F01CBEEADFFADE295F295C4
:104D4000F07FFE27E07FFE27E20FF31FE653FE4FC2
:104D5000F4CAEEADFFADE295F295F07FFE27E07F5D
:104D6000FE27E20FF31FE651FE4FE7CAEEADFFAD9F
:104D7000E295F295F07FFE27E07FFE27E20FF31F1A
:104D8000E65FFD4FDACAEEADFFADE295F295F07F3A
:104D9000FE27E07FFE27E20FF31FE65DFD4FCDCA41
:104DA000EEADFFADE295F295F07FFE27E07FFE27A6
:104DB000E80DF91DE653FF4FC0CAEEADFFADE29519
:104DC000F295F07FFE27E07FFE27E80DF91DE65102
:104DD000FF4FB3CA2B803C8028A939A9221533057F
:104DE00008F1412C512C612C712C4301910140E0C0
:104DF00050E060E070E080E090E0A0E10E94A0312F
:104E000059016A017B018C012CA93DA94EA95FA91A
:104E100068AD79AD8AAD9BAD0E94B53118F481E0E3
:104E200090E007CF2D803E8088A999A9821593052F
:104E300008F1412C512C612C712C4301910140E06F
:104E400050E060E070E080E090E0A0E10E94A031DE
:104E500059016A017B018C012CA93DA94EA95FA9CA
:104E600068AD79AD8AAD9BAD0E94B53118F482E092
:104E700090E0DFCE2F803884A8A9B9A9A215B30588
:104E800008F1412C512C612C712C4301910140E01F
:104E900050E060E070E080E090E0A0E10E94A0318E
:104EA00059016A017B018C012CA93DA94EA95FA97A
:104EB00068AD79AD8AAD9BAD0E94B53118F483E041
:104EC00090E0B7CE29843A84E8A9F9A9E215F30560
:104ED00008F1412C512C612C712C4301910140E0CF
:104EE00050E060E070E080E090E0A0E10E94A0313E
:104EF00059016A017B018C012CA93DA94EA95FA92A
:104F000068AD79AD8AAD9BAD0E94B53118F484E0EF
:104F100090E08FCE2B843C8428A939A92215330533
:104F200008F1412C512C612C712C4301910140E07E
:104F300050E060E070E080E090E0A0E10E94A031ED
:104F400059016A017B018C012CA93DA94EA95FA9D9
:104F500068AD79AD8AAD9BAD0E94B53118F485E09E
:104F600090E067CE2D843E8488A999A98215930587
:104F700008F1412C512C612C712C4301910140E02E
:104F800050E060E070E080E090E0A0E10E94A0319D
:104F900059016A017B018C012CA93DA94EA95FA989
:104FA00068AD79AD8AAD9BAD0E94B53118F486E04D
:104FB00090E03FCE2F843888A8A9B9A9A215B305DF
:104FC00008F1412C512C612C712C4301910140E0DE
:104FD00050E060E070E080E090E0A0E10E94A0314D
:104FE00059016A017B018C012CA93DA94EA95FA939
:104FF00068AD79AD8AAD9BAD0E94B53118F487E0FC
:1050000090E017CE29883A88E8A9F9A9E215F305B6
:1050100008F1412C512C612C712C4301910140E08D
:1050200050E060E070E080E090E0A0E10E94A031FC
:1050300059016A017B018C012CA93DA94EA95FA9E8
:1050400068AD79AD8AAD9BAD0E94B53118F488E0AA
:1050500090E0EFCD2B883C8828A939A9221533058B
:1050600008F4F2CB412C512C612C712C430191019D
:1050700040E050E060E070E080E090E0A0E10E945D
:10508000A03159016A017B018C012CA93DA94EA9CF
:105090005FA968AD79AD8AAD9BAD0E94B53108F0CE
:1050A000D3CB89E090E0C5CD88A099A0A8A9B9A9E3
:1050B000A815B90508F4DDC0940140E050E060E0B7
:1050C00070E080E090E0A0E30E94A03159016A0105
:1050D0007B018C016296EEADFFAD629780818823E3
:1050E00009F4C3C02CA93DA94EA95FA968AD79AD4B
:1050F0008AAD9BAD0E94B53108F0B7C08FEB0E941E
:10510000DB1EFFE528A939A98AA09BA0281539052F
:1051100028F1940140E050E060E070E080E090E031
:10512000A0E30E94A03159016A017B018C016296C3
:10513000AEADBFAD629711968C91882379F02CA902
:105140003DA94EA95FA968AD79AD8AAD9BAD0E941E
:10515000B53120F48FEB0E94DB1EFFE58CA09DA0F3
:1051600028A939A92815390528F1940140E050E013
:1051700060E070E080E090E0A0E30E94A03159017F
:105180006A017B018C016296AEADBFAD629712964B
:105190008C91882379F02CA93DA94EA95FA968AD0F
:1051A00079AD8AAD9BAD0E94B53120F48FEB0E94A2
:1051B000DB1EFFE58EA09FA028A939A92815390577
:1051C00028F1940140E050E060E070E080E090E081
:1051D000A0E30E94A03159016A017B018C01629613
:1051E000AEADBFAD629713968C91882379F02CA950
:1051F0003DA94EA95FA968AD79AD8AAD9BAD0E946E
:10520000B53120F48FEB0E94DB1EFFE588A499A442
:1052100028A939A92815390508F41DCB940140E0C7
:1052200050E060E070E080E090E0A0E30E94A031F8
:1052300059016A017B018C016296AEADBFAD6297E8
:1052400014968C91882309F406CB2CA93DA94EA96C
:105250005FA968AD79AD8AAD9BAD0E94B53108F00C
:10526000FACA8FEB0E94DB1E6EC8F0E028A939A9AC
:105270004BCFF0E09D0148CFF0E028A939A926CB1B
:10528000F0E09D0123CB29803A80E8A9F9A9E21535
:10529000F305F8F0412C512C612C712C4301910144
:1052A00040E050E060E070E080E090E0A0E10E942B
:1052B000A03159016A017B018C012CA93DA94EA99D
:1052C0005FA968AD79AD8AAD9BAD0E94B53108F498
:1052D000AECC2B803C8028A939A922153305F8F0E3
:1052E000412C512C612C712C4301910140E050E084
:1052F00060E070E080E090E0A0E10E94A031590100
:105300006A017B018C012CA93DA94EA95FA968AD5A
:1053100079AD8AAD9BAD0E94B53108F480CD2D806A
:105320003E8088A999A982159305F8F0412C512C4B
:10533000612C712C4301910140E050E060E070E08D
:1053400080E090E0A0E10E94A03159016A017B0158
:105350008C012CA93DA94EA95FA968AD79AD8AAD94
:105360009BAD0E94B53108F482CD2F803884A8A966
:10537000B9A9A215B305F8F0412C512C612C712C60
:105380004301910140E050E060E070E080E090E097
:10539000A0E10E94A03159016A017B018C012CA976
:1053A0003DA94EA95FA968AD79AD8AAD9BAD0E94BC
:1053B000B53108F484CD29843A84E8A9F9A9E21525
:1053C000F305F8F0412C512C612C712C4301910113
:1053D00040E050E060E070E080E090E0A0E10E94FA
:1053E000A03159016A017B018C012CA93DA94EA96C
:1053F0005FA968AD79AD8AAD9BAD0E94B53108F467
:1054000086CD2B843C8428A939A922153305F8F0D0
:10541000412C512C612C712C4301910140E050E052
:1054200060E070E080E090E0A0E10E94A0315901CE
:105430006A017B018C012CA93DA94EA95FA968AD29
:1054400079AD8AAD9BAD0E94B53108F488CD2D842D
:105450003E8488A999A982159305F8F0412C512C16
:10546000612C712C4301910140E050E060E070E05C
:1054700080E090E0A0E10E94A03159016A017B0127
:105480008C012CA93DA94EA95FA968AD79AD8AAD63
:105490009BAD0E94B53108F48ACD2F843888A8A925
:1054A000B9A9A215B305F8F0412C512C612C712C2F
:1054B0004301910140E050E060E070E080E090E066
:1054C000A0E10E94A03159016A017B018C012CA945
:1054D0003DA94EA95FA968AD79AD8AAD9BAD0E948B
:1054E000B53108F48CCD29883A88E8A9F9A9E215E4
:1054F000F305F8F0412C512C612C712C43019101E2
:1055000040E050E060E070E080E090E0A0E10E94C8
:10551000A03159016A017B018C012CA93DA94EA93A
:105520005FA968AD79AD8AAD9BAD0E94B53108F435
:105530008ECD2B883C8828A939A92215330508F47B
:1055400083C990CD2F923F924F925F926F927F923C
:105550008F929F92AF92BF92CF92DF92EF92FF9283
:105560000F931F93CF93DF93CDB7DEB72E970FB670
:10557000F894DEBF0FBECDBF4C017E876D870E94C1
:10558000941F86E0EAE5F1E0DE01119601900D92AC
:105590008A95E1F7F4019181892F82958695869508
:1055A000837022812F70220F220F822B282F2295A9
:1055B0002F70205D29838F70805D8A838081881F92
:1055C0008827881F9F73990F892B982F92959F701A
:1055D000905D9C838F70805D8D83612C712C1F8208
:1055E00018861986212C312C412C512C3A8688E2C0
:1055F00091E084199509ED85FE85E80FF91FFC8778
:10560000EB8784EF882E99249A94822D232C382EB0
:105610007EC093014F8158856985722D832D9A85AF
:105620002B3B31054105510561057105810591054A
:1056300009F028F4F2E08F16910408F49AC093015F
:105640004F8158856985722D832D9A852B3A3105B6
:1056500041055105610571058105910509F028F4A1
:10566000F2E08F16910408F46BC093014F815885C6
:105670006985722D832D9A852B3931054105510598
:10568000610571058105910509F028F4F2E08F1696
:10569000910408F4A8C093014F8158856985722D43
:1056A000832D9A852B38310541055105610571051A
:1056B0008105910509F028F4F2E08F16910408F4B1
:1056C00096C093014F8158856985722D832D9A85E7
:1056D000ABE70E94BE3109F028F432E08316910452
:1056E00008F489C0EB85FC858491409A43980E9418
:1056F000CB1E439A2B853C85285D3E4F3C872B87EC
:105700003FEF831A930A84E088169104B1F19CEA72
:105710004916510408F07DCF2CE94216510408F0D7
:105720008ECF2CE84216510408F09FCF2CE742168A
:10573000510408F0B0CF2CE64216510498F2C1CFC4
:105740002BEA81E090E0E1E0F0E0EC0FFD1FE80FD4
:10575000F91F3081832F032E000C990BAA0BBB0B72
:10576000FC01BF97EC30F10508F449C03111C2CFFC
:10577000B9CF2BEB80E090E0E6CF832D322C282EA2
:105780008FEF481A580A93014F8158856985732D08
:10579000822D9A85A1E00E94A03139014F8358875C
:1057A0006987372E282E9A8798E2491691E0590684
:1057B00009F01DCF2E960FB6F894DEBF0FBECDBFF9
:1057C000DF91CF911F910F91FF90EF90DF90CF90DD
:1057D000BF90AF909F908F907F906F905F904F9011
:1057E0003F902F9008952BE982E090E0ACCF2BE81A
:1057F00083E090E0A8CF2BE784E090E0A4CFE55BC6
:10580000FF4F30E040E050E060E070E080E090E08A
:105810005301CF80D884E984F22C032D1A850E948D
:10582000AC3159010C949131F401E295F295F07F7D
:10583000FE27E07FFE27EA0DFB1DE65FFE4F54CFFB
:10584000F401E295F295F07FFE27E07FFE27EA0D56
:10585000FB1DE65DFE4F48CFF401E295F295F07F27
:10586000FE27E07FFE27EA0DFB1DE65BFE4F3CCFE7
:10587000F401E295F295F07FFE27E07FFE27EA0D26
:10588000FB1DE659FE4F30CFF401E295F295F07F13
:10589000FE27E07FFE27EA0DFB1DE657FE4F24CFD3
:1058A000F401E295F295F07FFE27E07FFE27E20FFC
:1058B000F31FE655FE4F18CFF401E295F295F07F05
:1058C000FE27E07FFE27E20FF31FE653FE4F0CCFCB
:1058D000F401E295F295F07FFE27E07FFE27E20FCC
:1058E000F31FE651FE4F00CFF401E295F295F07FF1
:1058F000FE27E07FFE27E20FF31FE65FFD4FF4CEA9
:10590000F401E295F295F07FFE27E07FFE27EA0D95
:10591000FB1DE65DFD4FE8CEF401E295F295F07FC8
:10592000FE27E07FFE27EA0DFB1DE653FF4FDCCE8E
:10593000F401E295F295F07FFE27E07FFE27EA0D65
:10594000FB1DE651FF4FD0CE4098439880E20E9465
:10595000CB1E439A409843988FEF0E94CB1E439AE8
:1059600008950E94BE1D8AB18F718AB90E94FD1EE2
:1059700010927A0083B7817F846083BF529810921F
:105980006900E89A78940895789483B7816083BF1A
:1059900085B7806685BF8F7D85BF889583B78E7FED
:1059A00083BFF8940895982F92959F708F702AE086
:1059B000929F800D112408959DEC899F912D1124B3
:1059C00096959695969526E0929F800D11240895C0
:1059D0001F920F920FB60F9211248F939F9389B14C
:1059E0008095881F8827881F80936E0189B191E078
:1059F00086FB882780F9892780936D0189B185FB13
:105A0000882780F9982790936C019F918F910F9030
:105A10000FBE0F901F901895FC019381392F32957E
:105A200036953695337024812770220F220F232B51
:105A30002830E1F0293071F0203121F58281829502
:105A40008F7093709295907F982B81E0913109F03F
:105A500080E00895828182958F7093709295907FF7
:105A6000982B81E09132A9F380E0F3CF8281829577
:105A70008F7093709295907F982B81E0913349F3CA
:105A800080E0E7CF213121F7828182958F7093707A
:105A90009295907F982B81E09530D9F280E0D9CF14
:105AA000FC019381392F32953695369533702481D8
:105AB0002770220F220F232B2130E1F0223071F0CA
:105AC000233021F5828182958F7093709295907F1B
:105AD000982B81E0903109F080E0089582818295D1
:105AE0008F7093709295907F982B81E09530A9F3F9
:105AF00080E0F3CF828182958F7093709295907F32
:105B0000982B81E0913049F380E0E7CF243061F4B5
:105B1000828182958F7093709295907F982B81E00F
:105B20009531D9F280E0D9CF253061F48281829518
:105B30008F7093709295907F982B81E0903269F2EC
:105B400080E0CBCF263069F4828182958F7093708C
:105B50009295907F982B81E0953209F4BECF80E03A
:105B6000BCCF273009F0B8CF828182958F709370B7
:105B70009295907F982B81E0903309F4AECF80E02E
:105B8000ACCFCF93DF93CDB7DEB7CE57D1090FB6E9
:105B9000F894DEBF0FBECDBF0E94B12C8E01075816
:105BA0001F4F86E0F80111928A95E9F7CE01019620
:105BB0007C0188E7F70111928A95E9F781E0888BEB
:105BC00088A389AB22968FAF229762968FAF629798
:105BD00063968FAF6397A4968FAFA497A5968FAF68
:105BE000A597E6968FAFE697E7968FAFE797E8968B
:105BF0008FAFE897E9968FAFE997D12C99249394CA
:105C0000C12C8FE0B82E9DECA92EC8010E94651E04
:105C1000882371F0F8018081982F991F9927991F87
:105C200081818F73880F892B8D1511F0992493949E
:105C300080916D01882309F46AC010926D0181E0A2
:105C40008C0D8770C82E09F08BC20E94BE1DF80112
:105C50008381282F2295269526952370948197700D
:105C6000990F990F922B983009F481C2993009F459
:105C70008FC29031C1F5F801928192959F70837027
:105C80008295807F892B8131D9F1C12C4701BC9C41
:105C9000800C911C1124B401C8010E94382080910D
:105CA0006E01811108C080916D01811104C0809145
:105CB0006C01882321F0B401C8010E9438200E94A1
:105CC000A42C10926E0110926D0110926C01F801DB
:105CD0009081991F9927991F81818F73880FD82EE2
:105CE000D92A912C92CF913109F064C2F8019281A6
:105CF00092959F7083708295807F892B853029F6DD
:105D00006AE475E2C8010E94A22AC12CD8CF809112
:105D10006E01811130C120916C01222309F423C24C
:105D2000F8018081807880838C2D90E0FC01319790
:105D3000E730F105C0F5E95AFF4F0C949131F801B5
:105D40008181982F929596959695937082818F7008
:105D5000880F880F892B282F30E0A901407F552715
:105D600040325105A9F0805F8F73282F2295220FB2
:105D7000220F207CF80191819F73922B9183282F11
:105D8000269526959281907F922B9283282F30E042
:105D90002432310544F0F8018181806C8183828155
:105DA000807F88608283C8010E94101EC1106ECF60
:105DB0004ECF2223C1F3F80185818939A1F3982FB1
:105DC00092959F708F708F5FFAE09F9F800D1124D6
:105DD0008A9D912D112496959695969526E0929FF1
:105DE000800D1124F8018583DECF2223E1F2F80132
:105DF0008081982F991F9927991F81818F73880F10
:105E0000892B982F9F70993071F28F5FF8019081E4
:105E100080FB97F9908386958F739181907C892B75
:105E20008183C1CF222309F4BECFF8018081982F4E
:105E3000991F9927991F81818F73880F892B982F1C
:105E40009077903509F4AFCF805FE0CF222309F43B
:105E5000AACFF8018181982F929596959695937087
:105E600082818F70880F880F892B982F9F709930AF
:105E700009F499CF843209F496CF8F5F282F2295A9
:105E8000220F220F207CF80191819F73922B918326
:105E9000869586958F709281907F892B828383CFA0
:105EA000222309F480CFF8018381982F929596954B
:105EB0009695937084818770880F880F892B823123
:105EC00009F471CF982F92959F70990F292F220F67
:105ED000220F920F8F708F5F890F8A9D912D112451
:105EE000969596959695F6E09F9F800D1124282F04
:105EF0002295220F220F207CF80193819F73922B11
:105F000093838695869587709481987F892B848367
:105F10004ACF222309F447CFF8018281982F929526
:105F20009F70838183708295807F892B813309F4F0
:105F30003ACF982F92959F708F708F5FFAE09F9F56
:105F4000800D11248A9D912D1124969596959695F4
:105F500026E0929F800D1124282F2295207FF801A2
:105F600092819F70922B92838295837093819C7F04
:105F7000892B838318CFF8018081807880838C2DD2
:105F800090E0FC013197E730F10508F00CCFE25AC0
:105F9000FF4F0C949131F8013381932F9295969590
:105FA000969593702481822F8770880F880F892B94
:105FB000813009F443C1982F92959F70990F492F12
:105FC000440F440F490F982F9F709150842F890FD1
:105FD0008A9D912D1124969596959695F6E09F9F12
:105FE000800D1124982F9295990F990F907C3F73F3
:105FF000392BF8013383869586958770287F822B0D
:106000008483D1CEF8013281932F92959F702381A2
:10601000822F83708295807F892B813009F413C190
:10602000982F92959F708F708150FAE09F9F800DFE
:1060300011248A9D912D112496959695969546E06A
:10604000949F800D1124982F9295907F3F70392B4B
:10605000F8013283829583702C7F822B8383A3CEB9
:10606000F8013081932F991F9927991F2181822F41
:106070008F73880F892B982F9F7009F4C9C08150A6
:1060800080FB37F9F801308386958F73207C822B53
:10609000818389CEF8013081932F991F9927991F09
:1060A0002181822F8F73880F892B982F907709F485
:1060B000B9C08051E5CFF8013181932F9295969523
:1060C000969593702281822F8F70880F880F892B6D
:1060D000982F9F7009F4A1C08150982F9295990F25
:1060E000990F907C3F73392BF80131838695869503
:1060F0008F70207F822B828356CEF8018581882382
:1061000009F497C0982F92959F708F7081505CCE44
:10611000F8015181952F92959695969593704281AD
:10612000842F8F70880F880F892B282F30E0B901BA
:10613000607F7727672B09F466C080518F73982F93
:106140009295990F990F907C5F73592B5183982FDB
:1061500096959695407F492B4283282F30E018CEA4
:106160000E94E71D93CD992009F4B1CD1FCE9281F5
:1061700092959F7083708295807F892B813309F07F
:1061800084CD6AE475E2C8010E94A22AC12C97CD91
:10619000F801928192959F7083708295807F892B00
:1061A000813209F072CD6AE475E2C8010E94A22A28
:1061B000C12C85CD9130A9F0923009F049C0F80189
:1061C000928192959F7083708295807F892B853014
:1061D00009F05BCD6AEC72E1C8010E94A22AC12CD1
:1061E0006ECDF801928192959F7083708295807F29
:1061F000892B813009F049CD6AEC72E1C8010E9417
:10620000A22AC12C5CCD90916C019111ACCDC0CD76
:1062100090916C019111F9CDC6CD90916C019111C5
:1062200029CEC1CD90916C01992309F4BCCD805F3A
:10623000EDCD90916C019111C2CDB5CD90916C01D5
:10624000911140CEB0CD90916C01911172CEABCD39
:10625000933091F4F801928192959F7083708295AA
:10626000807F892B803109F010CD6AEC72E1C80182
:106270000E94A22AC12C23CD943091F4F80192817E
:1062800092959F7083708295807F892B853109F06C
:10629000FCCC6AEC72E1C8010E94A22AC12C0FCD8D
:1062A000953091F4F801928192959F708370829558
:1062B000807F892B803209F0E8CC6AEC72E1C8015A
:1062C0000E94A22AC12CFBCC9630A1F4F801828155
:1062D000982F92959F70838183708295807F892B00
:1062E000853209F0D2CC6AEC72E1C8010E94A22A80
:1062F000C12CE5CC973009F0C8CCF8018281982FE9
:1063000092959F70838183708295807F892B8033E3
:1063100009F0BBCC6AEC72E1C8010E94A22AC12C30
:10632000CECCEE0FFF1F0590F491E02D09942A0DBD
:106330003B1D4C1D5D1D6E1D7F1D801F911F08950F
:106340000024A7FD00942A0F301D401D501D601D24
:10635000701D801D901D08952A193B094C095D0987
:106360006E097F09800B910B08952A153B054C059A
:106370005D056E057F058007910708950024A7FD40
:1063800000942A173005400550056005700580050A
:0863900090050895F894FFCF79
:10639800DC00AC007C004C001C00D400C400B4003D
:1063A800A400940084007400640054004400101891
:1063B800180818180800000000000000000000007D
:1063C8000000131444120000000000000202011132
:1063D80012122222666969595899998800000000AA
:1063E800F8B413513551511901003A3A3A3A3A0082
:0C63F8003A3A2F3A3A2F32303A3A00007D
:00000001FF
